:020000040000FA
:060000000219FD02078F4A
:03000B000203BE2F
:030013000207AB36
:03001B000205FBE0
:03002B0002045874
:03005B000207BDDC
:0300730002048DF7
:1000A000080C10182030406080A0C0E0F0C2AFC043
:1000B000829000B57301D501E601FA210E211F21BE
:1000C000332144215B216F2186219421A821B9216C
:1000D000D321E421FBD082D2AFA6F008A67008A6F7
:1000E0006E08856EF022D082D2AFA6F008A66E0808
:1000F000A66F08A66E08856EF022D082D2AFE56F9B
:10010000B5F002E570F608A67008856EF022D08280
:10011000D2AFA6F008A66E08A67008856EF022D0B1
:1001200082D2AFA6F008A66F08A66E08A66E088554
:100130006EF022D082D2AFA6F008A66F08A66F0894
:10014000856EF022D082D2AFE56FB5F002E570F691
:1001500008A66E08A66F08856EF022D082D2AFA6E0
:10016000F008A66E08A66E08A66F08856EF022D06D
:1001700082D2AFE56FB5F002E570F608A66F08A66B
:100180006E08856EF022D082D2AFA6F008A6700865
:10019000856FF022D082D2AFE56FB5F002E570F640
:1001A00008A66F08856FF022D082D2AFA6F008A60D
:1001B0006E08A66F08856FF022D082D2AFE56FB5CA
:1001C000F002E570F608A66E08A66E08A66E088511
:1001D0006EF022D082D2AFA6F008A66F08A66E08F5
:1001E000856FF022D082D2AFE56FB5F002E570F6F0
:1001F00008A66E08A66E08856FF022D082D2AFA640
:10020000F008A66E08A66E08A66E08856FF022E5B7
:100210002CA25F33F52B752C0F8075E52CA25F3374
:10022000A25E33F52B752C0D8066E52CA25F33A200
:100230005E33A25D33F52B752C0B8054E52B54F007
:10024000C264452CC4F52B752C098044E52BA260B3
:1002500013A26113A26213F52B752C078032E52BD4
:10026000A26013A26113F52B752C058023E52BA248
:100270006013F52B752C03801720679320669C2054
:1002800065A82064B72063C42062D32061DFE52B1A
:10029000C4652B652CF4F57122C23E78E9303D022D
:1002A00078D1856EF0E57123541E11AD85F071880B
:1002B00072228571F0A872E52B23541E11AD85F0D2
:1002C000718872228571F0A872E52BC423541E1127
:1002D000AD85F0718872228571F0A872E52C2354E7
:1002E0001E11ADA6F008E878E8303D0278D0F6C2DD
:1002F000AF203B05B23DD2AF22D23ED2AF22E52E97
:10030000B4F00DE52D7009752BFF752CFF51792286
:10031000E52DA27013F52BA27113252BF52BE52EDD
:1003200003C2E7F52C03C2E7352CF52C517922C224
:1003300083C0D0C0E0740FD5E0FDD0E0D0D0D28330
:10034000C0D0C0E07405D5E0FDD0E0D0D022C2839B
:10035000C0D0C0E07405D5E0FDD0E0D0D0D283C0DD
:10036000D0C0E0740FD5E0FDD0E0D0D022C0D0C026
:10037000E0C0F0C2A8C28CD28375A40CC0D0C0E08B
:100380007402D5E0FDD0E0D0D075F00830E70471FC
:100390002F8002714E23D5F0F375A404D283C0D010
:1003A000C0E07405D5E0FDD0E0D0D0D28C758A00D5
:1003B000758C00C289D2A8D0F0D0E0D0D022203BEA
:1003C0000132C0D0C0E075D01118E8B56D3320837C
:1003D0000BD283856E8A08D0E0D0D03275A404D2C7
:1003E00083C23B758E0C7589AAC2A9C289C28B755E
:1003F0008A00758C00758200D2A8D2AAD0E0D0D035
:1004000032B283868AD0E0D0D032C28D203B012226
:10041000C0D0C0E075D01118E8B56D3320830BD281
:1004200083856E8A08D0E0D0D02275A404D283C21E
:100430003B758E0C7589AAC2A9C289C28B758A00C8
:10044000758C00758200D2A8D2AAD0E0D0D022B29A
:1004500083868AD0E0D0D022C0D0C0E0C2CF053B96
:10046000E5606009E55F6005755F00801B755F01F1
:10047000E52360021523C3E54C6005754D00800837
:10048000054DE54D7002154DD0E0D0D032C2AF53CE
:10049000E67F7592FA7593FFC22053917FD2AF32F7
:1004A000758200752800752900752A00780075F09E
:1004B00000E0C0E0C395F0D0F0C395644002D24B99
:1004C0000582E0C0E0C395F0D0F0C395644002D24D
:1004D0004A0582E0C0E0C395F0D0F0C395644002C5
:1004E000D2490582E0C0E0C395F0D0F0C3956440E6
:1004F00002D2480582E0C0E0C395F0D0F0C3956415
:100500004002D2470582E0C0E0C395F0D0F0C39529
:10051000644002D2460582E0C0E0C395F0D0F0C34B
:1005200095644002D2450582E0C0E0C395F0D0F06A
:10053000C395644002D2440582E0C0E0C395F0D088
:10054000F0C395644002D2430582E0C0E0C395F059
:10055000D0F0C395644002D2420582E0C0E0C3956A
:10056000F0D0F0C395644002D2410582E0C0E0C300
:1005700095F0D0F0C395644002D2400582E0C0E01F
:10058000C395F0D0F0C395644002D2530582E0C019
:10059000E0C395F0D0F0C395644002D2520582E0EA
:1005A000C0E0C395F0D0F0C395644002D2510582FB
:1005B000E0C0E0C395F0D0F0C395644002D250058E
:1005C00082E528C465286529303701F4652A540F6F
:1005D00022900000D2A8D2AA0522E522700215229C
:1005E000C3E5229432400A754C00D0F0D0E0D0D060
:1005F0003275230AD0F0D0E0D0D032C2AFC2A8C248
:100600008EC0D0C0E0C0F075D010C2CAA8CCA9CDB1
:10061000D2CAD2AF758A00C3E89567F8E99568F940
:10062000E970AEE8956940A9956A50A5E582B410D5
:10063000A091A0709C85286B85296CD23C20370E38
:10064000900000D2A8D2AAD0F0D0E0D0D032303E74
:1006500004B23DC23E756DD0303D03756DE878D073
:10066000303D0278E8E6C28D758A55758E09758928
:10067000A2D23BD2A9D28375A40C75D011F8D0F0C8
:10068000D0E0D0D0320483223C78B4F0F0C23CC237
:10069000AFA96BE56BC39460FAE56CD2AF9400FB35
:1006A00050177B007A00E96010C313500CB54A0460
:1006B000054B8005F54A754B00303A27C3EA94D0C4
:1006C000F8EB9407F9400BE8FAE9FB203509D2353D
:1006D000C1D7303502C235203902B235C3EA33FA08
:1006E000EB33FBEB2B3B3BF9C3EB13FBEA13FAEACF
:1006F00029FAEB3400FB30E3047AFF7BFFE5255455
:1007000003601D202A1AE55B33F9EB7007C3E99AF1
:100710004002E9FAE5365403D1852AFAEB3400FBAE
:10072000C3EA33C4540FF8EB33C454F048F87005EF
:10073000EA60027801E52260021522D230884CE599
:100740004C6003754D00AC59C3E559955A4002AC55
:100750005AC3EC954C5008EC75F008A4FAABF08A3B
:100760005253520F8BF07900EAA2F013A2F113A2B8
:10077000F213F4F8C3E89419FAE99400FB50047AF0
:10078000007B00884E894F8A508B5175230A22C006
:10079000E0E58AF0058285668BD0E032C289C0E050
:1007A000E58AF0058285668BD0E022C2AA85668B39
:1007B000D28EC2CA85CC6785CD68D2CA3253E6EFE5
:1007C000327901801479038010790A800C791E80B7
:1007D000087964800479C880007817E4D5E0FDE8E2
:1007E000C0E0E9C0E0303C02D18DD0E0F9D0E0F8C3
:1007F000D8E9D9E52278FF20282879A1E76023E508
:100800002E601F74FF852EF0848539F03029037522
:10081000F005A4F8C5F0600278FFC3E8955B5002CC
:10082000A85B885A22C3E52D94A0E52E9400E55AD2
:100830005003148001046002F55A2275E8902205E5
:100840005CC3E55C9408405330EDF4A8BDA9BE75C7
:100850005C00E9FA79A0E76041EA7006E55D60189E
:10086000800CC3E8955D600EE55D5005600A14805C
:10087000070460FA8002E55DF55DC39563401B7572
:1008800059C0C394044013755980C39404400B7538
:100890005940C39404400375590022E5592410506F
:1008A0000274FFF55922743279A687F0A4C5F0A22C
:1008B000F733F55B22752D00752EF022C2AFC2CA48
:1008C000A8CCA9CDAA3B30CF010AD2CAD2AFC3EA85
:1008D00013FAE913F9E813F8AB3CAC3D883C893DC9
:1008E000C3E89BF8E99C20280A547FF9302C0221A8
:1008F000D98040AD3E8A3EF9EA9D547FFA60067881
:10090000FF79FF8013AE3FAF408B3F8C40A83CA9DE
:100910003DC3E89EF8E99FF9C3E52E13FBE52D13CF
:10092000FAE82AF52DE93BF52E5008752DFF752EB6
:10093000FF804DAA2DAB2EAC2DAD2E7E047F02C3C1
:10094000EB9404400D1E1FC3EB94084005202902C0
:100950001E1FC3ED13FDEC13FCDEF7C3EA9CFAEB9C
:100960009DFBEF6009C3E913F9E813F8DFF7EA2804
:10097000FAEB39FB8A2D8B2E50067BFF8B2D8B2EAD
:10098000C3EB94025002D22C3028047F03801C78E1
:1009900092E6FFC3E537948240110FC3E53794A078
:1009A00040010FC3EF940640027F057E02E52EC48E
:1009B000540FF9E52EC454F0F8E52DC4540F28F86F
:1009C000C3E89EFAE99400FB400AC3EA9401EB9461
:1009D000004001227A01E4FB22AA2DAB2EEBC4FEDB
:1009E000EAC4540F4EFCC3EA9CFAEB9400FBC3E844
:1009F00013C313F8EA28FAEB3400FB8A2D8B2EC3BD
:100A0000EB94024002C22C7802EBC4FE7B00EAC4E5
:100A1000540F4EFAC3EA98FA4005C3940150027A83
:100A2000017892E6FF2230200241268546928547D2
:100A300093D22043E68022C3E49AF8E49BF9C3E80A
:100A400033F8E933F9202C6FE8FAE9FBD3E913FD19
:100A5000E813FC88468947C3EF94036037EF20E032
:100A60000CE82CF8E93DF9ECFAEDFB8013E828F8E6
:100A7000E939F9C3E82401F8E93400F97AFF7BFF8A
:100A8000C3EF9403400E8A488B49884289438C44C3
:100A90008D458057884889498A428B438C448D45CF
:100AA0003028127548F07549FF7544F07545FF759B
:100AB00046F07547FF8034E8FAD3E813FC8846C354
:100AC000EF94036020EF20E007E82CF8ECFA41D720
:100AD000E8282401F87AFFC3EF940340088A488885
:100AE000428C44800688488A428C4430200241EB84
:100AF000753402D22043E680E5255403602DA82DED
:100B0000A92EC3E913F9E813F8302804E92440F9C1
:100B1000C2AF53E67F759100C3E498F594E499F56C
:100B200095759104D22043E680D2AF22D22175413F
:100B300000752000302B03752040614AD221754199
:100B400000752040302B0375200078017901202C9E
:100B500028E52554036002C2217914E52EC31370E1
:100B60000104F8C3941440027814302804781B79E7
:100B70001BC3E833F8C3E933F9202010E541600CCA
:100B8000302803D53404D22261FD51F30541E59BA1
:100B90005440B5200261E730280908C3E8994001B4
:100BA00018617920210A08C3E8994002614A6179F5
:100BB000C22153E67F759100302C11759400759514
:100BC000F0759104D22043E680020B4AE52E7EFFA9
:100BD000C3334009C3334005C3334001FEC3E49E21
:100BE000759400F59561C1C3E53394015002614AE3
:100BF000302102614AD80261FB6179C222C2AF533F
:100C0000E67F7591008548948549957591048542E4
:100C100092854393D22043E680D2AFE5255403600A
:100C2000072029020533801030220D202B0A2021B5
:100C3000071581158102165B2278003021027801A8
:100C4000E53775F007A4F9E5F028F5F0E9A2F0130F
:100C5000A2F113A2F213F537C394785003753778D5
:100C6000C3E53795384009C291C292C29375D57FCA
:100C700091833020028172854492854593D220432E
:100C8000E68022303C0A12068DE52E54F8700122CF
:100C900030370C203B09D573077573051202D72234
:100CA000E573B404041202FE22B403041202992272
:100CB000B402041202B2221202C422A224E54E920D
:100CC000E08550F975FA00F5FBF5FC8550E9855093
:100CD000EA22A224E55492E08556F975FA00F5FB64
:100CE000F5FC8556E98556EA22E55345521216E190
:100CF000F553D22430E0055353FEC22422D223D52B
:100D000058040558C22391E9203829C2AFC295C2C0
:100D10009620230D75D80091BB75D53775D84080C6
:100D20000B75D80091D275D53775D840D294D2AF13
:100D3000759F4522C2AFC294C29520230D75D8007D
:100D400091BB75D56D75D840800B75D80091D27563
:100D5000D56D75D840D296D2AF759F4522D223D596
:100D600058040558C22391E9203829C2AFC295C260
:100D70009620230D75D80091BB75D55B75D8408042
:100D80000B75D80091D275D55B75D840D294D2AF8F
:100D9000759F6522C2AFC294C29520230D75D800FD
:100DA00091BB75D55B75D840800B75D80091D27515
:100DB000D55B75D840D296D2AF759F7522D223D518
:100DC00058040558C22391E9203829C2AFC294C201
:100DD0009520230D75D80091BB75D55B75D84080E3
:100DE0000B75D80091D275D55B75D840D296D2AF2D
:100DF000759F7522C2AFC295C29620230D75D8008B
:100E000091BB75D55B75D840800B75D80091D275B4
:100E1000D55B75D840D294D2AF759F6522D223D5C9
:100E200058040558C22391E9203829C2AFC294C2A0
:100E30009520230D75D80091BB75D56D75D8408070
:100E40000B75D80091D275D56D75D840D296D2AFBA
:100E5000759F4522C2AFC295C29620230D75D8005A
:100E600091BB75D53775D840800B75D80091D27578
:100E7000D53775D840D294D2AF759F4522D223D5AD
:100E800058040558C22391E9203829C2AFC294C240
:100E90009620230D75D80091BB75D56D75D840800F
:100EA0000B75D80091D275D56D75D840D295D2AF5B
:100EB000759F6522C2AFC294C29620230D75D800DB
:100EC00091BB75D53775D840800B75D80091D27518
:100ED000D53775D840D295D2AF759F7522D223D51C
:100EE00058040558C22391E9203829C2AFC294C2E0
:100EF0009620230D75D80091BB75D53775D84080E5
:100F00000B75D80091D275D53775D840D295D2AF30
:100F1000759F7522C2AFC294C29620230D75D8006A
:100F200091BB75D56D75D840800B75D80091D27581
:100F3000D56D75D840D295D2AF759F65227A147B56
:100F40007880127A107B8C800C7A0D7BB480067AC4
:100F50000B7BC88000E55ED5E001227902E4C295F2
:100F6000D5E0FDD292D5E0FDC292D5E0FDD295D577
:100F7000E0FDE920E002D29130E002D293E55ED5B7
:100F8000E0FDE920E002C29130E002C2937496D500
:100F9000E0FDD9C9EAF8D5E0FDD8FBDBB8C295225F
:100FA000C291C292C293C294C295C29675D57F2255
:100FB000788076FF0876FF0876FF0876FF0876FFD0
:100FC0000876FF0876090876FF087601788C7601A6
:100FD0000876FF0876FF0876FF0876FF0876FF0898
:100FE00076030876FF0876FF0876FF0876250876F0
:100FF000D00876280876500876040876FF0876022E
:101000000876FF08767A0876FF08760708760108E2
:1010100076FF0876FF087600087600227888E6C317
:101020009403D23A5002C23AC238E630E102D238D2
:10103000A23892397886E6149000A09378A6F678C4
:1010400086E6F539C394025003753902789CE6753B
:1010500038FFB402037538A0B4030375388278A052
:10106000E6F8600674282409D8FCF563120FA02264
:1010700078A5E6F95403D2827002C282E9540C705A
:1010800000E954307000E954C07000227566807524
:10109000642075696C756A14756EFF756FEC7570F8
:1010A000DD2275660075643F7569D9756A28756EAD
:1010B000FA756FD17570B022741E208315C0D0C030
:1010C000E0740AD5E0FDD0E0D0D02083EBD5E0ED90
:1010D000C322C0D0C0E0740AD5E0FDD0E0D0D0304B
:1010E00083D6D5E0EDD32230371E1202FE120299CC
:1010F0001202B21202C41202D71202FE1202991296
:1011000002B21202C41202D7227561007562007524
:1011100097DE7597AD7581AF43FF8075EF0675A9B2
:1011200000120FA07580FB75F10F75A4047580FB8C
:1011300075D4FF75900075F27E75A57E759000756B
:10114000D57F75A60175E34075E202120FA0E47821
:1011500000F6D8FD120FB01217E27898865E75304F
:1011600001C2AF1207D5120F3D1207CD120F431265
:1011700007CD120F491207CD1170C2AF756100750E
:10118000620078FA79FA308316D9FBD8F775A9137B
:1011900075A71075C10075A700756000021C007569
:1011A000A71075C13075A70075A903756001111CE2
:1011B0007898865E120FA075C80475910475D840A2
:1011C00075D90875F780759E03755380755801753C
:1011D00056007557007554FF7555FF75960275DA00
:1011E0004275DB42759B80759D0075D10C75BCB94D
:1011F00075BB1075E88075B201C23C1207C1753627
:1012000000C2301207D5D23411B8923775E4B3302A
:10121000370375E43BC23BC23CC23DC23E75730519
:101220001208B5758851758E0C7589AA758C007574
:101230008D00758E0C75E68075B80375A82811A20F
:1012400011E7D2AF7522321207D1754A00754B00F3
:10125000C3E52294024002217A1207C52030022100
:101260007AE54C6002217AC2AF120F3D120F3D1297
:101270000F3DD2AF1207D57561007562001207D11C
:10128000E54C6002217AC2AF120F4F120F4F120FBE
:101290004FD2AF1207D57530001208B511E7E4F54B
:1012A00031F5320531E531F4703F0532789AE67850
:1012B00019146012783214600D787D14600878FA81
:1012C000146003753200C3E53298401D120FA0125E
:1012D00007C115327531007899865EC2AF120F4F83
:1012E000D2AF7898865E1207D11207C9E523700243
:1012F000217A303C0312068DC3E54C9401500AC399
:10130000E54A940150160212A31207D1E523700397
:1013100002117A754A00754B000214C7C3E54A945E
:10132000017017C2AF120FA07899865E120F3D7838
:1013300098865ED2AF1207D181B9C3E54A94027094
:1013400017C2AF120FA07899865E120F4378988665
:101350005ED2AF1207D181B9C3E54A94037017C2B8
:10136000AF120FA07899865E120F497898865ED2E8
:10137000AF1207D181B9C3E54A94047017C2AF1206
:101380000FA07899865E120F4F7898865ED2AF12C2
:1013900007D181B9C3E54A94057017C2AF120FA0F7
:1013A0007899865E120F4F7898865ED2AF1207D179
:1013B00081B9C3E54A94077019C3E54B94065002FE
:1013C00041F27401303A0274037888F6C238C239A7
:1013D00081B9C3E54A94087019C3E54B94065002DD
:1013E00041F27402303A0274047888F6D238D23965
:1013F00081B9C3E54A94097017C3E54B94065002BE
:1014000041F2303A0BC37888E69402F6C23A81B9C9
:10141000C3E54A940A7016C3E54B9406500241F2A4
:10142000203A0A7888E62402F6D23A81B9C3E54A1E
:1014300094147025C3E54B9406500241F2C2AF905C
:101440001A0B740093D2AF7888F613C238C23940B1
:1014500002D2384002D2398060C3E54A9415704008
:10146000C3E54B94064058C2AFC083C082901A0BAC
:10147000740093D082D083D2AFF8B801027402B85E
:1014800002027401B803027404B804027403788879
:10149000F613C238C2394002D2384002D23980191C
:1014A000C3E54A940C70127561A57562F1C3E54BF2
:1014B0009406400B12182BD2AF754A00754B00757D
:1014C000610075620041F2120FA0755C0075240086
:1014D000752500753700755C081207C112083B308E
:1014E000EDFDA8BDA9BEE97001F8885D12083F7541
:1014F0005C08C2AF1208A6855B59855B5AD2AF3033
:101500003A07C238303502D238D228753300303C21
:101510000312068D120E7D120EDD1208B51208BCE4
:10152000120A26120A371208B51208BC120A26122D
:101530000A371208B5120B3C120C39120CFD1208B6
:10154000BC120A26120A37120B2C202C031207F5A4
:10155000302C03120825120C39120D5D1208BC1232
:101560000A26120A37120B3C120C39120DBD120852
:10157000BC120A26120A37120B2C120C39120E1D3D
:101580001208BC120A26120A37120B3C120C39122E
:101590000E7D1208BC120A26120A3712083B120BE3
:1015A0002C120C39120EDD12083F1208BC120A264A
:1015B000120A37302827855B5979187A0CC3E5332E
:1015C00099400EC228D2298A35855B59855B5A809D
:1015D0000CC3E54C94014003021535C16330291F4B
:1015E000202B1CE535147006C229D22AA135F53509
:1015F000203A07C3E54C9401400302153580647519
:101600003600203A0F78FA79A4E760027803C3E540
:101610004D98504FE523604B303A17203805203560
:1016200007800F303502800A202B07D22B855B59AB
:10163000A17778F0302B05855B597820C3E52E988B
:101640005003021535302B1BC22BC238303502D265
:1016500038D229753512855B59A1350536E54C60C0
:1016600002C166753600C2AF120FA0752500D2AF59
:101670001207D1120FA075240078A4E66006D29458
:10168000D295D296C3E53694044002217A419983DB
:1016900022010203040D090508040D090C08040DBC
:1016A0008322010203040506070839312921191193
:1016B0000910083931292119111810083931292147
:1016C000192018100839312921282018100839311B
:1016D00029302820181008393138302820181008EF
:1016E0003983220102030405060708090A0B0C0DC1
:1016F0000E0F10F1E1D1C1B1A19181716151413160
:1017000021112010F1E1D1C1B1A19181716151414B
:101710003121302010F1E1D1C1B1A191817161512C
:10172000413140302010F1E1D1C1B1A1918171610D
:1017300051415040302010F1E1D1C1B1A1918171EE
:101740006151605040302010F1E1D1C1B1A19181CF
:10175000716170605040302010F1E1D1C1B1A191B0
:1017600081718070605040302010F1E1D1C1B1A191
:101770009181908070605040302010F1E1D1C1B172
:10178000A191A0908070605040302010F1E1D1C153
:10179000B1A1B0A0908070605040302010F1E1D134
:1017A000C1B1C0B0A0908070605040302010F1E115
:1017B000D1C1D0C0B0A0908070605040302010F1F6
:1017C000E1D1E0D0C0B0A0908070605040302010D7
:1017D000F1E1F0E0D0C0B0A09080706050403020C7
:1017E00010F1901A0D7820121864E520B4550BA35F
:1017F000121864E520B4AA0280137561A57562F120
:10180000120FB0112B756100756200801D901A03D4
:1018100078807B0A1164A308DBFA901A0F788C7B1E
:101820001A1164A308DBFA901A2922C2AF11A7117A
:1018300084901A0074101169A3744E1169A3742165
:101840001169901A0378807B0A1168A308DBFA906B
:101850001A0F788C7B1A1168A308DBFA11BA119859
:10186000901A2922E493F622E6438F01538FFDFF5D
:10187000C3E583941C400122EF8561B78562B7F010
:10188000538FFE22438F02438F018561B78562B774
:10189000901A0DF0538FFC22901A0D745511699017
:1018A0001A0E74AA1169227A3079D07820901A40E1
:1018B0001164E520F709A3DAF7227A3079D0901A7B
:1018C00040E7116909A3DAF9227C051207D5DCFB90
:1018D00022C2AF120F3D120F43120F49120F4F12C7
:1018E00007C9120F3D120F43120F49120F4F120773
:1018F000C9120F3D120F43120F49120F4FD2AF22E0
:10190000C2AF120F4F120F49120F43120F3D1207B1
:10191000C9120F4F120F49120F43120F3D1207C980
:0F192000120F4F120F49120F43120F3DD2AF2279
:1019FD00021109104E21FFFFFFFFFFFF09FF01FF3D
:101A0D0055AA01FFFFFFFFFF03FFFFFF25D0285061
:0D1A1D0004FF02FF7AFF0701FFFF0000FF3A
:101A4000234D5F485F323523202020202020202096
:101A500023424C48454C492445464D3842323123B7
:101A60002020202020202020202020202020202076
:101C0000C2AFC2D37597DE7597AD7581C075A90057
:101C100043FF80752438752503B1DB7529A5752A26
:101C2000F143F10853A4F7D28375D4FF75E3407DE7
:101C3000FA780379E67C10752200752300901DE880
:101C40007B0675249875250130830281482083081E
:101C5000D8FBD9F9DCF781BA308308D8FBD9F9DC95
:101C6000F781BAB19BE493A3C39A6004DDC381BA40
:101C7000DBDBB18D600281317B08E493FAA3B16EA6
:101C8000DBF87A30B16E752200752300B18DEAFC65
:101C9000EBFDC3ED94FE400EB18D8A278B28ED300D
:101CA000E0048A828B83B18D7AC270D8C3ED94FE32
:101CB000601950CEBD0029EC600F7520007521FF22
:101CC000752900752A000200008100A827A92808AC
:101CD00009D804D90281DDB191EAF281D10D81A642
:101CE000C3ED94035051EDA2E092007AC5C3E582A2
:101CF0009400E583941C508C200010438F02438F86
:101D0000018529B7852AB7F0300027A827A9280818
:101D100009438F01538FFDD804D902A132C3E58353
:101D2000941C4003A3A117E28529B7852AB7F0A325
:101D3000A117538FFC81827AC1BD030CE493A3FAEF
:101D4000B152DCF8B14A81828184AA22AB23B16E00
:101D5000EBFAEA6222752608C3E52313F523E52290
:101D600013F52250066323A0632201D526EAB1DBD6
:101D7000B1DB75260AEAF4200102D283300102C2E7
:101D800083B1DBC3134002C201D526EB22B191EA35
:101D9000FB208302A191308302A196752608AE2410
:101DA000AF25C3EF13FFEE13FEB1DFB1DBC3EA13C0
:101DB0003083024480FA30E703632201C3E5231332
:101DC000F523E52213F52250066323A0632201D5F3
:101DD00026D9E52265236523F52222AE24AF250E00
:101DE0000FDEFEDFFCD20122424C48656C693437BD
:061DF0003164E8B20601B7
:00000001FF
