:020000040000FA
:060000000219FD02078F4A
:03000B000203BE2F
:030013000207AB36
:03001B000205FBE0
:03002B0002045874
:03005B000207BDDC
:0300730002048DF7
:1000A000080C10182030406080A0C0E0F0C2AFC043
:1000B000829000B57301D501E601FA210E211F21BE
:1000C000332144215B216F2186219421A821B9216C
:1000D000D321E421FBD082D2AFA6F008A67008A6F7
:1000E0006E08856EF022D082D2AFA6F008A66E0808
:1000F000A66F08A66E08856EF022D082D2AFE56F9B
:10010000B5F002E570F608A67008856EF022D08280
:10011000D2AFA6F008A66E08A67008856EF022D0B1
:1001200082D2AFA6F008A66F08A66E08A66E088554
:100130006EF022D082D2AFA6F008A66F08A66F0894
:10014000856EF022D082D2AFE56FB5F002E570F691
:1001500008A66E08A66F08856EF022D082D2AFA6E0
:10016000F008A66E08A66E08A66F08856EF022D06D
:1001700082D2AFE56FB5F002E570F608A66F08A66B
:100180006E08856EF022D082D2AFA6F008A6700865
:10019000856FF022D082D2AFE56FB5F002E570F640
:1001A00008A66F08856FF022D082D2AFA6F008A60D
:1001B0006E08A66F08856FF022D082D2AFE56FB5CA
:1001C000F002E570F608A66E08A66E08A66E088511
:1001D0006EF022D082D2AFA6F008A66F08A66E08F5
:1001E000856FF022D082D2AFE56FB5F002E570F6F0
:1001F00008A66E08A66E08856FF022D082D2AFA640
:10020000F008A66E08A66E08A66E08856FF022E5B7
:100210002CA25F33F52B752C0F8075E52CA25F3374
:10022000A25E33F52B752C0D8066E52CA25F33A200
:100230005E33A25D33F52B752C0B8054E52B54F007
:10024000C264452CC4F52B752C098044E52BA260B3
:1002500013A26113A26213F52B752C078032E52BD4
:10026000A26013A26113F52B752C058023E52BA248
:100270006013F52B752C03801720679320669C2054
:1002800065A82064B72063C42062D32061DFE52B1A
:10029000C4652B652CF4F57122C23E78E9303D022D
:1002A00078D1856EF0E57123541E11AD85F071880B
:1002B00072228571F0A872E52B23541E11AD85F0D2
:1002C000718872228571F0A872E52BC423541E1127
:1002D000AD85F0718872228571F0A872E52C2354E7
:1002E0001E11ADA6F008E878E8303D0278D0F6C2DD
:1002F000AF203B05B23DD2AF22D23ED2AF22E52E97
:10030000B4F00DE52D7009752BFF752CFF51792286
:10031000E52DA27013F52BA27113252BF52BE52EDD
:1003200003C2E7F52C03C2E7352CF52C517922C224
:1003300085C0D0C0E0740FD5E0FDD0E0D0D0D2852C
:10034000C0D0C0E07405D5E0FDD0E0D0D022C28599
:10035000C0D0C0E07405D5E0FDD0E0D0D0D285C0DB
:10036000D0C0E0740FD5E0FDD0E0D0D022C0D0C026
:10037000E0C0F0C2A8C28CD28575A420C0D0C0E075
:100380007402D5E0FDD0E0D0D075F00830E70471FC
:100390002F8002714E23D5F0F375A400D285C0D012
:1003A000C0E07405D5E0FDD0E0D0D0D28C758A00D5
:1003B000758C00C289D2A8D0F0D0E0D0D022203BEA
:1003C0000132C0D0C0E075D01118E8B56D3320857A
:1003D0000BD285856E8A08D0E0D0D03275A400D2C9
:1003E00085C23B758E0C7589AAC2A9C289C28B755C
:1003F0008A00758C00758200D2A8D2AAD0E0D0D035
:1004000032B285868AD0E0D0D032C28D203B012224
:10041000C0D0C0E075D01118E8B56D3320850BD27F
:1004200085856E8A08D0E0D0D02275A400D285C21E
:100430003B758E0C7589AAC2A9C289C28B758A00C8
:10044000758C00758200D2A8D2AAD0E0D0D022B29A
:1004500085868AD0E0D0D022C0D0C0E0C2CF053B94
:10046000E5606009E55F6005755F00801B755F01F1
:10047000E52360021523C3E54C6005754D00800837
:10048000054DE54D7002154DD0E0D0D032C2AF53CE
:10049000E67F7592FA7593FFC22053917FD2AF32F7
:1004A000758200752800752900752A00780075F09E
:1004B00000E0C0E0C395F0D0F0C395644002D24B99
:1004C0000582E0C0E0C395F0D0F0C395644002D24D
:1004D0004A0582E0C0E0C395F0D0F0C395644002C5
:1004E000D2490582E0C0E0C395F0D0F0C3956440E6
:1004F00002D2480582E0C0E0C395F0D0F0C3956415
:100500004002D2470582E0C0E0C395F0D0F0C39529
:10051000644002D2460582E0C0E0C395F0D0F0C34B
:1005200095644002D2450582E0C0E0C395F0D0F06A
:10053000C395644002D2440582E0C0E0C395F0D088
:10054000F0C395644002D2430582E0C0E0C395F059
:10055000D0F0C395644002D2420582E0C0E0C3956A
:10056000F0D0F0C395644002D2410582E0C0E0C300
:1005700095F0D0F0C395644002D2400582E0C0E01F
:10058000C395F0D0F0C395644002D2530582E0C019
:10059000E0C395F0D0F0C395644002D2520582E0EA
:1005A000C0E0C395F0D0F0C395644002D2510582FB
:1005B000E0C0E0C395F0D0F0C395644002D250058E
:1005C00082E528C465286529303701F4652A540F6F
:1005D00022900000D2A8D2AA0522E522700215229C
:1005E000C3E5229432400A754C00D0F0D0E0D0D060
:1005F0003275230AD0F0D0E0D0D032C2AFC2A8C248
:100600008EC0D0C0E0C0F075D010C2CAA8CCA9CDB1
:10061000D2CAD2AF758A00C3E89567F8E99568F940
:10062000E970AEE8956940A9956A50A5E582B410D5
:10063000A091A0709C85286B85296CD23C20370E38
:10064000900000D2A8D2AAD0F0D0E0D0D032303E74
:1006500004B23DC23E756DD0303D03756DE878D073
:10066000303D0278E8E6C28D758A55758E09758928
:10067000A2D23BD2A9D28575A42075D011F8D0F0B2
:10068000D0E0D0D0320483223C78B4F0F0C23CC237
:10069000AFA96BE56BC39460FAE56CD2AF9400FB35
:1006A00050177B007A00E96010C313500CB54A0460
:1006B000054B8005F54A754B00303A27C3EA94D0C4
:1006C000F8EB9407F9400BE8FAE9FB203509D2353D
:1006D000C1D7303502C235203902B235C3EA33FA08
:1006E000EB33FBEB2B3B3BF9C3EB13FBEA13FAEACF
:1006F00029FAEB3400FB30E3047AFF7BFFE5255455
:1007000003601D202A1AE55B33F9EB7007C3E99AF1
:100710004002E9FAE5365403D1852AFAEB3400FBAE
:10072000C3EA33C4540FF8EB33C454F048F87005EF
:10073000EA60027801E52260021522D230884CE599
:100740004C6003754D00AC59C3E559955A4002AC55
:100750005AC3EC954C5008EC75F008A4FAABF08A3B
:100760005253520F8BF07900EAA2F013A2F113A2B8
:10077000F213F4F8C3E89432FAE99400FB50047AD7
:10078000007B00884E894F8A508B5175230A22C006
:10079000E0E58AF0058285668BD0E032C289C0E050
:1007A000E58AF0058285668BD0E022C2AA85668B39
:1007B000D28EC2CA85CC6785CD68D2CA3253E6EFE5
:1007C000327901801479038010790A800C791E80B7
:1007D000087964800479C880007817E4D5E0FDE8E2
:1007E000C0E0E9C0E0303C02D18DD0E0F9D0E0F8C3
:1007F000D8E9D9E52278FF20282879A1E76023E508
:100800002E601F74FF852EF0848539F03029037522
:10081000F005A4F8C5F0600278FFC3E8955B5002CC
:10082000A85B885A22C3E52D94A0E52E9400E55AD2
:100830005003148001046002F55A2275E8902205E5
:100840005CC3E55C9408405330EDF4A8BDA9BE75C7
:100850005C00E9FA79A0E76041EA7006E55D60189E
:10086000800CC3E8955D600EE55D5005600A14805C
:10087000070460FA8002E55DF55DC39563401B7572
:1008800059C0C394044013755980C39404400B7538
:100890005940C39404400375590022E5592410506F
:1008A0000274FFF55922743279A687F0A4C5F0A22C
:1008B000F733F55B22752D00752EF022C2AFC2CA48
:1008C000A8CCA9CDAA3B30CF010AD2CAD2AFC3EA85
:1008D00013FAE913F9E813F8AB3CAC3D883C893DC9
:1008E000C3E89BF8E99C20280A547FF9302C0221A8
:1008F000D98040AD3E8A3EF9EA9D547FFA60067881
:10090000FF79FF8013AE3FAF408B3F8C40A83CA9DE
:100910003DC3E89EF8E99FF9C3E52E13FBE52D13CF
:10092000FAE82AF52DE93BF52E5008752DFF752EB6
:10093000FF804DAA2DAB2EAC2DAD2E7E047F02C3C1
:10094000EB9404400D1E1FC3EB94084005202902C0
:100950001E1FC3ED13FDEC13FCDEF7C3EA9CFAEB9C
:100960009DFBEF6009C3E913F9E813F8DFF7EA2804
:10097000FAEB39FB8A2D8B2E50067BFF8B2D8B2EAD
:10098000C3EB94025002D22C3028047F03801C78E1
:1009900092E6FFC3E537948240110FC3E53794A078
:1009A00040010FC3EF940640027F057E02E52EC48E
:1009B000540FF9E52EC454F0F8E52DC4540F28F86F
:1009C000C3E89EFAE99400FB400AC3EA9401EB9461
:1009D000004001227A01E4FB22AA2DAB2EEBC4FEDB
:1009E000EAC4540F4EFCC3EA9CFAEB9400FBC3E844
:1009F00013C313F8EA28FAEB3400FB8A2D8B2EC3BD
:100A0000EB94024002C22C7802EBC4FE7B00EAC4E5
:100A1000540F4EFAC3EA98FA4005C3940150027A83
:100A2000017892E6FF2230200241268546928547D2
:100A300093D22043E68022C3E49AF8E49BF9C3E80A
:100A400033F8E933F9202C6FE8FAE9FBD3E913FD19
:100A5000E813FC88468947C3EF94036037EF20E032
:100A60000CE82CF8E93DF9ECFAEDFB8013E828F8E6
:100A7000E939F9C3E82401F8E93400F97AFF7BFF8A
:100A8000C3EF9403400E8A488B49884289438C44C3
:100A90008D458057884889498A428B438C448D45CF
:100AA0003028127548F07549FF7544F07545FF759B
:100AB00046F07547FF8034E8FAD3E813FC8846C354
:100AC000EF94036020EF20E007E82CF8ECFA41D720
:100AD000E8282401F87AFFC3EF940340088A488885
:100AE000428C44800688488A428C4430200241EB84
:100AF000753402D22043E680E5255403602DA82DED
:100B0000A92EC3E913F9E813F8302804E92440F9C1
:100B1000C2AF53E67F759100C3E498F594E499F56C
:100B200095759104D22043E680D2AF22D22175413F
:100B300000752000302B03752040614AD221754199
:100B400000752040302B0375200078017901202C9E
:100B500028E52554036002C2217914E52EC31370E1
:100B60000104F8C3941440027814302804781B79E7
:100B70001BC3E833F8C3E933F9202010E541600CCA
:100B8000302803D53404D22261FE51F30541E59BA0
:100B9000F45440B5200261E830280908C3E89940C0
:100BA0000118617920210A08C3E8994002614A616D
:100BB00079C22153E67F759100302C117594007530
:100BC00095F0759104D22043E680020B4AE52E7E13
:100BD000FFC3334009C3334005C3334001FEC3E4C0
:100BE0009E759400F59561C2C3E53394015002618E
:100BF0004A302102614AD80261FC6179C222C2AF47
:100C000053E67F75910085489485499575910485D3
:100C10004292854393D22043E680D2AFE525540328
:100C200060072029020533801030220D202B0A2076
:100C3000210715811581021658227800302102788B
:100C400001E53775F007A4F9E5F028F5F0E9A2F021
:100C500013A2F113A2F213F537C39478500375373A
:100C600078C3E53795384009C290C292C29475D5D1
:100C70003F91843020028173854492854593D22030
:100C800043E68022303C0A12068DE52E54F87001AE
:100C90002230370C203B09D573077573051202D734
:100CA00022E573B404041202FE22B4030412029972
:100CB00022B402041202B2221202C422A224E54E7D
:100CC00092E08550F975FA00F5FBF5FC8550E98551
:100CD00050EA22A224E55492E08556F975FA00F50F
:100CE000FBF5FC8556E98556EA22E5534552121676
:100CF000DEF553D22430E0055353FEC22422D22322
:100D0000D558040558C22391EA203829C2AFD2939E
:100D1000D29520230D75D80091BC75D50F75D8409C
:100D2000800B75D80091D375D50F75D840C291D27C
:100D3000AF759F0322C2AFD291D29320230D75D8F5
:100D40000091BC75D53C75D840800B75D80091D307
:100D500075D53C75D840C295D2AF759F0322D2237A
:100D6000D558040558C22391EA203829C2AFD2933E
:100D7000D29520230D75D80091BC75D53375D84018
:100D8000800B75D80091D375D53375D840C291D2F8
:100D9000AF759F1322C2AFD291D29320230D75D885
:100DA0000091BC75D53375D840800B75D80091D3B0
:100DB00075D53375D840C295D2AF759F2322D22303
:100DC000D558040558C22391EA203829C2AFD291E0
:100DD000D29320230D75D80091BC75D53375D840BA
:100DE000800B75D80091D375D53375D840C295D294
:100DF000AF759F2322C2AFD293D29520230D75D811
:100E00000091BC75D53375D840800B75D80091D34F
:100E100075D53375D840C291D2AF759F1322D223B6
:100E2000D558040558C22391EA203829C2AFD2917F
:100E3000D29320230D75D80091BC75D53C75D84050
:100E4000800B75D80091D375D53C75D840C295D22A
:100E5000AF759F0322C2AFD293D29520230D75D8D0
:100E60000091BC75D50F75D840800B75D80091D313
:100E700075D50F75D840C291D2AF759F0322D2238A
:100E8000D558040558C22391EA203829C2AFD2911F
:100E9000D29520230D75D80091BC75D53C75D840EE
:100EA000800B75D80091D375D53C75D840C293D2CC
:100EB000AF759F1322C2AFD291D29520230D75D862
:100EC0000091BC75D50F75D840800B75D80091D3B3
:100ED00075D50F75D840C293D2AF759F2322D22308
:100EE000D558040558C22391EA203829C2AFD291BF
:100EF000D29520230D75D80091BC75D50F75D840BB
:100F0000800B75D80091D375D50F75D840C293D298
:100F1000AF759F2322C2AFD291D29520230D75D8F1
:100F20000091BC75D53C75D840800B75D80091D325
:100F300075D53C75D840C293D2AF759F13227A14F1
:100F40007B7880127A107B8C800C7A0D7BB48006C3
:100F50007A0B7BC88000E55ED5E001227902E4D2FD
:100F600093D5E0FDD292D5E0FDC292D5E0FDC293CB
:100F7000D5E0FDE920E002D29030E002D294E55EB7
:100F8000D5E0FDE920E002C29030E002C294749600
:100F9000D5E0FDD9C9EAF8D5E0FDD8FBDBB8D2939E
:100FA00022C290C292C294D291D293D29575D53F6B
:100FB00022788076FF0876FF0876FF0876FF0876AD
:100FC000FF0876FF0876090876FF087601788C76A8
:100FD000010876FF0876FF0876FF0876FF0876FF9F
:100FE0000876030876FF0876FF0876FF087625085E
:100FF00076D00876280876500876040876FF0876BA
:10100000020876FF08767A0876FF087607087601E8
:101010000876FF0876FF087600087600227888E6D2
:10102000C39403D23A5002C23AC238E630E102D247
:1010300038A23892397886E6149000A09378A6F604
:101040007886E6F539C394025003753902789CE638
:101050007538FFB402037538A0B40303753882787D
:10106000A0E6F8600674282409D8FCF563120FA1E5
:101070002278A5E6F954037000E9540C7000E95495
:10108000307000E954C07000227566807564207568
:10109000696C756A14756EFF756FEC7570DD22757D
:1010A000660075643F7569D9756A28756EFA756F43
:1010B000D17570B022741E208515C0D0C0E0740AAE
:1010C000D5E0FDD0E0D0D02085EBD5E0EDC322C047
:1010D000D0C0E0740AD5E0FDD0E0D0D03085D6D5C0
:1010E000E0EDD32230371E1202FE1202991202B234
:1010F0001202C41202D71202FE1202991202B21296
:1011000002C41202D7227561007562007597DE7500
:1011100097AD7581AF43FF8075EF0675A900120F7B
:10112000A17580FF75F1F075A4007580FF75D4FF7F
:1011300075902A75F23F75A53F75902A75D53F7554
:10114000A60175E34075E202120FA1E47800F6D81B
:10115000FD120FB11217DF7898865E753001C2AFAD
:101160001207D5120F3E1207CD120F441207CD12EF
:101170000F4A1207CD1171C2AF7561007562007818
:10118000FA79FA308516D9FBD8F775A91375A71027
:1011900075C10075A700756000021C0075A7107569
:1011A000C13075A70075A903756001111D78988677
:1011B0005E120FA175C80475910475D84075D908E1
:1011C00075F780759E0375538075580175560075C7
:1011D00057007554FF7555FF75960075DA4275DB3B
:1011E00042759B80759D0075D10C75BCB975BB109F
:1011F00075E88075B201C23C1207C1753600C23075
:101200001207D5D23411B5923775E4D5303703754E
:10121000E45DC23BC23CC23DC23E7573051208B5D7
:10122000758851758E0C7589AA758C00758D007541
:101230008E0C75E68075B80375A828119F11E4D24D
:10124000AF7522321207D1754A00754B00C3E522F3
:101250009402400221771207C52030022177E54C25
:1012600060022177C2AF120F3E120F3E120F3ED224
:10127000AF1207D57561007562001207D1E54C60A9
:10128000022177C2AF120F50120F50120F50D2AF7F
:101290001207D57530001208B511E4E4F531F532C6
:1012A0000531E531F4703F0532789AE6781914601B
:1012B00012783214600D787D14600878FA14600397
:1012C000753200C3E53298401D120FA11207C115F7
:1012D000327531007899865EC2AF120F50D2AF7866
:1012E00098865E1207D11207C9E523700221773074
:1012F0003C0312068DC3E54C9401500AC3E54A94A1
:101300000150160212A01207D1E5237003021177D3
:10131000754A00754B000214C4C3E54A9401701766
:10132000C2AF120FA17899865E120F3E7898865E42
:10133000D2AF1207D181B6C3E54A94027017C2AF8B
:10134000120FA17899865E120F447898865ED2AF0C
:101350001207D181B6C3E54A94037017C2AF120FCA
:10136000A17899865E120F4A7898865ED2AF1207EE
:10137000D181B6C3E54A94047017C2AF120FA178A9
:1013800099865E120F507898865ED2AF1207D1818F
:10139000B6C3E54A94057017C2AF120FA1789986BB
:1013A0005E120F507898865ED2AF1207D181B6C315
:1013B000E54A94077019C3E54B9406500241EF7457
:1013C00001303A0274037888F6C238C23981B6C354
:1013D000E54A94087019C3E54B9406500241EF7436
:1013E00002303A0274047888F6D238D23981B6C312
:1013F000E54A94097017C3E54B9406500241EF305B
:101400003A0BC37888E69402F6C23A81B6C3E54A3D
:10141000940A7016C3E54B9406500241EF203A0A35
:101420007888E62402F6D23A81B6C3E54A9414706D
:1014300025C3E54B9406500241EFC2AF901A0B74DE
:101440000093D2AF7888F613C238C2394002D2383E
:101450004002D2398060C3E54A94157040C3E54B21
:1014600094064058C2AFC083C082901A0B74009398
:10147000D082D083D2AFF8B801027402B8020274ED
:1014800001B803027404B8040274037888F613C226
:1014900038C2394002D2384002D2398019C3E54AF5
:1014A000940C70127561A57562F1C3E54B9406400A
:1014B0000B121828D2AF754A00754B007561007584
:1014C000620041EF120FA1755C00752400752500C4
:1014D000753700755C081207C112083B30EDFDA896
:1014E000BDA9BEE97001F8885D12083F755C08C2AD
:1014F000AF1208A6855B59855B5AD2AF303A07C256
:1015000038303502D238D228753300303C03120609
:101510008D120E7E120EDE1208B51208BC120A26BB
:10152000120A371208B51208BC120A26120A37121C
:1015300008B5120B3C120C3A120CFE1208BC120A2F
:1015400026120A37120B2C202C031207F5302C031D
:10155000120825120C3A120D5E1208BC120A26124D
:101560000A37120B3C120C3A120DBE1208BC120ABA
:1015700026120A37120B2C120C3A120E1E1208BC3D
:10158000120A26120A37120B3C120C3A120E7E1265
:1015900008BC120A26120A3712083B120B2C120C36
:1015A0003A120EDE12083F1208BC120A26120A373F
:1015B000302827855B5979187A0CC3E53399400E9A
:1015C000C228D2298A35855B59855B5A800CC3E5D0
:1015D0004C94014003021532C16030291F202B1C9E
:1015E000E535147006C229D22AA132F535203A0712
:1015F000C3E54C9401400302153280647536002027
:101600003A0F78FA79A4E760027803C3E54D985061
:101610004FE523604B303A17203805203507800FFF
:10162000303502800A202B07D22B855B59A17478B4
:10163000F0302B05855B597820C3E52E98500302C6
:101640001532302B1BC22BC238303502D238D2298A
:10165000753512855B59A1320536E54C6002C163D0
:10166000753600C2AF120FA1752500D2AF1207D197
:10167000120FA175240078A4E66006C291C293C23D
:1016800095C3E536940440022177419683220102F6
:1016900003040D090508040D090C08040D8322013B
:1016A0000203040506070839312921191109100818
:1016B0003931292119111810083931292119201817
:1016C00010083931292128201810083931293028EB
:1016D0002018100839313830282018100839832292
:1016E0000102030405060708090A0B0C0D0E0F1072
:1016F000F1E1D1C1B1A1918171615141312111203B
:1017000010F1E1D1C1B1A19181716151413121301B
:101710002010F1E1D1C1B1A19181716151413140FC
:10172000302010F1E1D1C1B1A191817161514150DD
:1017300040302010F1E1D1C1B1A1918171615160BE
:101740005040302010F1E1D1C1B1A191817161709F
:10175000605040302010F1E1D1C1B1A19181718080
:1017600070605040302010F1E1D1C1B1A191819061
:101770008070605040302010F1E1D1C1B1A191A042
:10178000908070605040302010F1E1D1C1B1A1B023
:10179000A0908070605040302010F1E1D1C1B1C004
:1017A000B0A0908070605040302010F1E1D1C1D0E5
:1017B000C0B0A0908070605040302010F1E1D1E0C6
:1017C000D0C0B0A0908070605040302010F1E1F0A7
:1017D000E0D0C0B0A0908070605040302010F190F8
:1017E0001A0D7820121861E520B4550BA312186168
:1017F000E520B4AA0280137561A57562F1120FB1DC
:101800001128756100756200801D901A0378807B35
:101810000A1161A308DBFA901A0F788C7B1A116108
:10182000A308DBFA901A2922C2AF11A41181901AE1
:101830000074101166A3744E1166A3742111669092
:101840001A0378807B0A1165A308DBFA901A0F78D7
:101850008C7B1A1165A308DBFA11B71195901A2930
:1018600022E493F622E6438F01538FFDFFC3E58305
:10187000941C400122EF8561B78562B7F0538FFE5B
:1018800022438F02438F018561B78562B7901A0D9D
:10189000F0538FFC22901A0D74551166901A0E7435
:1018A000AA1166227A3079D07820901A401161E529
:1018B00020F709A3DAF7227A3079D0901A40E7119D
:1018C0006609A3DAF9227C051207D5DCFB22C2AF38
:1018D000120F3E120F44120F4A120F501207C91274
:1018E0000F3E120F44120F4A120F501207C9120F67
:1018F0003E120F44120F4A120F50D2AF22C2AF1243
:101900000F50120F4A120F44120F3E1207C9120F46
:1019100050120F4A120F44120F3E1207C9120F50F5
:0C192000120F4A120F44120F3ED2AF22E9
:1019FD00021106104E21FFFFFFFFFFFF09FF01FF40
:101A0D0055AA01FFFFFFFFFF03FFFFFF25D0285061
:0D1A1D0004FF02FF7AFF0701FFFF0000FF3A
:101A4000234F5F485F353023202020202020202096
:101A500023424C48454C492445464D3842323123B7
:101A60002020202020202020202020202020202076
:101C0000C2AFC2D37597DE7597AD7581C075A90057
:101C100043FF80752438752503B1DB7529A5752A26
:101C2000F143F12053A4DFD28575D4FF75E3407DE5
:101C3000FA780379E67C10752200752300901DE880
:101C40007B0675249875250130850281482085081A
:101C5000D8FBD9F9DCF781BA308508D8FBD9F9DC93
:101C6000F781BAB19BE493A3C39A6004DDC381BA40
:101C7000DBDBB18D600281317B08E493FAA3B16EA6
:101C8000DBF87A30B16E752200752300B18DEAFC65
:101C9000EBFDC3ED94FE400EB18D8A278B28ED300D
:101CA000E0048A828B83B18D7AC270D8C3ED94FE32
:101CB000601950CEBD0029EC600F7520007521FF22
:101CC000752900752A000200008100A827A92808AC
:101CD00009D804D90281DDB191EAF281D10D81A642
:101CE000C3ED94035051EDA2E092007AC5C3E582A2
:101CF0009400E583941C508C200010438F02438F86
:101D0000018529B7852AB7F0300027A827A9280818
:101D100009438F01538FFDD804D902A132C3E58353
:101D2000941C4003A3A117E28529B7852AB7F0A325
:101D3000A117538FFC81827AC1BD030CE493A3FAEF
:101D4000B152DCF8B14A81828184AA22AB23B16E00
:101D5000EBFAEA6222752608C3E52313F523E52290
:101D600013F52250066323A0632201D526EAB1DBD6
:101D7000B1DB75260AEAF4200102D285300102C2E5
:101D800085B1DBC3134002C201D526EB22B191EA33
:101D9000FB208502A191308502A196752608AE240C
:101DA000AF25C3EF13FFEE13FEB1DFB1DBC3EA13C0
:101DB0003085024480FA30E703632201C3E5231330
:101DC000F523E52213F52250066323A0632201D5F3
:101DD00026D9E52265236523F52222AE24AF250E00
:101DE0000FDEFEDFFCD20122424C48656C693437BD
:061DF0003164E8B20601B7
:00000001FF
