:020000040000FA
:060000000219FD02078F4A
:03000B000203BE2F
:030013000207AB36
:03001B000205FBE0
:03002B0002045874
:03005B000207BDDC
:0300730002048DF7
:1000A000080C10182030406080A0C0E0F0C2AFC043
:1000B000829000B57301D501E601FA210E211F21BE
:1000C000332144215B216F2186219421A821B9216C
:1000D000D321E421FBD082D2AFA6F008A67008A6F7
:1000E0006E08856EF022D082D2AFA6F008A66E0808
:1000F000A66F08A66E08856EF022D082D2AFE56F9B
:10010000B5F002E570F608A67008856EF022D08280
:10011000D2AFA6F008A66E08A67008856EF022D0B1
:1001200082D2AFA6F008A66F08A66E08A66E088554
:100130006EF022D082D2AFA6F008A66F08A66F0894
:10014000856EF022D082D2AFE56FB5F002E570F691
:1001500008A66E08A66F08856EF022D082D2AFA6E0
:10016000F008A66E08A66E08A66F08856EF022D06D
:1001700082D2AFE56FB5F002E570F608A66F08A66B
:100180006E08856EF022D082D2AFA6F008A6700865
:10019000856FF022D082D2AFE56FB5F002E570F640
:1001A00008A66F08856FF022D082D2AFA6F008A60D
:1001B0006E08A66F08856FF022D082D2AFE56FB5CA
:1001C000F002E570F608A66E08A66E08A66E088511
:1001D0006EF022D082D2AFA6F008A66F08A66E08F5
:1001E000856FF022D082D2AFE56FB5F002E570F6F0
:1001F00008A66E08A66E08856FF022D082D2AFA640
:10020000F008A66E08A66E08A66E08856FF022E5B7
:100210002CA25F33F52B752C0F8075E52CA25F3374
:10022000A25E33F52B752C0D8066E52CA25F33A200
:100230005E33A25D33F52B752C0B8054E52B54F007
:10024000C264452CC4F52B752C098044E52BA260B3
:1002500013A26113A26213F52B752C078032E52BD4
:10026000A26013A26113F52B752C058023E52BA248
:100270006013F52B752C03801720679320669C2054
:1002800065A82064B72063C42062D32061DFE52B1A
:10029000C4652B652CF4F57122C23E78E9303D022D
:1002A00078D1856EF0E57123541E11AD85F071880B
:1002B00072228571F0A872E52B23541E11AD85F0D2
:1002C000718872228571F0A872E52BC423541E1127
:1002D000AD85F0718872228571F0A872E52C2354E7
:1002E0001E11ADA6F008E878E8303D0278D0F6C2DD
:1002F000AF203B05B23DD2AF22D23ED2AF22E52E97
:10030000B4F00DE52D7009752BFF752CFF51792286
:10031000E52DA27013F52BA27113252BF52BE52EDD
:1003200003C2E7F52C03C2E7352CF52C517922C224
:1003300081C0D0C0E0740FD5E0FDD0E0D0D0D28134
:10034000C0D0C0E07405D5E0FDD0E0D0D022C2819D
:10035000C0D0C0E07405D5E0FDD0E0D0D0D281C0DF
:10036000D0C0E0740FD5E0FDD0E0D0D022C0D0C026
:10037000E0C0F0C2A8C28CD28175A4FAC0D0C0E09F
:100380007402D5E0FDD0E0D0D075F00830E70471FC
:100390002F8002714E23D5F0F375A4F8D281C0D01E
:1003A000C0E07405D5E0FDD0E0D0D0D28C758A00D5
:1003B000758C00C289D2A8D0F0D0E0D0D022203BEA
:1003C0000132C0D0C0E075D01118E8B56D3320817E
:1003D0000BD281856E8A08D0E0D0D03275A4F8D2D5
:1003E00081C23B758E0C7589AAC2A9C289C28B7560
:1003F0008A00758C00758200D2A8D2AAD0E0D0D035
:1004000032B281868AD0E0D0D032C28D203B012228
:10041000C0D0C0E075D01118E8B56D3320810BD283
:1004200081856E8A08D0E0D0D02275A4F8D281C22E
:100430003B758E0C7589AAC2A9C289C28B758A00C8
:10044000758C00758200D2A8D2AAD0E0D0D022B29A
:1004500081868AD0E0D0D022C0D0C0E0C2CF053B98
:10046000E5606009E55F6005755F00801B755F01F1
:10047000E52360021523C3E54C6005754D00800837
:10048000054DE54D7002154DD0E0D0D032C2AF53CE
:10049000E67F7592FA7593FFC22053917FD2AF32F7
:1004A000758200752800752900752A00780075F09E
:1004B00000E0C0E0C395F0D0F0C395644002D24B99
:1004C0000582E0C0E0C395F0D0F0C395644002D24D
:1004D0004A0582E0C0E0C395F0D0F0C395644002C5
:1004E000D2490582E0C0E0C395F0D0F0C3956440E6
:1004F00002D2480582E0C0E0C395F0D0F0C3956415
:100500004002D2470582E0C0E0C395F0D0F0C39529
:10051000644002D2460582E0C0E0C395F0D0F0C34B
:1005200095644002D2450582E0C0E0C395F0D0F06A
:10053000C395644002D2440582E0C0E0C395F0D088
:10054000F0C395644002D2430582E0C0E0C395F059
:10055000D0F0C395644002D2420582E0C0E0C3956A
:10056000F0D0F0C395644002D2410582E0C0E0C300
:1005700095F0D0F0C395644002D2400582E0C0E01F
:10058000C395F0D0F0C395644002D2530582E0C019
:10059000E0C395F0D0F0C395644002D2520582E0EA
:1005A000C0E0C395F0D0F0C395644002D2510582FB
:1005B000E0C0E0C395F0D0F0C395644002D250058E
:1005C00082E528C465286529303701F4652A540F6F
:1005D00022900000D2A8D2AA0522E522700215229C
:1005E000C3E5229432400A754C00D0F0D0E0D0D060
:1005F0003275230AD0F0D0E0D0D032C2AFC2A8C248
:100600008EC0D0C0E0C0F075D010C2CAA8CCA9CDB1
:10061000D2CAD2AF758A00C3E89567F8E99568F940
:10062000E970AEE8956940A9956A50A5E582B410D5
:10063000A091A0709C85286B85296CD23C20370E38
:10064000900000D2A8D2AAD0F0D0E0D0D032303E74
:1006500004B23DC23E756DD0303D03756DE878D073
:10066000303D0278E8E6C28D758A55758E09758928
:10067000A2D23BD2A9D28175A4FA75D011F8D0F0DC
:10068000D0E0D0D0320483223C78B4F0F0C23CC237
:10069000AFA96BE56BC39460FAE56CD2AF9400FB35
:1006A00050177B007A00E96010C313500CB54A0460
:1006B000054B8005F54A754B00303A27C3EA94D0C4
:1006C000F8EB9407F9400BE8FAE9FB203509D2353D
:1006D000C1D7303502C235203902B235C3EA33FA08
:1006E000EB33FBEB2B3B3BF9C3EB13FBEA13FAEACF
:1006F00029FAEB3400FB30E3047AFF7BFFE5255455
:1007000003601D202A1AE55B33F9EB7007C3E99AF1
:100710004002E9FAE5365403D1852AFAEB3400FBAE
:10072000C3EA33C4540FF8EB33C454F048F87005EF
:10073000EA60027801E52260021522D230884CE599
:100740004C6003754D00AC59C3E559955A4002AC55
:100750005AC3EC954C5008EC75F008A4FAABF08A3B
:100760005253520F8BF07900EAA2F013A2F113A2B8
:10077000F213F4F8C3E8940AFAE99400FB50047AFF
:10078000007B00884E894F8A508B5175230A22C006
:10079000E0E58AF0058285668BD0E032C289C0E050
:1007A000E58AF0058285668BD0E022C2AA85668B39
:1007B000D28EC2CA85CC6785CD68D2CA3253E6EFE5
:1007C000327901801479038010790A800C791E80B7
:1007D000087964800479C880007817E4D5E0FDE8E2
:1007E000C0E0E9C0E0303C02D18DD0E0F9D0E0F8C3
:1007F000D8E9D9E52278FF20282879A1E76023E508
:100800002E601F74FF852EF0848539F03029037522
:10081000F005A4F8C5F0600278FFC3E8955B5002CC
:10082000A85B885A22C3E52D94A0E52E9400E55AD2
:100830005003148001046002F55A2275E8902205E5
:100840005CC3E55C9408405330EDF4A8BDA9BE75C7
:100850005C00E9FA79A0E76041EA7006E55D60189E
:10086000800CC3E8955D600EE55D5005600A14805C
:10087000070460FA8002E55DF55DC39563401B7572
:1008800059C0C394044013755980C39404400B7538
:100890005940C39404400375590022E5592410506F
:1008A0000274FFF55922743279A687F0A4C5F0A22C
:1008B000F733F55B22752D00752EF022C2AFC2CA48
:1008C000A8CCA9CDAA3B30CF010AD2CAD2AFC3EA85
:1008D00013FAE913F9E813F8AB3CAC3D883C893DC9
:1008E000C3E89BF8E99C20280A547FF9302C0221A8
:1008F000D98040AD3E8A3EF9EA9D547FFA60067881
:10090000FF79FF8013AE3FAF408B3F8C40A83CA9DE
:100910003DC3E89EF8E99FF9C3E52E13FBE52D13CF
:10092000FAE82AF52DE93BF52E5008752DFF752EB6
:10093000FF804DAA2DAB2EAC2DAD2E7E047F02C3C1
:10094000EB9404400D1E1FC3EB94084005202902C0
:100950001E1FC3ED13FDEC13FCDEF7C3EA9CFAEB9C
:100960009DFBEF6009C3E913F9E813F8DFF7EA2804
:10097000FAEB39FB8A2D8B2E50067BFF8B2D8B2EAD
:10098000C3EB94025002D22C3028047F03801C78E1
:1009900092E6FFC3E537948240110FC3E53794A078
:1009A00040010FC3EF940640027F057E02E52EC48E
:1009B000540FF9E52EC454F0F8E52DC4540F28F86F
:1009C000C3E89EFAE99400FB400AC3EA9401EB9461
:1009D000004001227A01E4FB22AA2DAB2EEBC4FEDB
:1009E000EAC4540F4EFCC3EA9CFAEB9400FBC3E844
:1009F00013C313F8EA28FAEB3400FB8A2D8B2EC3BD
:100A0000EB94024002C22C7802EBC4FE7B00EAC4E5
:100A1000540F4EFAC3EA98FA4005C3940150027A83
:100A2000017892E6FF2230200241268546928547D2
:100A300093D22043E68022C3E49AF8E49BF9C3E80A
:100A400033F8E933F9202C6FE8FAE9FBD3E913FD19
:100A5000E813FC88468947C3EF94036037EF20E032
:100A60000CE82CF8E93DF9ECFAEDFB8013E828F8E6
:100A7000E939F9C3E82401F8E93400F97AFF7BFF8A
:100A8000C3EF9403400E8A488B49884289438C44C3
:100A90008D458057884889498A428B438C448D45CF
:100AA0003028127548F07549FF7544F07545FF759B
:100AB00046F07547FF8034E8FAD3E813FC8846C354
:100AC000EF94036020EF20E007E82CF8ECFA41D720
:100AD000E8282401F87AFFC3EF940340088A488885
:100AE000428C44800688488A428C4430200241EB84
:100AF000753402D22043E680E5255403602DA82DED
:100B0000A92EC3E913F9E813F8302804E92440F9C1
:100B1000C2AF53E67F759100C3E498F594E499F56C
:100B200095759104D22043E680D2AF22D22175413F
:100B300000752000302B03752040614AD221754199
:100B400000752040302B0375200078017901202C9E
:100B500028E52554036002C2217914E52EC31370E1
:100B60000104F8C3941440027814302804781B79E7
:100B70001BC3E833F8C3E933F9202010E541600CCA
:100B8000302803D53404D22261FD51F30541E5BF7D
:100B90005440B5200261E730280908C3E8994001B4
:100BA00018617920210A08C3E8994002614A6179F5
:100BB000C22153E67F759100302C11759400759514
:100BC000F0759104D22043E680020B4AE52E7EFFA9
:100BD000C3334009C3334005C3334001FEC3E49E21
:100BE000759400F59561C1C3E53394015002614AE3
:100BF000302102614AD80261FB6179C222C2AF533F
:100C0000E67F7591008548948549957591048542E4
:100C100092854393D22043E680D2AFE5255403600A
:100C2000072029020533801030220D202B0A2021B5
:100C300007158115810216AD227800302102780156
:100C4000E53775F007A4F9E5F028F5F0E9A2F0130F
:100C5000A2F113A2F213F537C394785003753778D5
:100C6000C3E5379538400CC285C286C28775D4FF6C
:100C700075D507918630200281758544928545930C
:100C8000D22043E68022303C0A12068DE52E54F82D
:100C900070012230370C203B09D57307757305129C
:100CA00002D722E573B404041202FE22B403041234
:100CB000029922B402041202B2221202C422A22415
:100CC000E54E92E08550F975FA00F5FBF5FC85508C
:100CD000E98550EA22A224E55492E08556F975FA96
:100CE00000F5FBF5FC8556E98556EA22E5534552A9
:100CF000121733F553D22430E0055353FEC2242299
:100D0000D223D558040558C22391EC20382FC2AF06
:100D1000C291C29220231075D80091BE75D47F7500
:100D2000D50375D840800E75D80091D575D47F75E0
:100D3000D50375D840D290D2AF75AA5322C2AFC2A4
:100D400090C29120231075D80091BE75D4DF75D55F
:100D50000675D840800E75D80091D575D4DF75D54D
:100D60000675D840D292D2AF75AA5322D223D55855
:100D7000040558C22391EC20382FC2AFC291C29211
:100D800020231075D80091BE75D4BF75D50575D8D0
:100D900040800E75D80091D575D4BF75D50575D82E
:100DA00040D290D2AF75AA4322C2AFC290C2912066
:100DB000231075D80091BE75D4BF75D50575D84080
:100DC000800E75D80091D575D4BF75D50575D840FE
:100DD000D292D2AF75AA6322D223D558040558C245
:100DE0002391EC20382FC2AFC290C29120231075FE
:100DF000D80091BE75D4BF75D50575D840800E75E5
:100E0000D80091D575D4BF75D50575D840D292D28A
:100E1000AF75AA6322C2AFC291C29220231075D8C7
:100E20000091BE75D4BF75D50575D840800E75D8B4
:100E30000091D575D4BF75D50575D840D290D2AF85
:100E400075AA4322D223D558040558C22391EC2019
:100E5000382FC2AFC290C29120231075D80091BE26
:100E600075D4DF75D50675D840800E75D80091D53C
:100E700075D4DF75D50675D840D292D2AF75AA5316
:100E800022C2AFC291C29220231075D80091BE75C4
:100E9000D47F75D50375D840800E75D80091D5756F
:100EA000D47F75D50375D840D290D2AF75AA53229E
:100EB000D223D558040558C22391EC20382FC2AF55
:100EC000C290C29220231075D80091BE75D4DF75F0
:100ED000D50675D840800E75D80091D575D4DF75CC
:100EE000D50675D840D291D2AF75AA4322C2AFC2FF
:100EF00090C29220231075D80091BE75D47F75D50D
:100F00000375D840800E75D80091D575D47F75D5FE
:100F10000375D840D291D2AF75AA6322D223D55897
:100F2000040558C22391EC20382FC2AFC290C29260
:100F300020231075D80091BE75D47F75D50375D860
:100F400040800E75D80091D575D47F75D50375D8BE
:100F500040D291D2AF75AA6322C2AFC290C2922092
:100F6000231075D80091BE75D4DF75D50675D840AD
:100F7000800E75D80091D575D4DF75D50675D8402B
:100F8000D291D2AF75AA43227A147B7880127A105C
:100F90007B8C800C7A0D7BB480067A0B7BC880003A
:100FA000E55ED5E001227902E4C291D5E0FDD2866A
:100FB000D5E0FDC286D5E0FDD291D5E0FDE920E087
:100FC00002D28530E002D287E55ED5E0FDE920E07F
:100FD00002C28530E002C2877496D5E0FDD9C9EA25
:100FE000F8D5E0FDD8FBDBB8C29122C285C286C22B
:100FF00087C290C291C29275D4FF75D507227880BE
:1010000076FF0876FF0876FF0876FF0876FF0876F9
:10101000FF0876090876FF087601788C7601087655
:10102000FF0876FF0876FF0876FF0876FF0876034C
:101030000876FF0876FF0876FF0876250876D00840
:1010400076280876500876040876FF087602087637
:10105000FF08767A0876FF0876070876010876FF9B
:101060000876FF087600087600227888E6C39403A5
:10107000D23A5002C23AC238E630E102D238A2383F
:1010800092397886E6149000A09378A6F67886E6E2
:10109000F539C394025003753902789CE67538FF20
:1010A000B402037538A0B4030375388278A0E6F85B
:1010B000600674282409D8FCF563120FEB2278A58A
:1010C000E6F95403D2837002C283E9540CD28470CF
:1010D00002C284E954307000E954C0700022756681
:1010E0008075642075696C756A14756EFF756FEC98
:1010F0007570DD2275660075643F7569D9756A285B
:10110000756EFA756FD17570B022741E208115C08E
:10111000D0C0E0740AD5E0FDD0E0D0D02081EBD57E
:10112000E0EDC322C0D0C0E0740AD5E0FDD0E0D02D
:10113000D03081D6D5E0EDD32230371E1202FE1218
:1011400002991202B21202C41202D71202FE120255
:10115000991202B21202C41202D72275610075629E
:10116000007597DE7597AD7581AF43FF8075EF060B
:1011700075A900120FEB75800275F1FF75A4F87563
:10118000800275D4FF75900075F20775A5077590FC
:101190000075D50775A60175E34075E202120FEBE5
:1011A000E47800F6D8FD120FFE1218347898865EA7
:1011B000753001C2AF1207D5120F881207CD120F7A
:1011C0008E1207CD120F941207CD11BEC2AF7561FA
:1011D0000075620078FA79FA308116D9FBD8F77574
:1011E000A91375A71075C10075A700756000021CD2
:1011F0000075A71075C13075A70075A9037560014A
:10120000116A7898865E120FEB75C80475910475A3
:10121000D84075D90875F780759E03755380755849
:10122000017556007557007554FF7555FF75960288
:1012300075DA4275DB4275BF8075AB0075D10C75F0
:10124000BCB975BB1075E88075B201C23C1207C10C
:10125000753600C2301207D5D234310A923775E4A0
:101260009130370375E419C23BC23CC23DC23E75A2
:1012700073051208B5758851758E0C7589AA758C21
:1012800000758D00758E0C75E68075B80375A828FD
:1012900011F43139D2AF7522321207D1754A007577
:1012A0004B00C3E5229402400221CC1207C5203036
:1012B0000221CCE54C600221CCC2AF120F88120F84
:1012C00088120F88D2AF1207D575610075620012BF
:1012D00007D1E54C600221CCC2AF120F9A120F9ACF
:1012E000120F9AD2AF1207D57530001208B53139F6
:1012F000E4F531F5320531E531F4703F0532789A85
:10130000E67819146012783214600D787D14600844
:1013100078FA146003753200C3E53298401D120F4D
:10132000EB1207C115327531007899865EC2AF1293
:101330000F9AD2AF7898865E1207D11207C9E523BB
:10134000700221CC303C0312068DC3E54C94015051
:101350000AC3E54A940150160212F51207D1E5239B
:1013600070030211CC754A00754B00021519C3E5D4
:101370004A94017017C2AF120FEB7899865E120F74
:10138000887898865ED2AF1207D1A10BC3E54A9444
:10139000027017C2AF120FEB7899865E120F8E782B
:1013A00098865ED2AF1207D1A10BC3E54A940370B1
:1013B00017C2AF120FEB7899865E120F9478988659
:1013C0005ED2AF1207D1A10BC3E54A94047017C2D5
:1013D000AF120FEB7899865E120F9A7898865ED2DC
:1013E000AF1207D1A10BC3E54A94057017C2AF1223
:1013F0000FEB7899865E120F9A7898865ED2AF12BC
:1014000007D1A10BC3E54A94077019C3E54B9406B5
:10141000500261447401303A0274037888F6C2388D
:10142000C239A10BC3E54A94087019C3E54B940671
:10143000500261447402303A0274047888F6D2385B
:10144000D239A10BC3E54A94097017C3E54B940642
:1014500050026144303A0BC37888E69402F6C23AEF
:10146000A10BC3E54A940A7016C3E54B94065002DB
:101470006144203A0A7888E62402F6D23AA10BC3E6
:10148000E54A94147025C3E54B940650026144C2AA
:10149000AF901A0B740093D2AF7888F613C238C29B
:1014A000394002D2384002D2398060C3E54A9415EF
:1014B0007040C3E54B94064058C2AFC083C08290D1
:1014C0001A0B740093D082D083D2AFF8B8010274A3
:1014D00002B802027401B803027404B8040274036F
:1014E0007888F613C238C2394002D2384002D23965
:1014F0008019C3E54A940C70127561A57562F1C339
:10150000E54B9406400B12187BD2AF754A00754B21
:10151000007561007562006144120FEB755C007527
:101520002400752500753700755C081207C1120884
:101530003B30EDFDA8BDA9BEE97001F8885D120839
:101540003F755C08C2AF1208A6855B59855B5AD20D
:10155000AF303A07C238303502D238D2287533005E
:10156000303C0312068D120EB0120F1C1208B51279
:1015700008BC120A26120A371208B51208BC120A51
:1015800026120A371208B5120B3C120C39120D0044
:101590001208BC120A26120A37120B2C202C031236
:1015A00007F5302C03120825120C39120D6C1208A5
:1015B000BC120A26120A37120B3C120C39120DD833
:1015C0001208BC120A26120A37120B2C120C3912FE
:1015D0000E441208BC120A26120A37120B3C120CD7
:1015E00039120EB01208BC120A26120A3712083B32
:1015F000120B2C120C39120F1C12083F1208BC12CD
:101600000A26120A37302827855B5979187A0CC3C5
:10161000E53399400EC228D2298A35855B59855B0E
:101620005A800CC3E54C94014003021587C1B530C4
:10163000291F202B1CE535147006C229D22AA18748
:10164000F535203A07C3E54C940140030215878025
:1016500064753600203A0F78FA79A4E760027803BF
:10166000C3E54D98504FE523604B303A17203805BD
:10167000203507800F303502800A202B07D22B85BA
:101680005B59A1C978F0302B05855B597820C3E5FB
:101690002E985003021587302B1BC22BC2383035D1
:1016A00002D238D229753512855B59A1870536E5F6
:1016B0004C6002C1B8753600C2AF120FEB75250041
:1016C000D2AF1207D1120FEB75240078A4E66006A2
:1016D000D290D291D292C3E5369404400221CC41FB
:1016E000EB8322010203040D090508040D090C080F
:1016F000040D83220102030405060708393129215C
:101700001911091008393129211911181008393116
:1017100029211920181008393129212820181008EA
:10172000393129302820181008393138302820184C
:1017300010083983220102030405060708090A0B71
:101740000C0D0E0F10F1E1D1C1B1A1918171615168
:10175000413121112010F1E1D1C1B1A1918171611B
:1017600051413121302010F1E1D1C1B1A1918171FC
:101770006151413140302010F1E1D1C1B1A19181DD
:10178000716151415040302010F1E1D1C1B1A191BE
:1017900081716151605040302010F1E1D1C1B1A19F
:1017A0009181716170605040302010F1E1D1C1B180
:1017B000A19181718070605040302010F1E1D1C161
:1017C000B1A19181908070605040302010F1E1D142
:1017D000C1B1A191A0908070605040302010F1E123
:1017E000D1C1B1A1B0A0908070605040302010F104
:1017F000E1D1C1B1C0B0A0908070605040302010E5
:10180000F1E1D1C1D0C0B0A09080706050403020D4
:1018100010F1E1D1E0D0C0B0A090807060504030B5
:101820002010F1E1F0E0D0C0B0A090807060504096
:10183000302010F1901A0D782011B4E520B4550A2B
:10184000A311B4E520B4AA0280137561A57562F1F5
:10185000120FFE117B756100756200801D901A03E6
:1018600078807B0A11B4A308DBFA901A0F788C7B7E
:101870001A11B4A308DBFA901A2922C2AF11F7118A
:10188000D4901A00741011B9A3744E11B9A3742125
:1018900011B9901A0378807B0A11B8A308DBFA907B
:1018A0001A0F788C7B1A11B8A308DBFA310A11E8F9
:1018B000901A2922E493F622E6438F01538FFDFF0D
:1018C000C3E583941C400122EF8561B78562B7F0C0
:1018D000538FFE22438F02438F018561B78562B724
:1018E000901A0DF0538FFC22901A0D745511B99077
:1018F0001A0E74AA11B9227A3079D07820901A4041
:1019000011B4E520F709A3DAF7227A3079D0901ADA
:1019100040E711B909A3DAF9227C051207D5DCFBEF
:1019200022C2AF120F88120F8E120F94120F9A124A
:1019300007C9120F88120F8E120F94120F9A1207F6
:10194000C9120F88120F8E120F94120F9AD2AF2263
:10195000C2AF120F9A120F94120F8E120F88120735
:10196000C9120F9A120F94120F8E120F881207C904
:0F197000120F9A120F94120F8E120F88D2AF22FD
:1019FD0002115B104E21FFFFFFFFFFFF09FF01FFEB
:101A0D0055AA01FFFFFFFFFF03FFFFFF25D0285061
:0D1A1D0004FF02FF7AFF0701FFFF0000FF3A
:101A400023515F485F313023202020202020202098
:101A500023424C48454C492445464D3842323123B7
:101A60002020202020202020202020202020202076
:101C0000C2AFC2D37597DE7597AD7581C075A90057
:101C100043FF80752438752503B1DB7529A5752A26
:101C2000F143F10253A4FDD28175D4FF75E3407DE9
:101C3000FA780379E67C10752200752300901DE880
:101C40007B06752498752501308102814820810822
:101C5000D8FBD9F9DCF781BA308108D8FBD9F9DC97
:101C6000F781BAB19BE493A3C39A6004DDC381BA40
:101C7000DBDBB18D600281317B08E493FAA3B16EA6
:101C8000DBF87A30B16E752200752300B18DEAFC65
:101C9000EBFDC3ED94FE400EB18D8A278B28ED300D
:101CA000E0048A828B83B18D7AC270D8C3ED94FE32
:101CB000601950CEBD0029EC600F7520007521FF22
:101CC000752900752A000200008100A827A92808AC
:101CD00009D804D90281DDB191EAF281D10D81A642
:101CE000C3ED94035051EDA2E092007AC5C3E582A2
:101CF0009400E583941C508C200010438F02438F86
:101D0000018529B7852AB7F0300027A827A9280818
:101D100009438F01538FFDD804D902A132C3E58353
:101D2000941C4003A3A117E28529B7852AB7F0A325
:101D3000A117538FFC81827AC1BD030CE493A3FAEF
:101D4000B152DCF8B14A81828184AA22AB23B16E00
:101D5000EBFAEA6222752608C3E52313F523E52290
:101D600013F52250066323A0632201D526EAB1DBD6
:101D7000B1DB75260AEAF4200102D281300102C2E9
:101D800081B1DBC3134002C201D526EB22B191EA37
:101D9000FB208102A191308102A196752608AE2414
:101DA000AF25C3EF13FFEE13FEB1DFB1DBC3EA13C0
:101DB0003081024480FA30E703632201C3E5231334
:101DC000F523E52213F52250066323A0632201D5F3
:101DD00026D9E52265236523F52222AE24AF250E00
:101DE0000FDEFEDFFCD20122424C48656C693437BD
:061DF0003164E8B20601B7
:00000001FF
