:020000040000FA
:060000000219FD02078F4A
:03000B000203BE2F
:030013000207AB36
:03001B000205FBE0
:03002B0002045874
:03005B000207BDDC
:0300730002048DF7
:1000A000080C10182030406080A0C0E0F0C2AFC043
:1000B000829000B57301D501E601FA210E211F21BE
:1000C000332144215B216F2186219421A821B9216C
:1000D000D321E421FBD082D2AFA6F008A67008A6F7
:1000E0006E08856EF022D082D2AFA6F008A66E0808
:1000F000A66F08A66E08856EF022D082D2AFE56F9B
:10010000B5F002E570F608A67008856EF022D08280
:10011000D2AFA6F008A66E08A67008856EF022D0B1
:1001200082D2AFA6F008A66F08A66E08A66E088554
:100130006EF022D082D2AFA6F008A66F08A66F0894
:10014000856EF022D082D2AFE56FB5F002E570F691
:1001500008A66E08A66F08856EF022D082D2AFA6E0
:10016000F008A66E08A66E08A66F08856EF022D06D
:1001700082D2AFE56FB5F002E570F608A66F08A66B
:100180006E08856EF022D082D2AFA6F008A6700865
:10019000856FF022D082D2AFE56FB5F002E570F640
:1001A00008A66F08856FF022D082D2AFA6F008A60D
:1001B0006E08A66F08856FF022D082D2AFE56FB5CA
:1001C000F002E570F608A66E08A66E08A66E088511
:1001D0006EF022D082D2AFA6F008A66F08A66E08F5
:1001E000856FF022D082D2AFE56FB5F002E570F6F0
:1001F00008A66E08A66E08856FF022D082D2AFA640
:10020000F008A66E08A66E08A66E08856FF022E5B7
:100210002CA25F33F52B752C0F8075E52CA25F3374
:10022000A25E33F52B752C0D8066E52CA25F33A200
:100230005E33A25D33F52B752C0B8054E52B54F007
:10024000C264452CC4F52B752C098044E52BA260B3
:1002500013A26113A26213F52B752C078032E52BD4
:10026000A26013A26113F52B752C058023E52BA248
:100270006013F52B752C03801720679320669C2054
:1002800065A82064B72063C42062D32061DFE52B1A
:10029000C4652B652CF4F57122C23E78E9303D022D
:1002A00078D1856EF0E57123541E11AD85F071880B
:1002B00072228571F0A872E52B23541E11AD85F0D2
:1002C000718872228571F0A872E52BC423541E1127
:1002D000AD85F0718872228571F0A872E52C2354E7
:1002E0001E11ADA6F008E878E8303D0278D0F6C2DD
:1002F000AF203B05B23DD2AF22D23ED2AF22E52E97
:10030000B4F00DE52D7009752BFF752CFF51792286
:10031000E52DA27013F52BA27113252BF52BE52EDD
:1003200003C2E7F52C03C2E7352CF52C517922C224
:1003300087C0D0C0E0740FD5E0FDD0E0D0D0D28728
:10034000C0D0C0E07405D5E0FDD0E0D0D022C28797
:10035000C0D0C0E07405D5E0FDD0E0D0D0D287C0D9
:10036000D0C0E0740FD5E0FDD0E0D0D022C0D0C026
:10037000E0C0F0C2A8C28CD28775A480C0D0C0E013
:100380007402D5E0FDD0E0D0D075F00830E70471FC
:100390002F8002714E23D5F0F375A400D287C0D010
:1003A000C0E07405D5E0FDD0E0D0D0D28C758A00D5
:1003B000758C00C289D2A8D0F0D0E0D0D022203BEA
:1003C0000132C0D0C0E075D01118E8B56D33208778
:1003D0000BD287856E8A08D0E0D0D03275A400D2C7
:1003E00087C23B758E0C7589AAC2A9C289C28B755A
:1003F0008A00758C00758200D2A8D2AAD0E0D0D035
:1004000032B287868AD0E0D0D032C28D203B012222
:10041000C0D0C0E075D01118E8B56D3320870BD27D
:1004200087856E8A08D0E0D0D02275A400D287C21A
:100430003B758E0C7589AAC2A9C289C28B758A00C8
:10044000758C00758200D2A8D2AAD0E0D0D022B29A
:1004500087868AD0E0D0D022C0D0C0E0C2CF053B92
:10046000E5606009E55F6005755F00801B755F01F1
:10047000E52360021523C3E54C6005754D00800837
:10048000054DE54D7002154DD0E0D0D032C2AF53CE
:10049000E67F7592FA7593FFC22053917FD2AF32F7
:1004A000758200752800752900752A00780075F09E
:1004B00000E0C0E0C395F0D0F0C395644002D24B99
:1004C0000582E0C0E0C395F0D0F0C395644002D24D
:1004D0004A0582E0C0E0C395F0D0F0C395644002C5
:1004E000D2490582E0C0E0C395F0D0F0C3956440E6
:1004F00002D2480582E0C0E0C395F0D0F0C3956415
:100500004002D2470582E0C0E0C395F0D0F0C39529
:10051000644002D2460582E0C0E0C395F0D0F0C34B
:1005200095644002D2450582E0C0E0C395F0D0F06A
:10053000C395644002D2440582E0C0E0C395F0D088
:10054000F0C395644002D2430582E0C0E0C395F059
:10055000D0F0C395644002D2420582E0C0E0C3956A
:10056000F0D0F0C395644002D2410582E0C0E0C300
:1005700095F0D0F0C395644002D2400582E0C0E01F
:10058000C395F0D0F0C395644002D2530582E0C019
:10059000E0C395F0D0F0C395644002D2520582E0EA
:1005A000C0E0C395F0D0F0C395644002D2510582FB
:1005B000E0C0E0C395F0D0F0C395644002D250058E
:1005C00082E528C465286529303701F4652A540F6F
:1005D00022900000D2A8D2AA0522E522700215229C
:1005E000C3E5229432400A754C00D0F0D0E0D0D060
:1005F0003275230AD0F0D0E0D0D032C2AFC2A8C248
:100600008EC0D0C0E0C0F075D010C2CAA8CCA9CDB1
:10061000D2CAD2AF758A00C3E89567F8E99568F940
:10062000E970AEE8956940A9956A50A5E582B410D5
:10063000A091A0709C85286B85296CD23C20370E38
:10064000900000D2A8D2AAD0F0D0E0D0D032303E74
:1006500004B23DC23E756DD0303D03756DE878D073
:10066000303D0278E8E6C28D758A55758E09758928
:10067000A2D23BD2A9D28775A48075D011F8D0F050
:10068000D0E0D0D0320483223C78B4F0F0C23CC237
:10069000AFA96BE56BC39460FAE56CD2AF9400FB35
:1006A00050177B007A00E96010C313500CB54A0460
:1006B000054B8005F54A754B00303A27C3EA94D0C4
:1006C000F8EB9407F9400BE8FAE9FB203509D2353D
:1006D000C1D7303502C235203902B235C3EA33FA08
:1006E000EB33FBEB2B3B3BF9C3EB13FBEA13FAEACF
:1006F00029FAEB3400FB30E3047AFF7BFFE5255455
:1007000003601D202A1AE55B33F9EB7007C3E99AF1
:100710004002E9FAE5365403D1852AFAEB3400FBAE
:10072000C3EA33C4540FF8EB33C454F048F87005EF
:10073000EA60027801E52260021522D230884CE599
:100740004C6003754D00AC59C3E559955A4002AC55
:100750005AC3EC954C5008EC75F008A4FAABF08A3B
:100760005253520F8BF07900EAA2F013A2F113A2B8
:10077000F213F4F8C3E89414FAE99400FB50047AF5
:10078000007B00884E894F8A508B5175230A22C006
:10079000E0E58AF0058285668BD0E032C289C0E050
:1007A000E58AF0058285668BD0E022C2AA85668B39
:1007B000D28EC2CA85CC6785CD68D2CA3253E6EFE5
:1007C000327901801479038010790A800C791E80B7
:1007D000087964800479C880007817E4D5E0FDE8E2
:1007E000C0E0E9C0E0303C02D18DD0E0F9D0E0F8C3
:1007F000D8E9D9E52278FF20282879A1E76023E508
:100800002E601F74FF852EF0848539F03029037522
:10081000F005A4F8C5F0600278FFC3E8955B5002CC
:10082000A85B885A22C3E52D94A0E52E9400E55AD2
:100830005003148001046002F55A2275E8902205E5
:100840005CC3E55C9408405330EDF4A8BDA9BE75C7
:100850005C00E9FA79A0E76041EA7006E55D60189E
:10086000800CC3E8955D600EE55D5005600A14805C
:10087000070460FA8002E55DF55DC39563401B7572
:1008800059C0C394044013755980C39404400B7538
:100890005940C39404400375590022E5592410506F
:1008A0000274FFF55922743279A687F0A4C5F0A22C
:1008B000F733F55B22752D00752EF022C2AFC2CA48
:1008C000A8CCA9CDAA3B30CF010AD2CAD2AFC3EA85
:1008D00013FAE913F9E813F8AB3CAC3D883C893DC9
:1008E000C3E89BF8E99C20280A547FF9302C0221A8
:1008F000D98040AD3E8A3EF9EA9D547FFA60067881
:10090000FF79FF8013AE3FAF408B3F8C40A83CA9DE
:100910003DC3E89EF8E99FF9C3E52E13FBE52D13CF
:10092000FAE82AF52DE93BF52E5008752DFF752EB6
:10093000FF804DAA2DAB2EAC2DAD2E7E047F02C3C1
:10094000EB9404400D1E1FC3EB94084005202902C0
:100950001E1FC3ED13FDEC13FCDEF7C3EA9CFAEB9C
:100960009DFBEF6009C3E913F9E813F8DFF7EA2804
:10097000FAEB39FB8A2D8B2E50067BFF8B2D8B2EAD
:10098000C3EB94025002D22C3028047F03801C78E1
:1009900092E6FFC3E537948240110FC3E53794A078
:1009A00040010FC3EF940640027F057E02E52EC48E
:1009B000540FF9E52EC454F0F8E52DC4540F28F86F
:1009C000C3E89EFAE99400FB400AC3EA9401EB9461
:1009D000004001227A01E4FB22AA2DAB2EEBC4FEDB
:1009E000EAC4540F4EFCC3EA9CFAEB9400FBC3E844
:1009F00013C313F8EA28FAEB3400FB8A2D8B2EC3BD
:100A0000EB94024002C22C7802EBC4FE7B00EAC4E5
:100A1000540F4EFAC3EA98FA4005C3940150027A83
:100A2000017892E6FF2230200241268546928547D2
:100A300093D22043E68022C3E49AF8E49BF9C3E80A
:100A400033F8E933F9202C6FE8FAE9FBD3E913FD19
:100A5000E813FC88468947C3EF94036037EF20E032
:100A60000CE82CF8E93DF9ECFAEDFB8013E828F8E6
:100A7000E939F9C3E82401F8E93400F97AFF7BFF8A
:100A8000C3EF9403400E8A488B49884289438C44C3
:100A90008D458057884889498A428B438C448D45CF
:100AA0003028127548F07549FF7544F07545FF759B
:100AB00046F07547FF8034E8FAD3E813FC8846C354
:100AC000EF94036020EF20E007E82CF8ECFA41D720
:100AD000E8282401F87AFFC3EF940340088A488885
:100AE000428C44800688488A428C4430200241EB84
:100AF000753402D22043E680E5255403602DA82DED
:100B0000A92EC3E913F9E813F8302804E92440F9C1
:100B1000C2AF53E67F759100C3E498F594E499F56C
:100B200095759104D22043E680D2AF22D22175413F
:100B300000752000302B03752040614AD221754199
:100B400000752040302B0375200078017901202C9E
:100B500028E52554036002C2217914E52EC31370E1
:100B60000104F8C3941440027814302804781B79E7
:100B70001BC3E833F8C3E933F9202010E541600CCA
:100B8000302803D53404D22261FD51F30541E59BA1
:100B90005440B5200261E730280908C3E8994001B4
:100BA00018617920210A08C3E8994002614A6179F5
:100BB000C22153E67F759100302C11759400759514
:100BC000F0759104D22043E680020B4AE52E7EFFA9
:100BD000C3334009C3334005C3334001FEC3E49E21
:100BE000759400F59561C1C3E53394015002614AE3
:100BF000302102614AD80261FB6179C222C2AF533F
:100C0000E67F7591008548948549957591048542E4
:100C100092854393D22043E680D2AFE5255403600A
:100C2000072029020533801030220D202B0A2021B5
:100C300007158115810216D722780030210278012C
:100C4000E53775F007A4F9E5F028F5F0E9A2F0130F
:100C5000A2F113A2F213F537C394785003753778D5
:100C6000C3E5379538400653F28F75D5FF91803034
:100C70002002816F854492854593D22043E68022ED
:100C8000303C0A12068DE52E54F870012230370CE4
:100C9000203B09D573077573051202D722E573B49B
:100CA00004041202FE22B4030412029922B40204C4
:100CB0001202B2221202C422A224E54E92E0855012
:100CC000F975FA00F5E9F5EA8550FB8550FC22A29A
:100CD00024E55492E08556F975FA00F5E9F5EA85C0
:100CE00056FB8556FC22E5534552121764F553D244
:100CF0002430E0055353FEC22422D223D5580405E4
:100D000058C22391E6203834C2AF53F2DF53F2EFDA
:100D100020231075D80091B875D5EF43F21075D81F
:100D200040800E75D80091CF75D5EF43F21075D87D
:100D300040C29643F240D2AF759F5322C2AF53F2E6
:100D4000BF53F2DF20231075D80091B875D5BF438B
:100D5000F24075D840800E75D80091CF75D5BF434D
:100D6000F24075D840C29443F210D2AF759F53221F
:100D7000D223D558040558C22391E6203834C2AF97
:100D800053F2DF53F2EF20231075D80091B875D5D8
:100D9000DF43F22075D840800E75D80091CF75D50D
:100DA000DF43F22075D840C29643F240D2AF759F20
:100DB0006322C2AF53F2BF53F2DF20231075D80075
:100DC00091B875D5DF43F22075D840800E75D800F4
:100DD00091CF75D5DF43F22075D840C29443F2100D
:100DE000D2AF759F2322D223D558040558C2239130
:100DF000E6203834C2AF53F2BF53F2DF2023107520
:100E0000D80091B875D5DF43F22075D840800E75B3
:100E1000D80091CF75D5DF43F22075D840C29443F6
:100E2000F210D2AF759F2322C2AF53F2DF53F2EF1D
:100E300020231075D80091B875D5DF43F22075D8FE
:100E400040800E75D80091CF75D5DF43F22075D85C
:100E500040C29643F240D2AF759F6322D223D55849
:100E6000040558C22391E6203834C2AF53F2BF5371
:100E7000F2DF20231075D80091B875D5BF43F2403A
:100E800075D840800E75D80091CF75D5BF43F2401C
:100E900075D840C29443F210D2AF759F5322C2AFAF
:100EA00053F2DF53F2EF20231075D80091B875D5B7
:100EB000EF43F21075D840800E75D80091CF75D5EC
:100EC000EF43F21075D840C29643F240D2AF759FFF
:100ED0005322D223D558040558C22391E620383432
:100EE000C2AF53F2BF53F2EF20231075D80091B870
:100EF00075D5BF43F24075D840800E75D80091CFAC
:100F000075D5BF43F24075D840C29543F220D2AFA9
:100F1000759F6322C2AF53F2BF53F2EF20231075C7
:100F2000D80091B875D5EF43F21075D840800E7592
:100F3000D80091CF75D5EF43F21075D840C29543D4
:100F4000F220D2AF759F2322D223D558040558C270
:100F50002391E6203834C2AF53F2BF53F2EF20237F
:100F60001075D80091B875D5EF43F21075D8408050
:100F70000E75D80091CF75D5EF43F21075D840C2E9
:100F80009543F220D2AF759F2322C2AF53F2BF53D5
:100F9000F2EF20231075D80091B875D5BF43F24009
:100FA00075D840800E75D80091CF75D5BF43F240FB
:100FB00075D840C29543F220D2AF759F63227A1450
:100FC0007B7880127A107B8C800C7A0D7BB4800643
:100FD0007A0B7BC88000E55ED5E001227902E453FC
:100FE000F2DFD5E0FDD29543F220D5E0FD53F2DFEC
:100FF000D5E0FDC29543F220D5E0FDE920E005D221
:101000009643F24030E005D29443F210E55ED5E01D
:10101000FDE920E00353F2BF30E00353F2EF749692
:10102000D5E0FDD9B9EAF8D5E0FDD8FBDBA853F24D
:10103000DF2253F28F53F28F75D5FF22788076FF2F
:101040000876FF0876FF0876FF0876FF0876FF0827
:1010500076090876FF087601788C76010876FF0815
:1010600076FF0876FF0876FF0876FF087603087695
:10107000FF0876FF0876FF0876250876D0087628E0
:101080000876500876040876FF0876020876FF088E
:10109000767A0876FF0876070876010876FF0876E4
:1010A000FF087600087600227888E6C39403D23AD7
:1010B0005002C23AC238E630E102D238A238923940
:1010C0007886E6149000A09378A6F67886E6F5393F
:1010D000C394025003753902789CE67538FFB40258
:1010E000037538A0B4030375388278A0E6F860066B
:1010F00074282409D8FCF56311322278A5E6F95446
:10110000037000E9540C7000E954307000E954C0D9
:1011100070002275668075642075696C756A147537
:101120006EFF756FEC7570DD2275660075643F7536
:1011300069D9756A28756EFA756FD17570B02274A9
:101140001E208715C0D0C0E0740AD5E0FDD0E0D0E5
:10115000D02087EBD5E0EDC322C0D0C0E0740AD523
:10116000E0FDD0E0D0D03087D6D5E0EDD3223037C7
:101170001E1202FE1202991202B21202C41202D709
:101180001202FE1202991202B21202C41202D722F5
:101190007561007562007597DE7597AD7581AF4317
:1011A000FF8075EF0675A90011327580FF75F19308
:1011B00075A4007580FF75D4FF75900075F28F756A
:1011C000A57075900075D5FF75A60175E34075E2B1
:1011D000021132E47800F6D8FD113C1218657898B7
:1011E000865E753001C2AF1207D5120FBE1207CD51
:1011F000120FC41207CD120FCA1207CD11FBC2AFD6
:1012000075610075620078FA79FA308716D9FBD8D3
:10121000F775A91375A71075C10075A70075600053
:10122000021C0075A71075C13075A70075A903755C
:10123000600111A87898865E113275C80475910412
:1012400075D84075D90875F780759E0375538075FC
:1012500058017556007557007554FF7555FF759602
:101260000175DB4275DA42759B80759D0075D10C66
:1012700075BCB975BB1075E88075B201C23C120728
:10128000C1753600C2301207D5D234313F9237755E
:10129000E4F730370375E47FC23BC23CC23DC23E37
:1012A0007573051208B5758851758E0C7589AA7508
:1012B0008C00758D00758E0C75E68075B80375A869
:1012C000283129316ED2AF7522321207D1754A000A
:1012D000754B00C3E5229402400221FE1207C5208F
:1012E000300221FEE54C600221FEC2AF120FBE1299
:1012F0000FBE120FBED2AF1207D575610075620026
:101300001207D1E54C600221FEC2AF120FD0120FBE
:10131000D0120FD0D2AF1207D57530001208B531F8
:101320006EE4F531F5320531E531F4703E05327881
:101330009AE67819146012783214600D787D146082
:101340000878FA146003753200C3E53298401C1126
:10135000321207C115327531007899865EC2AF121C
:101360000FD0D2AF7898865E1207D11207C9E52355
:10137000700221FE303C0312068DC3E54C940150EF
:101380000AC3E54A940150160213261207D1E52339
:1013900070030211FE754A00754B00021544C3E547
:1013A0004A94017016C2AF11327899865E120FBE50
:1013B0007898865ED2AF1207D1A136C3E54A94026F
:1013C0007016C2AF11327899865E120FC478988673
:1013D0005ED2AF1207D1A136C3E54A94037016C29C
:1013E000AF11327899865E120FCA7898865ED2AFB6
:1013F0001207D1A136C3E54A94047016C2AF113268
:101400007899865E120FD07898865ED2AF1207D197
:10141000A136C3E54A94057016C2AF113278998699
:101420005E120FD07898865ED2AF1207D1A136C374
:10143000E54A94077019C3E54B9406500261747431
:1014400001303A0274037888F6C238C239A136C333
:10145000E54A94087019C3E54B9406500261747410
:1014600002303A0274047888F6D238D239A136C3F1
:10147000E54A94097017C3E54B9406500261743035
:101480003A0BC37888E69402F6C23AA136C3E54A1D
:10149000940A7016C3E54B940650026174203A0A10
:1014A0007888E62402F6D23AA136C3E54A9414704D
:1014B00025C3E54B940650026174C2AF901A0B74B9
:1014C0000093D2AF7888F613C238C2394002D238BE
:1014D0004002D2398060C3E54A94157040C3E54BA1
:1014E00094064058C2AFC083C082901A0B74009318
:1014F000D082D083D2AFF8B801027402B80202746D
:1015000001B803027404B8040274037888F613C2A5
:1015100038C2394002D2384002D2398019C3E54A74
:10152000940C70127561A57562F1C3E54B94064089
:101530000B1218ACD2AF754A00754B00756100757F
:10154000620061741132755C0075240075250075A8
:101550003700755C081207C112083B30EDFDA8BDCD
:10156000A9BEE97001F8885D12083F755C08C2AF3A
:101570001208A6855B59855B5AD2AF303A07C2384C
:10158000303502D238D228753300303C0312068D34
:10159000120ED2120F481208B51208BC120A2612F7
:1015A0000A371208B51208BC120A26120A371208A6
:1015B000B5120B3C120C39120CFA1208BC120A2696
:1015C000120A37120B2C202C031207F5302C0312B1
:1015D0000825120C39120D701208BC120A26120AC4
:1015E00037120B3C120C39120DE61208BC120A26F7
:1015F000120A37120B2C120C39120E5C1208BC1294
:101600000A26120A37120B3C120C39120ED212089B
:10161000BC120A26120A3712083B120B2C120C3984
:10162000120F4812083F1208BC120A26120A37305D
:101630002827855B5979187A0CC3E53399400EC287
:1016400028D2298A35855B59855B5A800CC3E54CC5
:10165000940140030215B1C1DF30291F202B1CE586
:1016600035147006C229D22AA1B1F535203A07C334
:10167000E54C940140030215B18064753600203AB0
:101680000F78FA79A4E760027803C3E54D98504FCC
:10169000E523604B303A17203805203507800F309E
:1016A0003502800A202B07D22B855B59A1F378F0F5
:1016B000302B05855B597820C3E52E985003021521
:1016C000B1302B1BC22BC238303502D238D229752B
:1016D0003512855B59A1B10536E54C6002C1E27552
:1016E0003600C2AF1132752500D2AF1207D11132C8
:1016F00075240078A4E6600FC29643F240C2954379
:10170000F220C29443F210C3E5369404400221FE55
:10171000611C8322010203040D090508040D090C54
:1017200008040D8322010203040506070839312944
:1017300021191109100839312921191118100839F6
:101740003129211920181008393129212820181091
:10175000083931293028201810083931383028202C
:101760001810083983220102030405060708090A34
:101770000B0C0D0E0F10F1E1D1C1B1A1918171617E
:1017800051413121112010F1E1D1C1B1A1918171FB
:101790006151413121302010F1E1D1C1B1A19181DC
:1017A000716151413140302010F1E1D1C1B1A191BD
:1017B00081716151415040302010F1E1D1C1B1A19E
:1017C0009181716151605040302010F1E1D1C1B17F
:1017D000A19181716170605040302010F1E1D1C160
:1017E000B1A19181718070605040302010F1E1D141
:1017F000C1B1A19181908070605040302010F1E122
:10180000D1C1B1A191A0908070605040302010F102
:10181000E1D1C1B1A1B0A0908070605040302010E3
:10182000F1E1D1C1B1C0B0A09080706050403020D3
:1018300010F1E1D1C1D0C0B0A090807060504030B4
:101840002010F1E1D1E0D0C0B0A090807060504095
:10185000302010F1E1F0E0D0C0B0A0908070605076
:1018600040302010F1901A0D782011E5E520B45594
:101870000AA311E5E520B4AA0280137561A575627B
:10188000F112103C11AC756100756200801D901A58
:101890000378807B0A11E5A308DBFA901A0F788C95
:1018A0007B1A11E5A308DBFA901A2922C2AF31286E
:1018B0003105901A00741011EAA3744E11EAA37452
:1018C0002111EA901A0378807B0A11E9A308DBFA58
:1018D000901A0F788C7B1A11E9A308DBFA313B319F
:1018E00019901A2922E493F622E6438F01538FFDC3
:1018F000FFC3E583941C400122EF8561B78562B781
:10190000F0538FFE22438F02438F018561B78562BA
:10191000B7901A0DF0538FFC22901A0D745511EAEE
:10192000901A0E74AA11EA227A3079D07820901A8F
:101930004011E5E520F709A3DAF7227A3079D09053
:101940001A40E711EA09A3DAF9227C051207D5DC6F
:10195000FB22C2AF120FBE120FC4120FCA120FD059
:101960001207C9120FBE120FC4120FCA120FD012E3
:1019700007C9120FBE120FC4120FCA120FD0D2AF76
:1019800022C2AF120FD0120FCA120FC4120FBE1212
:1019900007C9120FD0120FCA120FC4120FBE1207BE
:1019A000C9120FD0120FCA120FC4120FBED2AF222B
:1019FD00021190104E21FFFFFFFFFFFF09FF01FFB6
:101A0D0055AA01FFFFFFFFFF03FFFFFF25D0285061
:0D1A1D0004FF02FF7AFF0701FFFF0000FF3A
:101A400023575F485F323023202020202020202091
:101A500023424C48454C492445464D3842323123B7
:101A60002020202020202020202020202020202076
:101C0000C2AFC2D37597DE7597AD7581C075A90057
:101C100043FF80752438752503B1DB7529A5752A26
:101C2000F143F18053A47FD28775D4FF75E3407DE3
:101C3000FA780379E67C10752200752300901DE880
:101C40007B06752498752501308702814820870816
:101C5000D8FBD9F9DCF781BA308708D8FBD9F9DC91
:101C6000F781BAB19BE493A3C39A6004DDC381BA40
:101C7000DBDBB18D600281317B08E493FAA3B16EA6
:101C8000DBF87A30B16E752200752300B18DEAFC65
:101C9000EBFDC3ED94FE400EB18D8A278B28ED300D
:101CA000E0048A828B83B18D7AC270D8C3ED94FE32
:101CB000601950CEBD0029EC600F7520007521FF22
:101CC000752900752A000200008100A827A92808AC
:101CD00009D804D90281DDB191EAF281D10D81A642
:101CE000C3ED94035051EDA2E092007AC5C3E582A2
:101CF0009400E583941C508C200010438F02438F86
:101D0000018529B7852AB7F0300027A827A9280818
:101D100009438F01538FFDD804D902A132C3E58353
:101D2000941C4003A3A117E28529B7852AB7F0A325
:101D3000A117538FFC81827AC1BD030CE493A3FAEF
:101D4000B152DCF8B14A81828184AA22AB23B16E00
:101D5000EBFAEA6222752608C3E52313F523E52290
:101D600013F52250066323A0632201D526EAB1DBD6
:101D7000B1DB75260AEAF4200102D287300102C2E3
:101D800087B1DBC3134002C201D526EB22B191EA31
:101D9000FB208702A191308702A196752608AE2408
:101DA000AF25C3EF13FFEE13FEB1DFB1DBC3EA13C0
:101DB0003087024480FA30E703632201C3E523132E
:101DC000F523E52213F52250066323A0632201D5F3
:101DD00026D9E52265236523F52222AE24AF250E00
:101DE0000FDEFEDFFCD20122424C48656C693437BD
:061DF0003164E8B20601B7
:00000001FF
