:020000040000FA
:060000000219FD02074396
:03000B000203BE2F
:0300130002075091
:03001B000205AD2E
:03002B0002040AC2
:03005B0002076237
:0300730002043F45
:1000A000080C10182030406080A0C0E0F0C2AFC043
:1000B000829000B57301D501E601FA210E211F21BE
:1000C000332144215B216F2186219421A821B9216C
:1000D000D321E421FBD082D2AFA6F008A67208A6F5
:1000E00070088570F022D082D2AFA6F008A6700802
:1000F000A67108A670088570F022D082D2AFE57193
:10010000B5F002E572F608A672088570F022D0827A
:10011000D2AFA6F008A67008A672088570F022D0AB
:1001200082D2AFA6F008A67108A67008A67008854E
:1001300070F022D082D2AFA6F008A67108A671088E
:100140008570F022D082D2AFE571B5F002E572F68B
:1001500008A67008A671088570F022D082D2AFA6DA
:10016000F008A67008A67008A671088570F022D065
:1001700082D2AFE571B5F002E572F608A67108A665
:1001800070088570F022D082D2AFA6F008A672085F
:100190008571F022D082D2AFE571B5F002E572F63A
:1001A00008A671088571F022D082D2AFA6F008A609
:1001B0007008A671088571F022D082D2AFE571B5C2
:1001C000F002E572F608A67008A67008A670088509
:1001D00070F022D082D2AFA6F008A67108A67008EF
:1001E0008571F022D082D2AFE571B5F002E572F6EA
:1001F00008A67008A670088571F022D082D2AFA63A
:10020000F008A67008A67008A670088571F022E5AF
:100210002AA24F33F529752A0F8075E52AA24F339C
:10022000A24E33F529752A0D8066E52AA24F33A226
:100230004E33A24D33F529752A0B8054E52954F02D
:10024000C254452AC4F529752A098044E529A250DB
:1002500013A25113A25213F529752A078032E529FA
:10026000A25013A25113F529752A058023E529A26E
:100270005013F529752A03801720579320569C2088
:1002800055A82054B72053C42052D32051DFE5296C
:10029000C46529652AF4F57322C22E78E9302D024F
:1002A00078D18570F0E57323541E11AD85F0738805
:1002B00074228573F0A874E52923541E11AD85F0CE
:1002C000738874228573F0A874E529C423541E1121
:1002D000AD85F0738874228573F0A874E52A2354E1
:1002E0001E11ADA6F008E878E8302D0278D0F6C2ED
:1002F000AF202B05B22DD2AF22D22ED2AF22E52CC9
:10030000B4F00DE52B70097529FF752AFF5179228C
:10031000E52BA26013F529A261132529F529E52C07
:1003200003C2E7F52A03C2E7352AF52A517922C22A
:1003300080C0D0C0E0740FD5E0FDD0E0D0D0D28036
:10034000C0D0C0E07405D5E0FDD0E0D0D022C2809E
:10035000C0D0C0E07405D5E0FDD0E0D0D0D280C0E0
:10036000D0C0E0740FD5E0FDD0E0D0D022C0D0C026
:10037000E0C0F0C2A8C28CD28075A4C1C0D0C0E0D9
:100380007402D5E0FDD0E0D0D075F00830E70471FC
:100390002F8002714E23D5F0F375A4C0D280C0D057
:1003A000C0E07405D5E0FDD0E0D0D0D28C758A00D5
:1003B000758C00C289D2A8D0F0D0E0D0D022202BFA
:1003C0000132C0D0C0E075D01118E8B56F3320807D
:1003D0000BD28085708A08D0E0D0D03275A4C0D20C
:1003E00080C22B758E0C7589AAC2A9C289C28B7571
:1003F0008A00758C00758200D2A8D2AAD0E0D0D035
:1004000032B280868AD0E0D0D032C0D0C0E0C2CF35
:10041000053DE5626009E5616005756100801B7559
:100420006101E53160021531C3E54E6005754F008D
:100430008008054FE54F7002154FD0E0D0D032C292
:10044000AF53E67F7592FA7593FFC21053917FD236
:10045000AF32758200752600752700752800780078
:1004600075F000E0C0E0C395F0D0F0C3956640029F
:10047000D23B0582E0C0E0C395F0D0F0C395664062
:1004800002D23A0582E0C0E0C395F0D0F0C3956691
:100490004002D2390582E0C0E0C395F0D0F0C395A8
:1004A000664002D2380582E0C0E0C395F0D0F0C3C8
:1004B00095664002D2370582E0C0E0C395F0D0F0E7
:1004C000C395664002D2360582E0C0E0C395F0D005
:1004D000F0C395664002D2350582E0C0E0C395F0D6
:1004E000D0F0C395664002D2340582E0C0E0C395E7
:1004F000F0D0F0C395664002D2330582E0C0E0C37D
:1005000095F0D0F0C395664002D2320582E0C0E09B
:10051000C395F0D0F0C395664002D2310582E0C0A9
:10052000E0C395F0D0F0C395664002D2300582E07A
:10053000C0E0C395F0D0F0C395664002D243058277
:10054000E0C0E0C395F0D0F0C395664002D242050A
:1005500082E0C0E0C395F0D0F0C395664002D2417E
:100560000582E0C0E0C395F0D0F0C395664002D2AA
:10057000400582E526C465266527302701F46528F5
:10058000540F22900000D2A8D2AA0530E5307002A4
:100590001530C3E5309432400A754E00D0F0D0E0FB
:1005A000D0D03275310AD0F0D0E0D0D032C2AFC254
:1005B000A8C28EC0D0C0E0C0F075D010C2CAA8CC0E
:1005C000A9CDD2CAD2AF758A00C3E89569F8E9957A
:1005D0006AF9E970AEE8956B40A9956C50A5E58283
:1005E000B410A09152709C85266D85276ED22C2068
:1005F000270E900000D2A8D2AAD0F0D0E0D0D032FE
:10060000302E04B22DC22E756FD0302D03756FE8D9
:1006100078D0302D0278E8E6C28D758A55758E093E
:100620007589A2D22BD2A9D28075A4C175D011F838
:10063000D0F0D0E0D0D0320483223C78B4F0F0C2C5
:100640002CC2AFA96DE56DC39460FAE56ED2AF948C
:1006500000FB50177B007A00E96010C313500CB503
:100660004C04054D8005F54C754D00302A27C3EA32
:1006700094D0F8EB9407F9400BE8FAE9FB20250940
:10068000D225C189302502C225202902B225C3EA1C
:1006900033FAEB33FBEB2B3B3BF9C3EB13FBEA13D6
:1006A000FAEA29FAEB3400FB30E3047AFF7BFFE53A
:1006B000235403601D201A1AE55D33F9EB7007C35C
:1006C000E99A4002E9FAE5385403D1372AFAEB34C3
:1006D00000FBC3EA33C4540FF8EB33C454F048F8BA
:1006E0007005EA60027801E53060021530D220889A
:1006F0004EE54E6003754F00AC5BC3E55B955C4017
:1007000002AC5CC3EC954E5008EC75F008A4FAAB53
:10071000F08A54535407EB131392D5A2E7F4540113
:10072000F9EA13A2D513F4F8C3E89478FAE994002F
:10073000FB50047A007B00885089518A528B537594
:10074000310A22C0E0E58AF0058285688BD0E0326C
:10075000C2AA85688BD28EC2CA85CC6985CD6AD281
:10076000CA3253E6EF327901801479038010790A96
:10077000800C791E80087964800479C8800078171D
:10078000E4D5E0FDE8C0E0E9C0E0302C02D13FD084
:10079000E0F9D0E0F8D8E9D9E52278FF20182879E7
:1007A000A1E76023E52C601F74FF852CF084853B56
:1007B000F030190375F005A4F8C5F0600278FFC3A6
:1007C000E8955D5002A85D885C22C3E52B94A0E506
:1007D0002C9400E55C5003148001046002F55C2257
:1007E00075E89022055EC3E55E9408405330EDF451
:1007F000A8BDA9BE755E00E9FA79A0E76041EA707C
:1008000006E55F6018800CC3E8955F600EE55F50F9
:1008100005600A1480070460FA8002E55FF55FC393
:100820009565401B755BC0C394044013755B80C322
:100830009404400B755B40C394044003755B002235
:10084000E55B2410500274FFF55B22743279A687B1
:10085000F0A4C5F0A2F733F55D22752B00752CF0DE
:1008600022C2AFC2CAA8CCA9CDAA3D30CF010AD2BC
:10087000CAD2AFC3EA13FAE913F9E813F8AB3EACF6
:100880003F883E893FC3E89BF8E99C20180A547FC3
:10089000F9301C02217E8040AD408A40F9EA9D5427
:1008A0007FFA600678FF79FF8013AE41AF428B413B
:1008B0008C42A83EA93FC3E89EF8E99FF9C3E52C06
:1008C00013FBE52B13FAE82AF52BE93BF52C50082E
:1008D000752BFF752CFF804DAA2BAB2CAC2BAD2CB0
:1008E0007E047F02C3EB9404400D1E1FC3EB9408EB
:1008F00040052019021E1FC3ED13FDEC13FCDEF7AB
:10090000C3EA9CFAEB9DFBEF6009C3E913F9E81316
:10091000F8DFF7EA28FAEB39FB8A2B8B2C50067BA1
:10092000FF8B2B8B2CC3EB94025002D21C3018048B
:100930007F03801C7892E6FFC3E539948240110F53
:10094000C3E53994A040010FC3EF940640027F0530
:100950007E02E52CC4540FF9E52CC454F0F8E52BC5
:10096000C4540F28F8C3E89EFAE99400FB400AC378
:10097000EA9401EB94004001227A01E4FB22AA2BC5
:10098000AB2CEBC4FEEAC4540F4EFCC3EA9CFAEB5A
:100990009400FBC3E813C313F8EA28FAEB3400FB16
:1009A0008A2B8B2CC3EB94024002C21C7802EBC44E
:1009B000FE7B00EAC4540F4EFAC3EA98FA4005C31E
:1009C000940150027A017892E6FF2230100221CB86
:1009D000854892854993D21043E68022C3E49AF871
:1009E000E49BF9C3E833F8E933F9201C6FE8FAE92E
:1009F000FBD3E913FDE813FC88488949C3EF94034E
:100A00006037EF20E00CE82CF8E93DF9ECFAEDFB5B
:100A10008013E828F8E939F9C3E82401F8E934003B
:100A2000F97AFF7BFFC3EF9403400E8A4A8B4B8811
:100A30004489458C468D478057884A894B8A448B28
:100A4000458C468D47301812754AF0754BFF754638
:100A5000F07547FF7548F07549FF8034E8FAD3E830
:100A600013FC8848C3EF94036020EF20E007E82CD4
:100A7000F8ECFA417CE8282401F87AFFC3EF9403EC
:100A800040088A4A88448C468006884A8A448C46B4
:100A90003010024190753602D21043E680E52354AF
:100AA00003602DA82BA92CC3E913F9E813F830181B
:100AB00004E92440F9C2AF53E67F759100C3E4987E
:100AC000F594E499F595759104D21043E680D2AF80
:100AD00022D211754300752000301B037520404160
:100AE000EFD211754300752040301B03752000784C
:100AF000017901201C28E52354036002C2117914F6
:100B0000E52CC313700104F8C39414400278143028
:100B10001804781B791BC3E833F8C3E933F92010B4
:100B200010E543600C301803D53604D21261A2518F
:100B3000980543E59B5440B52002618C30180908A4
:100B4000C3E899400118611E20110A08C3E89940C2
:100B50000241EF611EC21153E67F759100301C11F6
:100B60007594007595F0759104D21043E680020AE1
:100B7000EFE52C7EFFC3334009C3334005C3334048
:100B800001FEC3E49E759400F5956166C3E5359456
:100B900001500241EF30110241EFD80261A0611E05
:100BA000C212C2AF53E67F759100854A94854B957A
:100BB000759104854492854593D21043E680D2AF67
:100BC000E523540360072019020535801030120D0B
:100BD000201B0A2011071581158102152B22780090
:100BE0003011027801E53975F007A4F9E5F028F530
:100BF000F0E9A2F013A2F113A2F213F539C394782D
:100C00005003753978C3E539953A400CC286C290D5
:100C1000C29275D4FF75D50F912B301002811A85C1
:100C20004692854793D21043E68022302C0A120662
:100C30003FE52C54F870012230270C202B09D57584
:100C4000077575051202D722E575B404041202FE79
:100C500022B4030412029922B402041202B2221234
:100C600002C422E55092E075D8008552F98553FA06
:100C700053F77FF5FB8551FC8552E98553EA43F72D
:100C800080F5FB8551FC8552E98553EA75D84022F1
:100C9000E55692E075D8008558F98559FA53F77FE3
:100CA000F5FB8557FC8558E98559EA43F780F5FB44
:100CB0008557FC8558E98559EA75D84022D213D565
:100CC0005A04055AC213E5554554121570F555538B
:100CD00055FEA2E020130491638002919022202807
:100CE00016C2AFC291C29375D4FF75D503D287D215
:100CF000AF91BD759F4222C2AFC287C29175D43FEA
:100D000075D50FD293D2AF91BD759F422220281680
:100D1000C2AFC291C29375D4FF75D50CD287D2AF42
:100D200091BD759F5222C2AFC287C29175D4FF7523
:100D3000D50CD293D2AF91BD759F3222202816C216
:100D4000AFC287C29175D4FF75D50CD293D2AF9143
:100D5000BD759F3222C2AFC291C29375D4FF75D5C3
:100D60000CD287D2AF91BD759F5222202816C2AFF8
:100D7000C287C29175D43F75D50FD293D2AF91BDC2
:100D8000759F4222C2AFC291C29375D4FF75D5033D
:100D9000D287D2AF91BD759F4222202816C2AFC222
:100DA00087C29375D43F75D50FD291D2AF91BD75DF
:100DB0009F5222C2AFC287C29375D4FF75D503D2AA
:100DC00091D2AF91BD759F3222202816C2AFC28743
:100DD000C29375D4FF75D503D291D2AF91BD759FE3
:100DE0003222C2AFC287C29375D43F75D50FD2915C
:100DF000D2AF91BD759F52227A147B7880127A10FF
:100E00007B8C800C7A0D7BB480067A0B7BC88000CB
:100E1000E560D5E001227902E4C291D5E0FDD290EF
:100E2000D5E0FDC290D5E0FDD291D5E0FDE920E00E
:100E300002D28630E002D292E560D5E0FDE920E002
:100E400002C28630E002C2927496D5E0FDD9C9EAAA
:100E5000F8D5E0FDD8FBDBB8C29122C286C290C2B1
:100E600092C287C291C29375D4FF75D50F22788044
:100E700076FF0876FF0876FF0876FF0876FF08768B
:100E8000FF0876090876FF087601788C76010876E7
:100E9000FF0876FF0876FF0876FF0876FF087603DE
:100EA0000876FF0876FF0876FF0876250876D008D2
:100EB00076280876500876040876FF0876020876C9
:100EC000FF08767A0876FF0876070876010876FF2D
:100ED0000876FF087600087600227888E6C3940337
:100EE000D22A5002C22AC228E630E102D228A22821
:100EF00092297886E614C2AFC083C0829000A09386
:100F0000D082D083D2AF78A6F67886E6F53BC3943C
:100F1000025003753B02789CE6753AFFB4020375F4
:100F20003AA0B40303753A8278A0E6F86006742804
:100F30002409D8FCF565D15B2278A5E6F954037045
:100F400000E9540C7000E954307000E954C070009E
:100F500022756880756620756B6C756C147570FFF2
:100F60007571EC7572DD22756800756640756BD918
:100F7000756C287570EE7571CD7572AC22741E207B
:100F80008015C0D0C0E0740AD5E0FDD0E0D0D020FC
:100F900080EBD5E0EDC322C0D0C0E0740AD5E0FDFF
:100FA000D0E0D0D03080D6D5E0EDD32230271E124D
:100FB00002FE1202991202B21202C41202D71202E7
:100FC000FE1202991202B21202C41202D7227563F3
:100FD000007564007597DE7597AD7581AF43FF802E
:100FE00075EF0675A900D15B75803F75F1C375A4D7
:100FF000C075803F75D4FF75900075F20F75A50F11
:1010000075900075D50F75A60175E34075E2021263
:101010000E5BE47800F6D8FD120E6ED1B278988699
:1010200060753201C2AF12077A120DF81207721200
:101030000DFE120772120E04120772120F39C2AFA0
:1010400075630075640078FA79FA308016D9FBD898
:10105000F775A91375A71075C10075A70075620013
:10106000021C0075A71075C13075A70075A903751E
:101070006201120EDA78988660120E5B75C80475EC
:10108000910475D84075D90875F781759E0375551B
:1010900020755A017558007559007556FF7557FF30
:1010A00075960275DA4275DB42759B80759D0075F9
:1010B000D10C75BCB975BB1075E88075B201C22C36
:1010C000120766753800C22012077AD224120F7DEB
:1010D000922775E48030270375E408C22BC22CC226
:1010E0002DC22E75750512085A758851758E0C75AE
:1010F00089AA758C00758D00758E0C75E68075B8A3
:101100000375A828120F67120FACD2AF75303212D8
:101110000776754C00754D00C3E53094024002011E
:101120003E12076A202002013EE54E6002013EC2E7
:10113000AF120DF8120DF8120DF8D2AF12077A7532
:101140006300756400120776E54E6002013EC2AF8F
:10115000120E0A120E0A120E0AD2AF12077A753256
:101160000012085A120FACE4F533F5340533E533B9
:10117000F4703F0534789AE67819146012783214C6
:10118000600D787D14600878FA146003753400C32C
:10119000E53498401D120E5B120766153475330056
:1011A00078998660C2AF120E0AD2AF789886601224
:1011B000077612076EE5317002013E302C031206ED
:1011C0003FC3E54E9401500AC3E54C94015016020A
:1011D000116C120776E531700302103E754C0075F4
:1011E0004D00021397C3E54C94017017C2AF120E65
:1011F0005B78998660120DF878988660D2AF1207F6
:10120000766189C3E54C94027017C2AF120E5B7809
:10121000998660120DFE78988660D2AF12077661CB
:1012200089C3E54C94037017C2AF120E5B789986A0
:1012300060120E0478988660D2AF1207766189C377
:10124000E54C94047017C2AF120E5B789986601259
:101250000E0A78988660D2AF1207766189C3E54C92
:1012600094057017C2AF120E5B78998660120E0A51
:1012700078988660D2AF1207766189C3E54C9407EF
:101280007019C3E54D9406500221BB7401302A0247
:1012900074037888F6C228C2296189C3E54C940892
:1012A0007019C3E54D9406500221BB7402302A0226
:1012B00074047888F6D228D2296189C3E54C940950
:1012C0007017C3E54D9406500221BB302A0BC3783A
:1012D00088E69402F6C22A6189C3E54C940A701626
:1012E000C3E54D9406500221BB202A0A7888E624E3
:1012F00002F6D22A6189C3E54C9414702DC3E54DE2
:101300009406500221BB7400C2AFC083C082901A01
:101310000B93D082D083D2AF7888F613C228C2292B
:101320004002D2284002D229805FC3E54C94157058
:1013300040C3E54D940640577400C2AFC083C082DD
:10134000901A0B93D082D083D2AFF8B80102740206
:10135000B802027401B803027404B804027403787A
:1013600088F613C228C2294002D2284002D229801E
:1013700018C3E54C940C70117563A57564F1C3E551
:101380004D9406400AD1F9D2AF754C00754D0075E9
:10139000630075640021BB120E5B755E0075220050
:1013A000752300753900755E081207661207E03074
:1013B000EDFDA8BDA9BEE97001F8885F1207E475CC
:1013C0005E08C2AF12084B855D5B855D5CD2AF30B5
:1013D0002A07C228302502D228D218753500302CB1
:1013E0000312063F120D9A120DC912085A12086113
:1013F0001209CB1209DC12085A1208611209CB1229
:1014000009DC12085A120AE1120BDE120CDE120875
:10141000611209CB1209DC120AD1201C0312079AAF
:10142000301C031207CA120BDE120D0D12086112D6
:1014300009CB1209DC120AE1120BDE120D3C120874
:10144000611209CB1209DC120AD1120BDE120D6BEC
:101450001208611209CB1209DC120AE1120BDE122A
:101460000D9A1208611209CB1209DC1207E0120A68
:10147000D1120BDE120DC91207E41208611209CB5A
:101480001209DC301827855D5B79187A0CC3E535C5
:1014900099400EC218D2198A37855D5B855D5C80E4
:1014A0000CC3E54E94014003021405A13330191F0B
:1014B000201B1CE537147006C219D21A8105F537B6
:1014C000202A07C3E54E9401400302140580647589
:1014D0003800202A0F78FA79A4E760027803C3E580
:1014E0004F98504FE531604B302A172028052025B2
:1014F00007800F302502800A201B07D21B855D5B09
:10150000814778F0301B05855D5B7820C3E52C981A
:101510005003021405301B1BC21BC228302502D207
:1015200028D219753712855D5B81050538E54E6057
:1015300002A136753800C2AF120E5B752300D2AF20
:10154000120776120E5B75220078A4E66006D28739
:10155000D291D293C3E53894044002013E216183C5
:1015600022010203050C080409050C080D09050CED
:1015700083220102030405060709383028201810C9
:10158000081109383028201810191109383028207E
:10159000182119110938302820292119110938304A
:1015A0002831292119110938303931292119110916
:1015B0003883220102030405060708090A0B0C0DF3
:1015C0000E0F11F0E0D0C0B0A0908070605040309D
:1015D00020102111F0E0D0C0B0A090807060504089
:1015E0003020312111F0E0D0C0B0A0908070605068
:1015F000403041312111F0E0D0C0B0A09080706047
:1016000050405141312111F0E0D0C0B0A090807025
:101610006050615141312111F0E0D0C0B0A0908004
:10162000706071615141312111F0E0D0C0B0A090E3
:1016300080708171615141312111F0E0D0C0B0A0C2
:101640009080918171615141312111F0E0D0C0B0A1
:10165000A090A1918171615141312111F0E0D0C080
:10166000B0A0B1A1918171615141312111F0E0D05F
:10167000C0B0C1B1A1918171615141312111F0E03E
:10168000D0C0D1C1B1A1918171615141312111F01D
:10169000E0D0E1D1C1B1A1918171615141312111FC
:1016A000F0E0F1E1D1C1B1A19181716151413121EC
:1016B00011F0901A0D7820F132E520B4550AA3F10B
:1016C00032E520B4AA0280137563A57564F1120E89
:1016D0006ED1F9756300756400801D901A037880DF
:1016E0007B0AF132A308DBFA901A0F788C7B1AF18F
:1016F00032A308DBFA901A2922C2AFF175F1529099
:101700001A007410F137A3744EF137A37421F13726
:10171000901A0378807B0AF136A308DBFA901A0F3F
:10172000788C7B1AF136A308DBFAF188F166901AFF
:101730002922E493F622E6438F01538FFDFFC3E590
:1017400083941C400122EF8563B78564B7F0538F03
:10175000FE22438F02438F018563B78564B7901AD9
:101760000DF0538FFC22901A0D7455F137901A0E1C
:1017700074AAF137227A3079D07820901A40F13269
:10178000E520F709A3DAF7227A3079D0901A40E7FA
:10179000F13709A3DAF9227C0512077ADCFB22C2B1
:1017A000AF120DF8120DFE120E04120E0A12076E81
:1017B000120DF8120DFE120E04120E0A12076E120E
:1017C0000DF8120DFE120E04120E0AD2AF22C2AF95
:1017D000120E0A120E04120DFE120DF812076E12EE
:1017E0000E0A120E04120DFE120DF812076E120EE2
:0D17F0000A120E04120DFE120DF8D2AF22E7
:1019FD00020FCE104E21FFFFFFFFFFFF09FF01FF7A
:101A0D0055AA01FFFFFFFFFF03FFFFFF25D0285061
:0D1A1D0004FF02FF7AFF0701FFFF0000FF3A
:101A400023435F485F313230232020202020202094
:101A500023424C48454C492445464D3842323123B7
:101A60002020202020202020202020202020202076
:101C0000C2AFC2D37597DE7597AD7581C075A90057
:101C100043FF80752438752503B1DB7529A5752A26
:101C2000F143F10153A4FED28075D4FF75E3407DEA
:101C3000FA780379E67C10752200752300901DE880
:101C40007B06752498752501308002814820800824
:101C5000D8FBD9F9DCF781BA308008D8FBD9F9DC98
:101C6000F781BAB19BE493A3C39A6004DDC381BA40
:101C7000DBDBB18D600281317B08E493FAA3B16EA6
:101C8000DBF87A30B16E752200752300B18DEAFC65
:101C9000EBFDC3ED94FE400EB18D8A278B28ED300D
:101CA000E0048A828B83B18D7AC270D8C3ED94FE32
:101CB000601950CEBD0029EC600F7520007521FF22
:101CC000752900752A000200008100A827A92808AC
:101CD00009D804D90281DDB191EAF281D10D81A642
:101CE000C3ED94035051EDA2E092007AC5C3E582A2
:101CF0009400E583941C508C200010438F02438F86
:101D0000018529B7852AB7F0300027A827A9280818
:101D100009438F01538FFDD804D902A132C3E58353
:101D2000941C4003A3A117E28529B7852AB7F0A325
:101D3000A117538FFC81827AC1BD030CE493A3FAEF
:101D4000B152DCF8B14A81828184AA22AB23B16E00
:101D5000EBFAEA6222752608C3E52313F523E52290
:101D600013F52250066323A0632201D526EAB1DBD6
:101D7000B1DB75260AEAF4200102D280300102C2EA
:101D800080B1DBC3134002C201D526EB22B191EA38
:101D9000FB208002A191308002A196752608AE2416
:101DA000AF25C3EF13FFEE13FEB1DFB1DBC3EA13C0
:101DB0003080024480FA30E703632201C3E5231335
:101DC000F523E52213F52250066323A0632201D5F3
:101DD00026D9E52265236523F52222AE24AF250E00
:101DE0000FDEFEDFFCD20122424C48656C693437BD
:061DF0003164E8B20601B7
:00000001FF
