:020000040000FA
:060000000219FD02074396
:03000B000203BE2F
:0300130002075091
:03001B000205AD2E
:03002B0002040AC2
:03005B0002076237
:0300730002043F45
:1000A000080C10182030406080A0C0E0F0C2AFC043
:1000B000829000B57301D501E601FA210E211F21BE
:1000C000332144215B216F2186219421A821B9216C
:1000D000D321E421FBD082D2AFA6F008A67208A6F5
:1000E00070088570F022D082D2AFA6F008A6700802
:1000F000A67108A670088570F022D082D2AFE57193
:10010000B5F002E572F608A672088570F022D0827A
:10011000D2AFA6F008A67008A672088570F022D0AB
:1001200082D2AFA6F008A67108A67008A67008854E
:1001300070F022D082D2AFA6F008A67108A671088E
:100140008570F022D082D2AFE571B5F002E572F68B
:1001500008A67008A671088570F022D082D2AFA6DA
:10016000F008A67008A67008A671088570F022D065
:1001700082D2AFE571B5F002E572F608A67108A665
:1001800070088570F022D082D2AFA6F008A672085F
:100190008571F022D082D2AFE571B5F002E572F63A
:1001A00008A671088571F022D082D2AFA6F008A609
:1001B0007008A671088571F022D082D2AFE571B5C2
:1001C000F002E572F608A67008A67008A670088509
:1001D00070F022D082D2AFA6F008A67108A67008EF
:1001E0008571F022D082D2AFE571B5F002E572F6EA
:1001F00008A67008A670088571F022D082D2AFA63A
:10020000F008A67008A67008A670088571F022E5AF
:100210002AA24F33F529752A0F8075E52AA24F339C
:10022000A24E33F529752A0D8066E52AA24F33A226
:100230004E33A24D33F529752A0B8054E52954F02D
:10024000C254452AC4F529752A098044E529A250DB
:1002500013A25113A25213F529752A078032E529FA
:10026000A25013A25113F529752A058023E529A26E
:100270005013F529752A03801720579320569C2088
:1002800055A82054B72053C42052D32051DFE5296C
:10029000C46529652AF4F57322C22E78E9302D024F
:1002A00078D18570F0E57323541E11AD85F0738805
:1002B00074228573F0A874E52923541E11AD85F0CE
:1002C000738874228573F0A874E529C423541E1121
:1002D000AD85F0738874228573F0A874E52A2354E1
:1002E0001E11ADA6F008E878E8302D0278D0F6C2ED
:1002F000AF202B05B22DD2AF22D22ED2AF22E52CC9
:10030000B4F00DE52B70097529FF752AFF5179228C
:10031000E52BA26013F529A261132529F529E52C07
:1003200003C2E7F52A03C2E7352AF52A517922C22A
:1003300085C0D0C0E0740FD5E0FDD0E0D0D0D2852C
:10034000C0D0C0E07405D5E0FDD0E0D0D022C28599
:10035000C0D0C0E07405D5E0FDD0E0D0D0D285C0DB
:10036000D0C0E0740FD5E0FDD0E0D0D022C0D0C026
:10037000E0C0F0C2A8C28CD28575A4E0C0D0C0E0B5
:100380007402D5E0FDD0E0D0D075F00830E70471FC
:100390002F8002714E23D5F0F375A4C0D285C0D052
:1003A000C0E07405D5E0FDD0E0D0D0D28C758A00D5
:1003B000758C00C289D2A8D0F0D0E0D0D022202BFA
:1003C0000132C0D0C0E075D01118E8B56F33208578
:1003D0000BD28585708A08D0E0D0D03275A4C0D207
:1003E00085C22B758E0C7589AAC2A9C289C28B756C
:1003F0008A00758C00758200D2A8D2AAD0E0D0D035
:1004000032B285868AD0E0D0D032C0D0C0E0C2CF30
:10041000053DE5626009E5616005756100801B7559
:100420006101E53160021531C3E54E6005754F008D
:100430008008054FE54F7002154FD0E0D0D032C292
:10044000AF53E67F7592FA7593FFC21053917FD236
:10045000AF32758200752600752700752800780078
:1004600075F000E0C0E0C395F0D0F0C3956640029F
:10047000D23B0582E0C0E0C395F0D0F0C395664062
:1004800002D23A0582E0C0E0C395F0D0F0C3956691
:100490004002D2390582E0C0E0C395F0D0F0C395A8
:1004A000664002D2380582E0C0E0C395F0D0F0C3C8
:1004B00095664002D2370582E0C0E0C395F0D0F0E7
:1004C000C395664002D2360582E0C0E0C395F0D005
:1004D000F0C395664002D2350582E0C0E0C395F0D6
:1004E000D0F0C395664002D2340582E0C0E0C395E7
:1004F000F0D0F0C395664002D2330582E0C0E0C37D
:1005000095F0D0F0C395664002D2320582E0C0E09B
:10051000C395F0D0F0C395664002D2310582E0C0A9
:10052000E0C395F0D0F0C395664002D2300582E07A
:10053000C0E0C395F0D0F0C395664002D243058277
:10054000E0C0E0C395F0D0F0C395664002D242050A
:1005500082E0C0E0C395F0D0F0C395664002D2417E
:100560000582E0C0E0C395F0D0F0C395664002D2AA
:10057000400582E526C465266527302701F46528F5
:10058000540F22900000D2A8D2AA0530E5307002A4
:100590001530C3E5309432400A754E00D0F0D0E0FB
:1005A000D0D03275310AD0F0D0E0D0D032C2AFC254
:1005B000A8C28EC0D0C0E0C0F075D010C2CAA8CC0E
:1005C000A9CDD2CAD2AF758A00C3E89569F8E9957A
:1005D0006AF9E970AEE8956B40A9956C50A5E58283
:1005E000B410A09152709C85266D85276ED22C2068
:1005F000270E900000D2A8D2AAD0F0D0E0D0D032FE
:10060000302E04B22DC22E756FD0302D03756FE8D9
:1006100078D0302D0278E8E6C28D758A55758E093E
:100620007589A2D22BD2A9D28575A4E075D011F814
:10063000D0F0D0E0D0D0320483223C78B4F0F0C2C5
:100640002CC2AFA96DE56DC39460FAE56ED2AF948C
:1006500000FB50177B007A00E96010C313500CB503
:100660004C04054D8005F54C754D00302A27C3EA32
:1006700094D0F8EB9407F9400BE8FAE9FB20250940
:10068000D225C189302502C225202902B225C3EA1C
:1006900033FAEB33FBEB2B3B3BF9C3EB13FBEA13D6
:1006A000FAEA29FAEB3400FB30E3047AFF7BFFE53A
:1006B000235403601D201A1AE55D33F9EB7007C35C
:1006C000E99A4002E9FAE5385403D1372AFAEB34C3
:1006D00000FBC3EA33C4540FF8EB33C454F048F8BA
:1006E0007005EA60027801E53060021530D220889A
:1006F0004EE54E6003754F00AC5BC3E55B955C4017
:1007000002AC5CC3EC954E5008EC75F008A4FAAB53
:10071000F08A54535407EB131392D5A2E7F4540113
:10072000F9EA13A2D513F4F8C3E89419FAE994008E
:10073000FB50047A007B00885089518A528B537594
:10074000310A22C0E0E58AF0058285688BD0E0326C
:10075000C2AA85688BD28EC2CA85CC6985CD6AD281
:10076000CA3253E6EF327901801479038010790A96
:10077000800C791E80087964800479C8800078171D
:10078000E4D5E0FDE8C0E0E9C0E0302C02D13FD084
:10079000E0F9D0E0F8D8E9D9E52278FF20182879E7
:1007A000A1E76023E52C601F74FF852CF084853B56
:1007B000F030190375F005A4F8C5F0600278FFC3A6
:1007C000E8955D5002A85D885C22C3E52B94A0E506
:1007D0002C9400E55C5003148001046002F55C2257
:1007E00075E89022055EC3E55E9408405330EDF451
:1007F000A8BDA9BE755E00E9FA79A0E76041EA707C
:1008000006E55F6018800CC3E8955F600EE55F50F9
:1008100005600A1480070460FA8002E55FF55FC393
:100820009565401B755BC0C394044013755B80C322
:100830009404400B755B40C394044003755B002235
:10084000E55B2410500274FFF55B22743279A687B1
:10085000F0A4C5F0A2F733F55D22752B00752CF0DE
:1008600022C2AFC2CAA8CCA9CDAA3D30CF010AD2BC
:10087000CAD2AFC3EA13FAE913F9E813F8AB3EACF6
:100880003F883E893FC3E89BF8E99C20180A547FC3
:10089000F9301C02217E8040AD408A40F9EA9D5427
:1008A0007FFA600678FF79FF8013AE41AF428B413B
:1008B0008C42A83EA93FC3E89EF8E99FF9C3E52C06
:1008C00013FBE52B13FAE82AF52BE93BF52C50082E
:1008D000752BFF752CFF804DAA2BAB2CAC2BAD2CB0
:1008E0007E047F02C3EB9404400D1E1FC3EB9408EB
:1008F00040052019021E1FC3ED13FDEC13FCDEF7AB
:10090000C3EA9CFAEB9DFBEF6009C3E913F9E81316
:10091000F8DFF7EA28FAEB39FB8A2B8B2C50067BA1
:10092000FF8B2B8B2CC3EB94025002D21C3018048B
:100930007F03801C7892E6FFC3E539948240110F53
:10094000C3E53994A040010FC3EF940640027F0530
:100950007E02E52CC4540FF9E52CC454F0F8E52BC5
:10096000C4540F28F8C3E89EFAE99400FB400AC378
:10097000EA9401EB94004001227A01E4FB22AA2BC5
:10098000AB2CEBC4FEEAC4540F4EFCC3EA9CFAEB5A
:100990009400FBC3E813C313F8EA28FAEB3400FB16
:1009A0008A2B8B2CC3EB94024002C21C7802EBC44E
:1009B000FE7B00EAC4540F4EFAC3EA98FA4005C31E
:1009C000940150027A017892E6FF2230100221CB86
:1009D000854892854993D21043E68022C3E49AF871
:1009E000E49BF9C3E833F8E933F9201C6FE8FAE92E
:1009F000FBD3E913FDE813FC88488949C3EF94034E
:100A00006037EF20E00CE82CF8E93DF9ECFAEDFB5B
:100A10008013E828F8E939F9C3E82401F8E934003B
:100A2000F97AFF7BFFC3EF9403400E8A4A8B4B8811
:100A30004489458C468D478057884A894B8A448B28
:100A4000458C468D47301812754AF0754BFF754638
:100A5000F07547FF7548F07549FF8034E8FAD3E830
:100A600013FC8848C3EF94036020EF20E007E82CD4
:100A7000F8ECFA417CE8282401F87AFFC3EF9403EC
:100A800040088A4A88448C468006884A8A448C46B4
:100A90003010024190753602D21043E680E52354AF
:100AA00003602DA82BA92CC3E913F9E813F830181B
:100AB00004E92440F9C2AF53E67F759100C3E4987E
:100AC000F594E499F595759104D21043E680D2AF80
:100AD00022D211754300752000301B037520404160
:100AE000EFD211754300752040301B03752000784C
:100AF000017901201C28E52354036002C2117914F6
:100B0000E52CC313700104F8C39414400278143028
:100B10001804781B791BC3E833F8C3E933F92010B4
:100B200010E543600C301803D53604D21261A2518F
:100B3000980543E59B5440B52002618C30180908A4
:100B4000C3E899400118611E20110A08C3E89940C2
:100B50000241EF611EC21153E67F759100301C11F6
:100B60007594007595F0759104D21043E680020AE1
:100B7000EFE52C7EFFC3334009C3334005C3334048
:100B800001FEC3E49E759400F5956166C3E5359456
:100B900001500241EF30110241EFD80261A0611E05
:100BA000C212C2AF53E67F759100854A94854B957A
:100BB000759104854492854593D21043E680D2AF67
:100BC000E523540360072019020535801030120D0B
:100BD000201B0A2011071581158102152522780096
:100BE0003011027801E53975F007A4F9E5F028F530
:100BF000F0E9A2F013A2F113A2F213F539C394782D
:100C00005003753978C3E539953A4009C290C292CC
:100C1000C29475D57F912830100281178546928540
:100C20004793D21043E68022302C0A12063FE52C6F
:100C300054F870012230270C202B09D575077575E3
:100C4000051202D722E575B404041202FE22B40391
:100C50000412029922B402041202B2221202C42225
:100C6000E55092E075D8008552F98553FA53F77F25
:100C7000F5FB8551FC8552E98553EA43F780F5FB86
:100C80008551FC8552E98553EA75D84022E5569294
:100C9000E075D8008558F98559FA53F77FF5FB853B
:100CA00057FC8558E98559EA43F780F5FB8557FCE1
:100CB0008558E98559EA75D84022D213D55A0405DA
:100CC0005AC213E555455412156AF5555355FEA2FF
:100CD000E020130491608002918D22202813C2AF7E
:100CE000C293C29575D54FD291D2AF91BA759F205C
:100CF00022C2AFC291C29375D57CD295D2AF91BAC0
:100D0000759F2022202813C2AFC293C29575D57358
:100D1000D291D2AF91BA759F3022C2AFC291C29325
:100D200075D573D295D2AF91BA759F102220281332
:100D3000C2AFC291C29375D573D295D2AF91BA7535
:100D40009F1022C2AFC293C29575D573D291D2AF14
:100D500091BA759F3022202813C2AFC291C29375F9
:100D6000D57CD295D2AF91BA759F2022C2AFC293E3
:100D7000C29575D54FD291D2AF91BA759F202220DE
:100D80002813C2AFC291C29575D57CD293D2AF91D0
:100D9000BA759F3022C2AFC291C29575D54FD2931A
:100DA000D2AF91BA759F1022202813C2AFC291C250
:100DB0009575D54FD293D2AF91BA759F1022C2AF1D
:100DC000C291C29575D57CD293D2AF91BA759F303E
:100DD000227A147B7880127A107B8C800C7A0D7BBF
:100DE000B480067A0B7BC88000E560D5E0012279EB
:100DF00002E4C293D5E0FDD292D5E0FDC292D5E0E7
:100E0000FDD293D5E0FDE920E002D29030E002D29D
:100E100094E560D5E0FDE920E002C29030E002C236
:100E2000947496D5E0FDD9C9EAF8D5E0FDD8FBDB8E
:100E3000B8C29322C290C292C294C291C293C29588
:100E400075D57F22788076FF0876FF0876FF0876D2
:100E5000FF0876FF0876FF0876090876FF08760116
:100E6000788C76010876FF0876FF0876FF0876FF13
:100E70000876FF0876030876FF0876FF0876FF08F5
:100E800076250876D0087628087650087604087605
:100E9000FF0876020876FF08767A0876FF0876075C
:100EA0000876010876FF0876FF08760008760022AB
:100EB0007888E6C39403D22A5002C22AC228E630B8
:100EC000E102D228A22892297886E614C2AFC08314
:100ED000C0829000A093D082D083D2AF78A6F6785B
:100EE00086E6F53BC394025003753B02789CE67599
:100EF0003AFFB40203753AA0B40303753A8278A0AE
:100F0000E6F8600674282409D8FCF565D134227807
:100F1000A5E6F95403D2867002C286E9540CD28742
:100F20007002C287E95430D2967002C296E954C06A
:100F3000700022756880756620756B6C756C147511
:100F400070FF7571EC7572DD22756800756640750D
:100F50006BD9756C287570EE7571CD7572AC227495
:100F60001E208515C0D0C0E0740AD5E0FDD0E0D0C9
:100F7000D02085EBD5E0EDC322C0D0C0E0740AD507
:100F8000E0FDD0E0D0D03085D6D5E0EDD3223027BB
:100F90001E1202FE1202991202B21202C41202D7EB
:100FA0001202FE1202991202B21202C41202D722D7
:100FB0007563007564007597DE7597AD7581AF43F5
:100FC000FF8075EF0675A900D13475803F75F1F08B
:100FD00075A4C075803F75D4FF75900075F27F755C
:100FE000A57F75900075D57F75A60175E34075E204
:100FF00002C290C292C294120776D291D293D29535
:10100000120766C291C293C295120E34E47800F6BC
:10101000D8FD120E44D1AC78988660753201C2AF0B
:1010200012077A120DD1120772120DD7120772121F
:101030000DDD120772120F0FC2AF756300756400E9
:1010400078FA79FA308516D9FBD8F775A91375A700
:101050001075C10075A700756200021C0075A7100D
:1010600075C13075A70075A903756201120EB078BD
:10107000988660120E3475C80475910475D8407551
:10108000D90875F781759E03755520755A017558F5
:10109000007559007556FF7557FF75960275DA424F
:1010A00075DB42759B80759D0075D10C75BCB9755B
:1010B000BB1075E88075B201C22C12076675380046
:1010C000C22012077AD224120F5F922775E4D5301E
:1010D000270375E45DC22BC22CC22DC22E75750587
:1010E00012085A758851758E0C7589AA758C007511
:1010F0008D00758E0C75E68075B80375A828120FE3
:1011000049120F8ED2AF753032120776754C0075CA
:101110004D00C3E53094024002013812076A2020D6
:10112000020138E54E60020138C2AF120DD1120D36
:10113000D1120DD1D2AF12077A7563007564001217
:101140000776E54E60020138C2AF120DE3120DE3DF
:10115000120DE3D2AF12077A75320012085A120F3D
:101160008EE4F533F5340533E533F4703F05347818
:101170009AE67819146012783214600D787D146044
:101180000878FA146003753400C3E53498401D12E2
:101190000E34120766153475330078998660C2AF35
:1011A000120DE3D2AF7898866012077612076EE5CB
:1011B0003170020138302C0312063FC3E54E940112
:1011C000500AC3E54C94015016021166120776E5E9
:1011D000317003021038754C00754D00021391C335
:1011E000E54C94017017C2AF120E347899866012E4
:1011F0000DD178988660D2AF1207766183C3E54C33
:1012000094027017C2AF120E3478998660120DD70F
:1012100078988660D2AF1207766183C3E54C940359
:101220007017C2AF120E3478998660120DDD78986F
:101230008660D2AF1207766183C3E54C94047017C1
:10124000C2AF120E3478998660120DE378988660EA
:10125000D2AF1207766183C3E54C94057017C2AF15
:10126000120E3478998660120DE378988660D2AFBA
:101270001207766183C3E54C94077019C3E54D945A
:1012800006500221B57401302A0274037888F6C230
:1012900028C2296183C3E54C94087019C3E54D94B5
:1012A00006500221B57402302A0274047888F6D2FE
:1012B00028D2296183C3E54C94097017C3E54D9486
:1012C00006500221B5302A0BC37888E69402F6C294
:1012D0002A6183C3E54C940A7016C3E54D94065009
:1012E0000221B5202A0A7888E62402F6D22A6183F0
:1012F000C3E54C9414702DC3E54D9406500221B5FE
:101300007400C2AFC083C082901A0B93D082D08386
:10131000D2AF7888F613C228C2294002D2284002F0
:10132000D229805FC3E54C94157040C3E54D940607
:1013300040577400C2AFC083C082901A0B93D08212
:10134000D083D2AFF8B801027402B802027401B8B7
:1013500003027404B8040274037888F613C228C226
:10136000294002D2284002D2298018C3E54C940CAF
:1013700070117563A57564F1C3E54D9406400AD1FB
:10138000F3D2AF754C00754D007563007564002194
:10139000B5120E34755E0075220075230075390094
:1013A000755E081207661207E030EDFDA8BDA9BE04
:1013B000E97001F8885F1207E4755E08C2AF120891
:1013C0004B855D5B855D5CD2AF302A07C228302536
:1013D00002D228D218753500302C0312063F120DA8
:1013E0007F120DA812085A1208611209CB1209DCEB
:1013F00012085A1208611209CB1209DC12085A129B
:101400000AE1120BDE120CDB1208611209CB120981
:10141000DC120AD1201C0312079A301C031207CADF
:10142000120BDE120D041208611209CB1209DC1234
:101430000AE1120BDE120D2D1208611209CB1209FE
:10144000DC120AD1120BDE120D561208611209CB02
:101450001209DC120AE1120BDE120D7F1208611272
:1014600009CB1209DC1207E0120AD1120BDE120DB1
:10147000A81207E41208611209CB1209DC30182700
:10148000855D5B79187A0CC3E53599400EC218D298
:10149000198A37855D5B855D5C800CC3E54E9401E0
:1014A00040030213FFA12D30191F201B1CE5371428
:1014B0007006C219D21A61FFF537202A07C3E54E1C
:1014C000940140030213FF8064753800202A0F78CE
:1014D000FA79A4E760027803C3E54F98504FE531ED
:1014E000604B302A17202805202507800F30250261
:1014F000800A201B07D21B855D5B814178F0301B81
:1015000005855D5B7820C3E52C9850030213FF30FE
:101510001B1BC21BC228302502D228D219753712D4
:10152000855D5B61FF0538E54E6002A130753800CE
:10153000C2AF120E34752300D2AF120776120E34EA
:1015400075220078A4E66006D291D293D295C3E5C5
:1015500038940440020138215B8322010203050C08
:10156000080409050C080D09050C83220102030477
:1015700005060709383028201810081109383028C6
:10158000201810191109383028201821191109388C
:101590003028202921191109383028312921191121
:1015A0000938303931292119110938832201020300
:1015B0000405060708090A0B0C0D0E0F11F0E0D008
:1015C000C0B0A09080706050403020102111F0E039
:1015D000D0C0B0A09080706050403020312111F018
:1015E000E0D0C0B0A09080706050403041312111F7
:1015F000F0E0D0C0B0A090807060504051413121E7
:1016000011F0E0D0C0B0A0908070605061514131C5
:101610002111F0E0D0C0B0A09080706071615141A4
:10162000312111F0E0D0C0B0A09080708171615183
:1016300041312111F0E0D0C0B0A090809181716162
:101640005141312111F0E0D0C0B0A090A191817141
:10165000615141312111F0E0D0C0B0A0B1A1918120
:1016600071615141312111F0E0D0C0B0C1B1A191FF
:101670008171615141312111F0E0D0C0D1C1B1A1DE
:10168000918171615141312111F0E0D0E1D1C1B1BD
:10169000A1918171615141312111F0E0F1E1D1C19C
:1016A000B1A1918171615141312111F0901A0D78F0
:1016B00020F12CE520B4550AA3F12CE520B4AA02B0
:1016C00080137563A57564F1120E44D1F375630040
:1016D000756400801D901A0378807B0AF12CA308A2
:1016E000DBFA901A0F788C7B1AF12CA308DBFA90A6
:1016F0001A2922C2AFF16FF14C901A007410F13127
:10170000A3744EF131A37421F131901A0378807BD8
:101710000AF130A308DBFA901A0F788C7B1AF130AB
:10172000A308DBFAF182F160901A2922E493F622F1
:10173000E6438F01538FFDFFC3E583941C400122D4
:10174000EF8563B78564B7F0538FFE22438F024362
:101750008F018563B78564B7901A0DF0538FFC2213
:10176000901A0D7455F131901A0E74AAF131227A43
:101770003079D07820901A40F12CE520F709A3DACF
:10178000F7227A3079D0901A40E7F13109A3DAF9DB
:10179000227C0512077ADCFB22C2AF120DD1120D9A
:1017A000D7120DDD120DE312076E120DD1120DD7F7
:1017B000120DDD120DE312076E120DD1120DD712AC
:1017C0000DDD120DE3D2AF22C2AF120DE3120DDD1B
:1017D000120DD7120DD112076E120DE3120DDD128C
:1017E0000DD7120DD112076E120DE3120DDD120D81
:0717F000D7120DD1D2AF2288
:1019FD00020FB0104E21FFFFFFFFFFFF09FF01FF98
:101A0D0055AA01FFFFFFFFFF03FFFFFF25D0285061
:0D1A1D0004FF02FF7AFF0701FFFF0000FF3A
:101A400023455F485F32352320202020202020209E
:101A500023424C48454C492445464D3842323123B7
:101A60002020202020202020202020202020202076
:101C0000C2AFC2D37597DE7597AD7581C075A90057
:101C100043FF80752438752503B1DB7529A5752A26
:101C2000F143F12053A4DFD28575D4FF75E3407DE5
:101C3000FA780379E67C10752200752300901DE880
:101C40007B0675249875250130850281482085081A
:101C5000D8FBD9F9DCF781BA308508D8FBD9F9DC93
:101C6000F781BAB19BE493A3C39A6004DDC381BA40
:101C7000DBDBB18D600281317B08E493FAA3B16EA6
:101C8000DBF87A30B16E752200752300B18DEAFC65
:101C9000EBFDC3ED94FE400EB18D8A278B28ED300D
:101CA000E0048A828B83B18D7AC270D8C3ED94FE32
:101CB000601950CEBD0029EC600F7520007521FF22
:101CC000752900752A000200008100A827A92808AC
:101CD00009D804D90281DDB191EAF281D10D81A642
:101CE000C3ED94035051EDA2E092007AC5C3E582A2
:101CF0009400E583941C508C200010438F02438F86
:101D0000018529B7852AB7F0300027A827A9280818
:101D100009438F01538FFDD804D902A132C3E58353
:101D2000941C4003A3A117E28529B7852AB7F0A325
:101D3000A117538FFC81827AC1BD030CE493A3FAEF
:101D4000B152DCF8B14A81828184AA22AB23B16E00
:101D5000EBFAEA6222752608C3E52313F523E52290
:101D600013F52250066323A0632201D526EAB1DBD6
:101D7000B1DB75260AEAF4200102D285300102C2E5
:101D800085B1DBC3134002C201D526EB22B191EA33
:101D9000FB208502A191308502A196752608AE240C
:101DA000AF25C3EF13FFEE13FEB1DFB1DBC3EA13C0
:101DB0003085024480FA30E703632201C3E5231330
:101DC000F523E52213F52250066323A0632201D5F3
:101DD00026D9E52265236523F52222AE24AF250E00
:101DE0000FDEFEDFFCD20122424C48656C693437BD
:061DF0003164E8B20601B7
:00000001FF
