:020000040000FA
:060000000219FD02074396
:03000B000203BE2F
:0300130002075091
:03001B000205AD2E
:03002B0002040AC2
:03005B0002076237
:0300730002043F45
:1000A000080C10182030406080A0C0E0F0C2AFC043
:1000B000829000B57301D501E601FA210E211F21BE
:1000C000332144215B216F2186219421A821B9216C
:1000D000D321E421FBD082D2AFA6F008A67208A6F5
:1000E00070088570F022D082D2AFA6F008A6700802
:1000F000A67108A670088570F022D082D2AFE57193
:10010000B5F002E572F608A672088570F022D0827A
:10011000D2AFA6F008A67008A672088570F022D0AB
:1001200082D2AFA6F008A67108A67008A67008854E
:1001300070F022D082D2AFA6F008A67108A671088E
:100140008570F022D082D2AFE571B5F002E572F68B
:1001500008A67008A671088570F022D082D2AFA6DA
:10016000F008A67008A67008A671088570F022D065
:1001700082D2AFE571B5F002E572F608A67108A665
:1001800070088570F022D082D2AFA6F008A672085F
:100190008571F022D082D2AFE571B5F002E572F63A
:1001A00008A671088571F022D082D2AFA6F008A609
:1001B0007008A671088571F022D082D2AFE571B5C2
:1001C000F002E572F608A67008A67008A670088509
:1001D00070F022D082D2AFA6F008A67108A67008EF
:1001E0008571F022D082D2AFE571B5F002E572F6EA
:1001F00008A67008A670088571F022D082D2AFA63A
:10020000F008A67008A67008A670088571F022E5AF
:100210002AA24F33F529752A0F8075E52AA24F339C
:10022000A24E33F529752A0D8066E52AA24F33A226
:100230004E33A24D33F529752A0B8054E52954F02D
:10024000C254452AC4F529752A098044E529A250DB
:1002500013A25113A25213F529752A078032E529FA
:10026000A25013A25113F529752A058023E529A26E
:100270005013F529752A03801720579320569C2088
:1002800055A82054B72053C42052D32051DFE5296C
:10029000C46529652AF4F57322C22E78E9302D024F
:1002A00078D18570F0E57323541E11AD85F0738805
:1002B00074228573F0A874E52923541E11AD85F0CE
:1002C000738874228573F0A874E529C423541E1121
:1002D000AD85F0738874228573F0A874E52A2354E1
:1002E0001E11ADA6F008E878E8302D0278D0F6C2ED
:1002F000AF202B05B22DD2AF22D22ED2AF22E52CC9
:10030000B4F00DE52B70097529FF752AFF5179228C
:10031000E52BA26013F529A261132529F529E52C07
:1003200003C2E7F52A03C2E7352AF52A517922C22A
:1003300085C0D0C0E0740FD5E0FDD0E0D0D0D2852C
:10034000C0D0C0E07405D5E0FDD0E0D0D022C28599
:10035000C0D0C0E07405D5E0FDD0E0D0D0D285C0DB
:10036000D0C0E0740FD5E0FDD0E0D0D022C0D0C026
:10037000E0C0F0C2A8C28CD28575A420C0D0C0E075
:100380007402D5E0FDD0E0D0D075F00830E70471FC
:100390002F8002714E23D5F0F375A400D285C0D012
:1003A000C0E07405D5E0FDD0E0D0D0D28C758A00D5
:1003B000758C00C289D2A8D0F0D0E0D0D022202BFA
:1003C0000132C0D0C0E075D01118E8B56F33208578
:1003D0000BD28585708A08D0E0D0D03275A400D2C7
:1003E00085C22B758E0C7589AAC2A9C289C28B756C
:1003F0008A00758C00758200D2A8D2AAD0E0D0D035
:1004000032B285868AD0E0D0D032C0D0C0E0C2CF30
:10041000053DE5626009E5616005756100801B7559
:100420006101E53160021531C3E54E6005754F008D
:100430008008054FE54F7002154FD0E0D0D032C292
:10044000AF53E67F7592FA7593FFC21053917FD236
:10045000AF32758200752600752700752800780078
:1004600075F000E0C0E0C395F0D0F0C3956640029F
:10047000D23B0582E0C0E0C395F0D0F0C395664062
:1004800002D23A0582E0C0E0C395F0D0F0C3956691
:100490004002D2390582E0C0E0C395F0D0F0C395A8
:1004A000664002D2380582E0C0E0C395F0D0F0C3C8
:1004B00095664002D2370582E0C0E0C395F0D0F0E7
:1004C000C395664002D2360582E0C0E0C395F0D005
:1004D000F0C395664002D2350582E0C0E0C395F0D6
:1004E000D0F0C395664002D2340582E0C0E0C395E7
:1004F000F0D0F0C395664002D2330582E0C0E0C37D
:1005000095F0D0F0C395664002D2320582E0C0E09B
:10051000C395F0D0F0C395664002D2310582E0C0A9
:10052000E0C395F0D0F0C395664002D2300582E07A
:10053000C0E0C395F0D0F0C395664002D243058277
:10054000E0C0E0C395F0D0F0C395664002D242050A
:1005500082E0C0E0C395F0D0F0C395664002D2417E
:100560000582E0C0E0C395F0D0F0C395664002D2AA
:10057000400582E526C465266527302701F46528F5
:10058000540F22900000D2A8D2AA0530E5307002A4
:100590001530C3E5309432400A754E00D0F0D0E0FB
:1005A000D0D03275310AD0F0D0E0D0D032C2AFC254
:1005B000A8C28EC0D0C0E0C0F075D010C2CAA8CC0E
:1005C000A9CDD2CAD2AF758A00C3E89569F8E9957A
:1005D0006AF9E970AEE8956B40A9956C50A5E58283
:1005E000B410A09152709C85266D85276ED22C2068
:1005F000270E900000D2A8D2AAD0F0D0E0D0D032FE
:10060000302E04B22DC22E756FD0302D03756FE8D9
:1006100078D0302D0278E8E6C28D758A55758E093E
:100620007589A2D22BD2A9D28575A42075D011F8D4
:10063000D0F0D0E0D0D0320483223C78B4F0F0C2C5
:100640002CC2AFA96DE56DC39460FAE56ED2AF948C
:1006500000FB50177B007A00E96010C313500CB503
:100660004C04054D8005F54C754D00302A27C3EA32
:1006700094D0F8EB9407F9400BE8FAE9FB20250940
:10068000D225C189302502C225202902B225C3EA1C
:1006900033FAEB33FBEB2B3B3BF9C3EB13FBEA13D6
:1006A000FAEA29FAEB3400FB30E3047AFF7BFFE53A
:1006B000235403601D201A1AE55D33F9EB7007C35C
:1006C000E99A4002E9FAE5385403D1372AFAEB34C3
:1006D00000FBC3EA33C4540FF8EB33C454F048F8BA
:1006E0007005EA60027801E53060021530D220889A
:1006F0004EE54E6003754F00AC5BC3E55B955C4017
:1007000002AC5CC3EC954E5008EC75F008A4FAAB53
:10071000F08A54535407EB131392D5A2E7F4540113
:10072000F9EA13A2D513F4F8C3E89414FAE9940093
:10073000FB50047A007B00885089518A528B537594
:10074000310A22C0E0E58AF0058285688BD0E0326C
:10075000C2AA85688BD28EC2CA85CC6985CD6AD281
:10076000CA3253E6EF327901801479038010790A96
:10077000800C791E80087964800479C8800078171D
:10078000E4D5E0FDE8C0E0E9C0E0302C02D13FD084
:10079000E0F9D0E0F8D8E9D9E52278FF20182879E7
:1007A000A1E76023E52C601F74FF852CF084853B56
:1007B000F030190375F005A4F8C5F0600278FFC3A6
:1007C000E8955D5002A85D885C22C3E52B94A0E506
:1007D0002C9400E55C5003148001046002F55C2257
:1007E00075E89022055EC3E55E9408405330EDF451
:1007F000A8BDA9BE755E00E9FA79A0E76041EA707C
:1008000006E55F6018800CC3E8955F600EE55F50F9
:1008100005600A1480070460FA8002E55FF55FC393
:100820009565401B755BC0C394044013755B80C322
:100830009404400B755B40C394044003755B002235
:10084000E55B2410500274FFF55B22743279A687B1
:10085000F0A4C5F0A2F733F55D22752B00752CF0DE
:1008600022C2AFC2CAA8CCA9CDAA3D30CF010AD2BC
:10087000CAD2AFC3EA13FAE913F9E813F8AB3EACF6
:100880003F883E893FC3E89BF8E99C20180A547FC3
:10089000F9301C02217E8040AD408A40F9EA9D5427
:1008A0007FFA600678FF79FF8013AE41AF428B413B
:1008B0008C42A83EA93FC3E89EF8E99FF9C3E52C06
:1008C00013FBE52B13FAE82AF52BE93BF52C50082E
:1008D000752BFF752CFF804DAA2BAB2CAC2BAD2CB0
:1008E0007E047F02C3EB9404400D1E1FC3EB9408EB
:1008F00040052019021E1FC3ED13FDEC13FCDEF7AB
:10090000C3EA9CFAEB9DFBEF6009C3E913F9E81316
:10091000F8DFF7EA28FAEB39FB8A2B8B2C50067BA1
:10092000FF8B2B8B2CC3EB94025002D21C3018048B
:100930007F03801C7892E6FFC3E539948240110F53
:10094000C3E53994A040010FC3EF940640027F0530
:100950007E02E52CC4540FF9E52CC454F0F8E52BC5
:10096000C4540F28F8C3E89EFAE99400FB400AC378
:10097000EA9401EB94004001227A01E4FB22AA2BC5
:10098000AB2CEBC4FEEAC4540F4EFCC3EA9CFAEB5A
:100990009400FBC3E813C313F8EA28FAEB3400FB16
:1009A0008A2B8B2CC3EB94024002C21C7802EBC44E
:1009B000FE7B00EAC4540F4EFAC3EA98FA4005C31E
:1009C000940150027A017892E6FF2230100221CB86
:1009D000854892854993D21043E68022C3E49AF871
:1009E000E49BF9C3E833F8E933F9201C6FE8FAE92E
:1009F000FBD3E913FDE813FC88488949C3EF94034E
:100A00006037EF20E00CE82CF8E93DF9ECFAEDFB5B
:100A10008013E828F8E939F9C3E82401F8E934003B
:100A2000F97AFF7BFFC3EF9403400E8A4A8B4B8811
:100A30004489458C468D478057884A894B8A448B28
:100A4000458C468D47301812754AF0754BFF754638
:100A5000F07547FF7548F07549FF8034E8FAD3E830
:100A600013FC8848C3EF94036020EF20E007E82CD4
:100A7000F8ECFA417CE8282401F87AFFC3EF9403EC
:100A800040088A4A88448C468006884A8A448C46B4
:100A90003010024190753602D21043E680E52354AF
:100AA00003602DA82BA92CC3E913F9E813F830181B
:100AB00004E92440F9C2AF53E67F759100C3E4987E
:100AC000F594E499F595759104D21043E680D2AF80
:100AD00022D211754300752000301B037520404160
:100AE000EFD211754300752040301B03752000784C
:100AF000017901201C28E52354036002C2117914F6
:100B0000E52CC313700104F8C39414400278143028
:100B10001804781B791BC3E833F8C3E933F92010B4
:100B200010E543600C301803D53604D21261A3518E
:100B3000980543E59BF45440B52002618D301809B7
:100B400008C3E899400118611E20110A08C3E899FA
:100B5000400241EF611EC21153E67F759100301CC7
:100B6000117594007595F0759104D21043E68002DA
:100B70000AEFE52C7EFFC3334009C3334005C3337E
:100B80004001FEC3E49E759400F5956167C3E535A9
:100B90009401500241EF30110241EFD80261A1618E
:100BA0001EC212C2AF53E67F759100854A94854BF1
:100BB00095759104854492854593D21043E680D281
:100BC000AFE5235403600720190205358010301269
:100BD0000D201B0A201107158115810215012278AD
:100BE000003011027801E53975F007A4F9E5F02825
:100BF000F5F0E9A2F013A2F113A2F213F539C394B0
:100C0000785003753978C3E539953A4009C290C2E6
:100C100092C29475D53F9129301002811885469271
:100C2000854793D21043E68022302C0A12063FE516
:100C30002C54F870012230270C202B09D57507752C
:100C400075051202D722E575B404041202FE22B41F
:100C5000030412029922B402041202B2221202C444
:100C600022E55092E075D8008552F98553FA53F782
:100C70007FF5FB8551FC8552E98553EA43F780F502
:100C8000FB8551FC8552E98553EA75D84022E5562B
:100C900092E075D8008558F98559FA53F77FF5FB2E
:100CA0008557FC8558E98559EA43F780F5FB855758
:100CB000FC8558E98559EA75D84022D213D55A04E3
:100CC000055AC213E5554554121546F5555355FEC0
:100CD000A2E020130491618002918E22202813C289
:100CE000AFD293D29575D50FC291D2AF91BB759FFC
:100CF0000322C2AFD291D29375D53CC295D2AF91A7
:100D0000BB759F0322202813C2AFD293D29575D50D
:100D100033C291D2AF91BB759F1322C2AFD291D291
:100D20009375D533C295D2AF91BB759F23222028EE
:100D300013C2AFD291D29375D533C295D2AF91BBC6
:100D4000759F2322C2AFD293D29575D533C291D26B
:100D5000AF91BB759F1322202813C2AFD291D293BB
:100D600075D53CC295D2AF91BB759F0322C2AFD25D
:100D700093D29575D50FC291D2AF91BB759F0322C7
:100D8000202813C2AFD291D29575D53CC293D2AF71
:100D900091BB759F1322C2AFD291D29575D50FC268
:100DA00093D2AF91BB759F2322202813C2AFD2915B
:100DB000D29575D50FC293D2AF91BB759F2322C236
:100DC000AFD291D29575D53CC293D2AF91BB759FEE
:100DD00013227A147B7880127A107B8C800C7A0D27
:100DE0007BB480067A0B7BC88000E560D5E00122E9
:100DF0007902E4D293D5E0FDD292D5E0FDC292D53E
:100E0000E0FDC293D5E0FDE920E002D29030E0029F
:100E1000D294E560D5E0FDE920E002C29030E00226
:100E2000C2947496D5E0FDD9C9EAF8D5E0FDD8FBA7
:100E3000DBB8D29322C290C292C294D291D293D202
:100E40009575D53F22788076FF0876FF0876FF08F3
:100E500076FF0876FF0876FF0876090876FF0876A1
:100E600001788C76010876FF0876FF0876FF087611
:100E7000FF0876FF0876030876FF0876FF0876FFFE
:100E80000876250876D00876280876500876040873
:100E900076FF0876020876FF08767A0876FF0876ED
:100EA000070876010876FF0876FF087600087600C6
:100EB000227888E6C39403D22A5002C22AC228E6C6
:100EC00030E102D228A22892297886E614C2AFC067
:100ED00083C0829000A093D082D083D2AF78A6F650
:100EE0007886E6F53BC394025003753B02789CE696
:100EF000753AFFB40203753AA0B40303753A8278D9
:100F0000A0E6F8600674282409D8FCF565D13522DE
:100F100078A5E6F954037000E9540C7000E95430E8
:100F20007000E954C0700022756880756620756B8A
:100F30006C756C147570FF7571EC7572DD227568D7
:100F400000756640756BD9756C287570EE7571CD3E
:100F50007572AC22741E208515C0D0C0E0740AD50D
:100F6000E0FDD0E0D0D02085EBD5E0EDC322C0D0AD
:100F7000C0E0740AD5E0FDD0E0D0D03085D6D5E011
:100F8000EDD32230271E1202FE1202991202B21273
:100F900002C41202D71202FE1202991202B2120207
:100FA000C41202D7227563007564007597DE7597C9
:100FB000AD7581AF43FF8075EF0675A900D135751A
:100FC00080FF75F1F075A4007580FF75D4FF7590F2
:100FD0002A75F23F75A53F75902A75D53F75A60114
:100FE00075E34075E202D135E47800F6D8FDD145CD
:100FF00012168878988660753201C2AF12077A128D
:101000000DD2120772120DD8120772120DDE1207DE
:1010100072120F10C2AF75630075640078FA79FA26
:10102000308516D9FBD8F775A91375A71075C100BF
:1010300075A700756200021C0075A71075C1307598
:10104000A70075A903756201120EB1789886601227
:101050000E3575C80475910475D84075D90875F7B3
:1010600081759E03755520755A0175580075590094
:101070007556FF7557FF75960075DA4275DB427538
:101080009B80759D0075D10C75BCB975BB1075E85A
:101090008075B201C22C120766753800C220120793
:1010A0007AD224120F54922775E4D530270375E4C1
:1010B0005DC22BC22CC22DC22E75750512085A7541
:1010C0008851758E0C7589AA758C00758D00758E8A
:1010D0000C75E68075B80375A828120F3E120F83B1
:1010E000D2AF753032120776754C00754D00C3E5EE
:1010F0003094024002011412076A2020020114E514
:101100004E60020114C2AF120DD2120DD2120DD2D6
:10111000D2AF12077A756300756400120776E54E48
:1011200060020114C2AF120DE4120DE4120DE4D2FC
:10113000AF12077A75320012085A120F83E4F533A2
:10114000F5340533E533F4703F0534789AE67819C1
:10115000146012783214600D787D14600878FA14E7
:101160006003753400C3E53498401D120E35120734
:1011700066153475330078998660C2AF120DE4D2DB
:10118000AF7898866012077612076EE5317002011B
:1011900014302C0312063FC3E54E9401500AC3E5F8
:1011A0004C94015016021142120776E53170030289
:1011B0001014754C00754D0002136DC3E54C94017D
:1011C0007017C2AF120E3578998660120DD27898DA
:1011D0008660D2AF120776615FC3E54C9402701748
:1011E000C2AF120E3578998660120DD87898866055
:1011F000D2AF120776615FC3E54C94037017C2AF9C
:10120000120E3578998660120DDE78988660D2AF1E
:10121000120776615FC3E54C94047017C2AF120EDB
:101220003578998660120DE478988660D2AF1207FF
:1012300076615FC3E54C94057017C2AF120E357826
:10124000998660120DE478988660D2AF12077661B5
:101250005FC3E54C94077019C3E54D940650022115
:10126000917401302A0274037888F6C228C2296179
:101270005FC3E54C94087019C3E54D9406500221F4
:10128000917402302A0274047888F6D228D2296137
:101290005FC3E54C94097017C3E54D9406500221D5
:1012A00091302A0BC37888E69402F6C22A615FC3A4
:1012B000E54C940A7016C3E54D9406500221912026
:1012C0002A0A7888E62402F6D22A615FC3E54C94A4
:1012D00014702DC3E54D9406500221917400C2AFE5
:1012E000C083C082901A0B93D082D083D2AF78880B
:1012F000F613C228C2294002D2284002D229805FB8
:10130000C3E54C94157040C3E54D940640577400F6
:10131000C2AFC083C082901A0B93D082D083D2AF69
:10132000F8B801027402B802027401B8030274042E
:10133000B8040274037888F613C228C2294002D286
:10134000284002D2298018C3E54C940C70117563B3
:10135000A57564F1C3E54D9406400AD1CFD2AF75AF
:101360004C00754D007563007564002191120E35B7
:10137000755E00752200752300753900755E0812D0
:1013800007661207E030EDFDA8BDA9BEE97001F8BF
:10139000885F1207E4755E08C2AF12084B855D5B7B
:1013A000855D5CD2AF302A07C228302502D228D210
:1013B00018753500302C0312063F120D80120DA94E
:1013C00012085A1208611209CB1209DC12085A12CB
:1013D00008611209CB1209DC12085A120AE1120B39
:1013E000DF120CDC1208611209CB1209DC120AD1DF
:1013F000201C0312079A301C031207CA120BDF12BB
:101400000D051208611209CB1209DC120AE1120B58
:10141000DF120D2E1208611209CB1209DC120AD15B
:10142000120BDF120D571208611209CB1209DC12E0
:101430000AE1120BDF120D801208611209CB1209AA
:10144000DC1207E0120AD1120BDF120DA91207E419
:101450001208611209CB1209DC301827855D5B790F
:10146000187A0CC3E53599400EC218D2198A37850F
:101470005D5B855D5C800CC3E54E94014003021307
:10148000DBA10930191F201B1CE537147006C21997
:10149000D21A61DBF537202A07C3E54E94014003D9
:1014A0000213DB8064753800202A0F78FA79A4E7EC
:1014B00060027803C3E54F98504FE531604B302A06
:1014C00017202805202507800F302502800A201BC1
:1014D00007D21B855D5B811D78F0301B05855D5B48
:1014E0007820C3E52C9850030213DB301B1BC21B72
:1014F000C228302502D228D219753712855D5B616A
:10150000DB0538E54E6002A10C753800C2AF120E43
:1015100035752300D2AF120776120E35752200788A
:10152000A4E66006C291C293C295C3E53894044014
:1015300002011421378322010203050C0804090566
:101540000C080D09050C8322010203040506070996
:1015500038302820181008110938302820181019A0
:10156000110938302820182119110938302820296C
:101570002119110938302831292119110938303938
:1015800031292119110938832201020304050607B4
:1015900008090A0B0C0D0E0F11F0E0D0C0B0A0909E
:1015A00080706050403020102111F0E0D0C0B0A019
:1015B0009080706050403020312111F0E0D0C0B0F8
:1015C000A09080706050403041312111F0E0D0C0D7
:1015D000B0A09080706050405141312111F0E0D0B6
:1015E000C0B0A09080706050615141312111F0E095
:1015F000D0C0B0A09080706071615141312111F074
:10160000E0D0C0B0A0908070817161514131211152
:10161000F0E0D0C0B0A09080918171615141312142
:1016200011F0E0D0C0B0A090A19181716151413121
:101630002111F0E0D0C0B0A0B1A191817161514100
:10164000312111F0E0D0C0B0C1B1A19181716151DF
:1016500041312111F0E0D0C0D1C1B1A191817161BE
:101660005141312111F0E0D0E1D1C1B1A19181719D
:10167000615141312111F0E0F1E1D1C1B1A191817C
:1016800071615141312111F0901A0D7820F108E576
:1016900020B4550AA3F108E520B4AA0280137563AB
:1016A000A57564F1120E45D1CF7563007564008095
:1016B0001D901A0378807B0AF108A308DBFA901AC0
:1016C0000F788C7B1AF108A308DBFA901A2922C242
:1016D000AFF14BF128901A007410F10DA3744EF184
:1016E0000DA37421F10D901A0378807B0AF10CA3ED
:1016F00008DBFA901A0F788C7B1AF10CA308DBFA3E
:10170000F15EF13C901A2922E493F622E6438F0120
:10171000538FFDFFC3E583941C400122EF8563B71F
:101720008564B7F0538FFE22438F02438F01856398
:10173000B78564B7901A0DF0538FFC22901A0D7480
:1017400055F10D901A0E74AAF10D227A3079D078E5
:1017500020901A40F108E520F709A3DAF7227A3041
:1017600079D0901A40E7F10D09A3DAF9227C05122D
:10177000077ADCFB22C2AF120DD2120DD8120DDE99
:10178000120DE412076E120DD2120DD8120DDE12D8
:101790000DE412076E120DD2120DD8120DDE120DCD
:1017A000E4D2AF22C2AF120DE4120DDE120DD81238
:1017B0000DD212076E120DE4120DDE120DD8120DAD
:1017C000D212076E120DE4120DDE120DD8120DD2D8
:0317D000D2AF2273
:1019FD00020FA5104E21FFFFFFFFFFFF09FF01FFA3
:101A0D0055AA01FFFFFFFFFF03FFFFFF25D0285061
:0D1A1D0004FF02FF7AFF0701FFFF0000FF3A
:101A4000234F5F485F323023202020202020202099
:101A500023424C48454C492445464D3842323123B7
:101A60002020202020202020202020202020202076
:101C0000C2AFC2D37597DE7597AD7581C075A90057
:101C100043FF80752438752503B1DB7529A5752A26
:101C2000F143F12053A4DFD28575D4FF75E3407DE5
:101C3000FA780379E67C10752200752300901DE880
:101C40007B0675249875250130850281482085081A
:101C5000D8FBD9F9DCF781BA308508D8FBD9F9DC93
:101C6000F781BAB19BE493A3C39A6004DDC381BA40
:101C7000DBDBB18D600281317B08E493FAA3B16EA6
:101C8000DBF87A30B16E752200752300B18DEAFC65
:101C9000EBFDC3ED94FE400EB18D8A278B28ED300D
:101CA000E0048A828B83B18D7AC270D8C3ED94FE32
:101CB000601950CEBD0029EC600F7520007521FF22
:101CC000752900752A000200008100A827A92808AC
:101CD00009D804D90281DDB191EAF281D10D81A642
:101CE000C3ED94035051EDA2E092007AC5C3E582A2
:101CF0009400E583941C508C200010438F02438F86
:101D0000018529B7852AB7F0300027A827A9280818
:101D100009438F01538FFDD804D902A132C3E58353
:101D2000941C4003A3A117E28529B7852AB7F0A325
:101D3000A117538FFC81827AC1BD030CE493A3FAEF
:101D4000B152DCF8B14A81828184AA22AB23B16E00
:101D5000EBFAEA6222752608C3E52313F523E52290
:101D600013F52250066323A0632201D526EAB1DBD6
:101D7000B1DB75260AEAF4200102D285300102C2E5
:101D800085B1DBC3134002C201D526EB22B191EA33
:101D9000FB208502A191308502A196752608AE240C
:101DA000AF25C3EF13FFEE13FEB1DFB1DBC3EA13C0
:101DB0003085024480FA30E703632201C3E5231330
:101DC000F523E52213F52250066323A0632201D5F3
:101DD00026D9E52265236523F52222AE24AF250E00
:101DE0000FDEFEDFFCD20122424C48656C693437BD
:061DF0003164E8B20601B7
:00000001FF
