:020000040000FA
:060000000219FD02074396
:03000B000203BE2F
:0300130002075091
:03001B000205AD2E
:03002B0002040AC2
:03005B0002076237
:0300730002043F45
:1000A000080C10182030406080A0C0E0F0C2AFC043
:1000B000829000B57301D501E601FA210E211F21BE
:1000C000332144215B216F2186219421A821B9216C
:1000D000D321E421FBD082D2AFA6F008A67208A6F5
:1000E00070088570F022D082D2AFA6F008A6700802
:1000F000A67108A670088570F022D082D2AFE57193
:10010000B5F002E572F608A672088570F022D0827A
:10011000D2AFA6F008A67008A672088570F022D0AB
:1001200082D2AFA6F008A67108A67008A67008854E
:1001300070F022D082D2AFA6F008A67108A671088E
:100140008570F022D082D2AFE571B5F002E572F68B
:1001500008A67008A671088570F022D082D2AFA6DA
:10016000F008A67008A67008A671088570F022D065
:1001700082D2AFE571B5F002E572F608A67108A665
:1001800070088570F022D082D2AFA6F008A672085F
:100190008571F022D082D2AFE571B5F002E572F63A
:1001A00008A671088571F022D082D2AFA6F008A609
:1001B0007008A671088571F022D082D2AFE571B5C2
:1001C000F002E572F608A67008A67008A670088509
:1001D00070F022D082D2AFA6F008A67108A67008EF
:1001E0008571F022D082D2AFE571B5F002E572F6EA
:1001F00008A67008A670088571F022D082D2AFA63A
:10020000F008A67008A67008A670088571F022E5AF
:100210002AA24F33F529752A0F8075E52AA24F339C
:10022000A24E33F529752A0D8066E52AA24F33A226
:100230004E33A24D33F529752A0B8054E52954F02D
:10024000C254452AC4F529752A098044E529A250DB
:1002500013A25113A25213F529752A078032E529FA
:10026000A25013A25113F529752A058023E529A26E
:100270005013F529752A03801720579320569C2088
:1002800055A82054B72053C42052D32051DFE5296C
:10029000C46529652AF4F57322C22E78E9302D024F
:1002A00078D18570F0E57323541E11AD85F0738805
:1002B00074228573F0A874E52923541E11AD85F0CE
:1002C000738874228573F0A874E529C423541E1121
:1002D000AD85F0738874228573F0A874E52A2354E1
:1002E0001E11ADA6F008E878E8302D0278D0F6C2ED
:1002F000AF202B05B22DD2AF22D22ED2AF22E52CC9
:10030000B4F00DE52B70097529FF752AFF5179228C
:10031000E52BA26013F529A261132529F529E52C07
:1003200003C2E7F52A03C2E7352AF52A517922C22A
:1003300087C0D0C0E0740FD5E0FDD0E0D0D0D28728
:10034000C0D0C0E07405D5E0FDD0E0D0D022C28797
:10035000C0D0C0E07405D5E0FDD0E0D0D0D287C0D9
:10036000D0C0E0740FD5E0FDD0E0D0D022C0D0C026
:10037000E0C0F0C2A8C28CD28775A480C0D0C0E013
:100380007402D5E0FDD0E0D0D075F00830E70471FC
:100390002F8002714E23D5F0F375A400D287C0D010
:1003A000C0E07405D5E0FDD0E0D0D0D28C758A00D5
:1003B000758C00C289D2A8D0F0D0E0D0D022202BFA
:1003C0000132C0D0C0E075D01118E8B56F33208776
:1003D0000BD28785708A08D0E0D0D03275A400D2C5
:1003E00087C22B758E0C7589AAC2A9C289C28B756A
:1003F0008A00758C00758200D2A8D2AAD0E0D0D035
:1004000032B287868AD0E0D0D032C0D0C0E0C2CF2E
:10041000053DE5626009E5616005756100801B7559
:100420006101E53160021531C3E54E6005754F008D
:100430008008054FE54F7002154FD0E0D0D032C292
:10044000AF53E67F7592FA7593FFC21053917FD236
:10045000AF32758200752600752700752800780078
:1004600075F000E0C0E0C395F0D0F0C3956640029F
:10047000D23B0582E0C0E0C395F0D0F0C395664062
:1004800002D23A0582E0C0E0C395F0D0F0C3956691
:100490004002D2390582E0C0E0C395F0D0F0C395A8
:1004A000664002D2380582E0C0E0C395F0D0F0C3C8
:1004B00095664002D2370582E0C0E0C395F0D0F0E7
:1004C000C395664002D2360582E0C0E0C395F0D005
:1004D000F0C395664002D2350582E0C0E0C395F0D6
:1004E000D0F0C395664002D2340582E0C0E0C395E7
:1004F000F0D0F0C395664002D2330582E0C0E0C37D
:1005000095F0D0F0C395664002D2320582E0C0E09B
:10051000C395F0D0F0C395664002D2310582E0C0A9
:10052000E0C395F0D0F0C395664002D2300582E07A
:10053000C0E0C395F0D0F0C395664002D243058277
:10054000E0C0E0C395F0D0F0C395664002D242050A
:1005500082E0C0E0C395F0D0F0C395664002D2417E
:100560000582E0C0E0C395F0D0F0C395664002D2AA
:10057000400582E526C465266527302701F46528F5
:10058000540F22900000D2A8D2AA0530E5307002A4
:100590001530C3E5309432400A754E00D0F0D0E0FB
:1005A000D0D03275310AD0F0D0E0D0D032C2AFC254
:1005B000A8C28EC0D0C0E0C0F075D010C2CAA8CC0E
:1005C000A9CDD2CAD2AF758A00C3E89569F8E9957A
:1005D0006AF9E970AEE8956B40A9956C50A5E58283
:1005E000B410A09152709C85266D85276ED22C2068
:1005F000270E900000D2A8D2AAD0F0D0E0D0D032FE
:10060000302E04B22DC22E756FD0302D03756FE8D9
:1006100078D0302D0278E8E6C28D758A55758E093E
:100620007589A2D22BD2A9D28775A48075D011F872
:10063000D0F0D0E0D0D0320483223C78B4F0F0C2C5
:100640002CC2AFA96DE56DC39460FAE56ED2AF948C
:1006500000FB50177B007A00E96010C313500CB503
:100660004C04054D8005F54C754D00302A27C3EA32
:1006700094D0F8EB9407F9400BE8FAE9FB20250940
:10068000D225C189302502C225202902B225C3EA1C
:1006900033FAEB33FBEB2B3B3BF9C3EB13FBEA13D6
:1006A000FAEA29FAEB3400FB30E3047AFF7BFFE53A
:1006B000235403601D201A1AE55D33F9EB7007C35C
:1006C000E99A4002E9FAE5385403D1372AFAEB34C3
:1006D00000FBC3EA33C4540FF8EB33C454F048F8BA
:1006E0007005EA60027801E53060021530D220889A
:1006F0004EE54E6003754F00AC5BC3E55B955C4017
:1007000002AC5CC3EC954E5008EC75F008A4FAAB53
:10071000F08A54535407EB131392D5A2E7F4540113
:10072000F9EA13A2D513F4F8C3E8940FFAE9940098
:10073000FB50047A007B00885089518A528B537594
:10074000310A22C0E0E58AF0058285688BD0E0326C
:10075000C2AA85688BD28EC2CA85CC6985CD6AD281
:10076000CA3253E6EF327901801479038010790A96
:10077000800C791E80087964800479C8800078171D
:10078000E4D5E0FDE8C0E0E9C0E0302C02D13FD084
:10079000E0F9D0E0F8D8E9D9E52278FF20182879E7
:1007A000A1E76023E52C601F74FF852CF084853B56
:1007B000F030190375F005A4F8C5F0600278FFC3A6
:1007C000E8955D5002A85D885C22C3E52B94A0E506
:1007D0002C9400E55C5003148001046002F55C2257
:1007E00075E89022055EC3E55E9408405330EDF451
:1007F000A8BDA9BE755E00E9FA79A0E76041EA707C
:1008000006E55F6018800CC3E8955F600EE55F50F9
:1008100005600A1480070460FA8002E55FF55FC393
:100820009565401B755BC0C394044013755B80C322
:100830009404400B755B40C394044003755B002235
:10084000E55B2410500274FFF55B22743279A687B1
:10085000F0A4C5F0A2F733F55D22752B00752CF0DE
:1008600022C2AFC2CAA8CCA9CDAA3D30CF010AD2BC
:10087000CAD2AFC3EA13FAE913F9E813F8AB3EACF6
:100880003F883E893FC3E89BF8E99C20180A547FC3
:10089000F9301C02217E8040AD408A40F9EA9D5427
:1008A0007FFA600678FF79FF8013AE41AF428B413B
:1008B0008C42A83EA93FC3E89EF8E99FF9C3E52C06
:1008C00013FBE52B13FAE82AF52BE93BF52C50082E
:1008D000752BFF752CFF804DAA2BAB2CAC2BAD2CB0
:1008E0007E047F02C3EB9404400D1E1FC3EB9408EB
:1008F00040052019021E1FC3ED13FDEC13FCDEF7AB
:10090000C3EA9CFAEB9DFBEF6009C3E913F9E81316
:10091000F8DFF7EA28FAEB39FB8A2B8B2C50067BA1
:10092000FF8B2B8B2CC3EB94025002D21C3018048B
:100930007F03801C7892E6FFC3E539948240110F53
:10094000C3E53994A040010FC3EF940640027F0530
:100950007E02E52CC4540FF9E52CC454F0F8E52BC5
:10096000C4540F28F8C3E89EFAE99400FB400AC378
:10097000EA9401EB94004001227A01E4FB22AA2BC5
:10098000AB2CEBC4FEEAC4540F4EFCC3EA9CFAEB5A
:100990009400FBC3E813C313F8EA28FAEB3400FB16
:1009A0008A2B8B2CC3EB94024002C21C7802EBC44E
:1009B000FE7B00EAC4540F4EFAC3EA98FA4005C31E
:1009C000940150027A017892E6FF2230100221CB86
:1009D000854892854993D21043E68022C3E49AF871
:1009E000E49BF9C3E833F8E933F9201C6FE8FAE92E
:1009F000FBD3E913FDE813FC88488949C3EF94034E
:100A00006037EF20E00CE82CF8E93DF9ECFAEDFB5B
:100A10008013E828F8E939F9C3E82401F8E934003B
:100A2000F97AFF7BFFC3EF9403400E8A4A8B4B8811
:100A30004489458C468D478057884A894B8A448B28
:100A4000458C468D47301812754AF0754BFF754638
:100A5000F07547FF7548F07549FF8034E8FAD3E830
:100A600013FC8848C3EF94036020EF20E007E82CD4
:100A7000F8ECFA417CE8282401F87AFFC3EF9403EC
:100A800040088A4A88448C468006884A8A448C46B4
:100A90003010024190753602D21043E680E52354AF
:100AA00003602DA82BA92CC3E913F9E813F830181B
:100AB00004E92440F9C2AF53E67F759100C3E4987E
:100AC000F594E499F595759104D21043E680D2AF80
:100AD00022D211754300752000301B037520404160
:100AE000EFD211754300752040301B03752000784C
:100AF000017901201C28E52354036002C2117914F6
:100B0000E52CC313700104F8C39414400278143028
:100B10001804781B791BC3E833F8C3E933F92010B4
:100B200010E543600C301803D53604D21261A2518F
:100B3000980543E59B5440B52002618C30180908A4
:100B4000C3E899400118611E20110A08C3E89940C2
:100B50000241EF611EC21153E67F759100301C11F6
:100B60007594007595F0759104D21043E680020AE1
:100B7000EFE52C7EFFC3334009C3334005C3334048
:100B800001FEC3E49E759400F5956166C3E5359456
:100B900001500241EF30110241EFD80261A0611E05
:100BA000C212C2AF53E67F759100854A94854B957A
:100BB000759104854492854593D21043E680D2AF67
:100BC000E523540360072019020535801030120D0B
:100BD000201B0A20110715811581021500227800BB
:100BE0003011027801E53975F007A4F9E5F028F530
:100BF000F0E9A2F013A2F113A2F213F539C394782D
:100C00005003753978C3E539953A4009C293C294C7
:100C1000C29575D53F91283010028117854692857F
:100C20004793D21043E68022302C0A12063FE52C6F
:100C300054F870012230270C202B09D575077575E3
:100C4000051202D722E575B404041202FE22B40391
:100C50000412029922B402041202B2221202C42225
:100C6000E55092E075D8008552F98553FA53F77F25
:100C7000F5E98551EA8552FB8553FC43F780F5E998
:100C80008551EA8552FB8553FC75D84022E5569282
:100C9000E075D8008558F98559FA53F77FF5E9854D
:100CA00057EA8558FB8559FC43F780F5E98557EAF3
:100CB0008558FB8559FC75D84022D213D55A0405B6
:100CC0005AC213E5554554121545F5555355FEA224
:100CD000E020130491608002918D22202813C2AF7E
:100CE000C291C29075D51ED292D2AF91BA759F3281
:100CF00022C2AFC292C29175D533D290D2AF91BA0F
:100D0000759F3222202813C2AFC291C29075D52D93
:100D1000D292D2AF91BA759F1222C2AFC292C29143
:100D200075D52DD290D2AF91BA759F52222028133B
:100D3000C2AFC292C29175D52DD290D2AF91BA7581
:100D40009F5222C2AFC291C29075D52DD292D2AF1E
:100D500091BA759F1222202813C2AFC292C2917518
:100D6000D533D290D2AF91BA759F3222C2AFC29121
:100D7000C29075D51ED292D2AF91BA759F32222001
:100D80002813C2AFC292C29075D533D291D2AF911F
:100D9000BA759F1222C2AFC292C29075D51ED2916F
:100DA000D2AF91BA759F5222202813C2AFC292C20D
:100DB0009075D51ED291D2AF91BA759F5222C2AF13
:100DC000C292C29075D533D291D2AF91BA759F12AB
:100DD000227A147B7880127A107B8C800C7A0D7BBF
:100DE000B480067A0B7BC88000E560D5E0012279EB
:100DF00002E4C291D5E0FDD294D5E0FDC294D5E0E5
:100E0000FDD291D5E0FDE920E002D29330E002D29C
:100E100095E560D5E0FDE920E002C29330E002C232
:100E2000957496D5E0FDD9C9EAF8D5E0FDD8FBDB8D
:100E3000B8C29122C293C294C295C292C291C2908A
:100E400075D53F22788076FF0876FF0876FF087612
:100E5000FF0876FF0876FF0876090876FF08760116
:100E6000788C76010876FF0876FF0876FF0876FF13
:100E70000876FF0876030876FF0876FF0876FF08F5
:100E800076250876D0087628087650087604087605
:100E9000FF0876020876FF08767A0876FF0876075C
:100EA0000876010876FF0876FF08760008760022AB
:100EB0007888E6C39403D22A5002C22AC228E630B8
:100EC000E102D228A22892297886E614C2AFC08314
:100ED000C0829000A093D082D083D2AF78A6F6785B
:100EE00086E6F53BC394025003753B02789CE67599
:100EF0003AFFB40203753AA0B40303753A8278A0AE
:100F0000E6F8600674282409D8FCF565D134227807
:100F1000A5E6F954037000E9540C7000E9543070F0
:100F200000E954C0700022756880756620756B6C8E
:100F3000756C147570FF7571EC7572DD2275680043
:100F4000756640756BD9756C287570EE7571CD75C9
:100F500072AC22741E208715C0D0C0E0740AD5E0A0
:100F6000FDD0E0D0D02087EBD5E0EDC322C0D0C0CB
:100F7000E0740AD5E0FDD0E0D0D03087D6D5E0EDE2
:100F8000D32230271E1202FE1202991202B212025E
:100F9000C41202D71202FE1202991202B21202C445
:100FA0001202D7227563007564007597DE7597ADE0
:100FB0007581AF43FF8075EF0675A900D134758048
:100FC000FF75F1D175A4007580FF75D4FF75900091
:100FD00075F23F75A53F75900075D53F75A60175F3
:100FE000E34075E202D134E47800F6D8FDD1441232
:100FF000168778988660753201C2AF12077A120D93
:10100000D1120772120DD7120772120DDD1207727C
:10101000120F0FC2AF75630075640078FA79FA3069
:101020008716D9FBD8F775A91375A71075C1007578
:10103000A700756200021C0075A71075C13075A766
:101040000075A903756201120EB078988660120EC1
:101050003475C80475910475D84075D90875F78141
:10106000759E03755520755A0175580075590075A0
:1010700056FF7557FF75960175DB4275DA42759B11
:1010800080759D0075D10C75BCB975BB1075E88075
:1010900075B201C22C120766753800C22012077A99
:1010A000D224120F53922775E4F730270375E47F9B
:1010B000C22BC22CC22DC22E75750512085A758816
:1010C00051758E0C7589AA758C00758D00758E0C06
:1010D00075E68075B80375A828120F3D120F82D2ED
:1010E000AF753032120776754C00754D00C3E53090
:1010F00094024002011312076A2020020113E54EF8
:1011000060020113C2AF120DD1120DD1120DD1D256
:10111000AF12077A756300756400120776E54E60BA
:10112000020113C2AF120DE3120DE3120DE3D2AFB1
:1011300012077A75320012085A120F82E4F533F55D
:10114000340533E533F4703F0534789AE6781914A2
:101150006012783214600D787D14600878FA14609B
:1011600003753400C3E53498401D120E341207662F
:10117000153475330078998660C2AF120DE3D2AF93
:101180007898866012077612076EE53170020113B7
:10119000302C0312063FC3E54E9401500AC3E54CC0
:1011A00094015016021141120776E53170030210C6
:1011B00013754C00754D0002136CC3E54C9401701F
:1011C00017C2AF120E3478998660120DD1789886C6
:1011D00060D2AF120776615EC3E54C94027017C20D
:1011E000AF120E3478998660120DD778988660D247
:1011F000AF120776615EC3E54C94037017C2AF125D
:101200000E3478998660120DDD78988660D2AF1220
:101210000776615EC3E54C94047017C2AF120E34BA
:1012200078998660120DE378988660D2AF120776BF
:10123000615EC3E54C94057017C2AF120E34789905
:101240008660120DE378988660D2AF120776615EF1
:10125000C3E54C94077019C3E54D940650022190E4
:101260007401302A0274037888F6C228C229615EAC
:10127000C3E54C94087019C3E54D940650022190C3
:101280007402302A0274047888F6D228D229615E6A
:10129000C3E54C94097017C3E54D940650022190A4
:1012A000302A0BC37888E69402F6C22A615EC3E551
:1012B0004C940A7016C3E54D940650022190202AE2
:1012C0000A7888E62402F6D22A615EC3E54C9414BB
:1012D000702DC3E54D9406500221907400C2AFC03A
:1012E00083C082901A0B93D082D083D2AF7888F6D5
:1012F00013C228C2294002D2284002D229805FC3EB
:10130000E54C94157040C3E54D940640577400C2F7
:10131000AFC083C082901A0B93D082D083D2AFF833
:10132000B801027402B802027401B803027404B86E
:10133000040274037888F613C228C2294002D22816
:101340004002D2298018C3E54C940C70117563A536
:101350007564F1C3E54D9406400AD1CED2AF754C09
:1013600000754D007563007564002190120E347590
:101370005E00752200752300753900755E0812073E
:10138000661207E030EDFDA8BDA9BEE97001F8883E
:101390005F1207E4755E08C2AF12084B855D5B857E
:1013A0005D5CD2AF302A07C228302502D228D2187D
:1013B000753500302C0312063F120D7F120DA81256
:1013C000085A1208611209CB1209DC12085A1208D5
:1013D000611209CB1209DC12085A120AE1120BDE63
:1013E000120CDB1208611209CB1209DC120AD1209F
:1013F0001C0312079A301C031207CA120BDE120DCF
:10140000041208611209CB1209DC120AE1120BDE88
:10141000120D2D1208611209CB1209DC120AD11229
:101420000BDE120D561208611209CB1209DC120AEA
:10143000E1120BDE120D7F1208611209CB1209DCDA
:101440001207E0120AD1120BDE120DA81207E412E5
:1014500008611209CB1209DC301827855D5B791809
:101460007A0CC3E53599400EC218D2198A37855DCA
:101470005B855D5C800CC3E54E940140030213DA8A
:10148000A10830191F201B1CE537147006C219D2A1
:101490001A61DAF537202A07C3E54E9401400302AA
:1014A00013DA8064753800202A0F78FA79A4E7608F
:1014B000027803C3E54F98504FE531604B302A174F
:1014C000202805202507800F302502800A201B07D1
:1014D000D21B855D5B811C78F0301B05855D5B78D8
:1014E00020C3E52C9850030213DA301B1BC21BC229
:1014F00028302502D228D219753712855D5B61DA52
:101500000538E54E6002A10B753800C2AF120E34EB
:10151000752300D2AF120776120E3475220078A41C
:10152000E66006D292D291D290C3E538940440028C
:10153000011321368322010203050C080409050C5E
:10154000080D09050C83220102030405060709386A
:1015500030282018100811093830282018101911C7
:10156000093830282018211911093830282029215C
:101570001911093830283129211911093830393128
:1015800029211911093883220102030405060708DD
:10159000090A0B0C0D0E0F11F0E0D0C0B0A0908026
:1015A000706050403020102111F0E0D0C0B0A09009
:1015B00080706050403020312111F0E0D0C0B0A0E8
:1015C0009080706050403041312111F0E0D0C0B0C7
:1015D000A09080706050405141312111F0E0D0C0A6
:1015E000B0A09080706050615141312111F0E0D085
:1015F000C0B0A09080706071615141312111F0E064
:10160000D0C0B0A09080708171615141312111F042
:10161000E0D0C0B0A0908091817161514131211121
:10162000F0E0D0C0B0A090A1918171615141312111
:1016300011F0E0D0C0B0A0B1A191817161514131F0
:101640002111F0E0D0C0B0C1B1A1918171615141CF
:10165000312111F0E0D0C0D1C1B1A19181716151AE
:1016600041312111F0E0D0E1D1C1B1A1918171618D
:101670005141312111F0E0F1E1D1C1B1A19181716C
:10168000615141312111F0901A0D7820F107E520C8
:10169000B4550AA3F107E520B4AA0280137563A527
:1016A0007564F1120E44D1CE756300756400801D1F
:1016B000901A0378807B0AF107A308DBFA901A0FCF
:1016C000788C7B1AF107A308DBFA901A2922C2AFA3
:1016D000F14AF127901A007410F10CA3744EF10C2A
:1016E000A37421F10C901A0378807B0AF10BA308F4
:1016F000DBFA901A0F788C7B1AF10BA308DBFAF156
:101700005DF13B901A2922E493F622E6438F0153C0
:101710008FFDFFC3E583941C400122EF8563B785ED
:1017200064B7F0538FFE22438F02438F018563B766
:101730008564B7901A0DF0538FFC22901A0D7455E2
:10174000F10C901A0E74AAF10C227A3079D078201C
:10175000901A40F107E520F709A3DAF7227A3079E9
:10176000D0901A40E7F10C09A3DAF9227C051207A0
:101770007ADCFB22C2AF120DD1120DD7120DDD1291
:101780000DE312076E120DD1120DD7120DDD120DE1
:10179000E312076E120DD1120DD7120DDD120DE3FB
:1017A000D2AF22C2AF120DE3120DDD120DD7120D12
:1017B000D112076E120DE3120DDD120DD7120DD1ED
:1017C00012076E120DE3120DDD120DD7120DD1D2DC
:0217D000AF2246
:1019FD00020FA4104E21FFFFFFFFFFFF09FF01FFA4
:101A0D0055AA01FFFFFFFFFF03FFFFFF25D0285061
:0D1A1D0004FF02FF7AFF0701FFFF0000FF3A
:101A400023545F485F313523202020202020202090
:101A500023424C48454C492445464D3842323123B7
:101A60002020202020202020202020202020202076
:101C0000C2AFC2D37597DE7597AD7581C075A90057
:101C100043FF80752438752503B1DB7529A5752A26
:101C2000F143F18053A47FD28775D4FF75E3407DE3
:101C3000FA780379E67C10752200752300901DE880
:101C40007B06752498752501308702814820870816
:101C5000D8FBD9F9DCF781BA308708D8FBD9F9DC91
:101C6000F781BAB19BE493A3C39A6004DDC381BA40
:101C7000DBDBB18D600281317B08E493FAA3B16EA6
:101C8000DBF87A30B16E752200752300B18DEAFC65
:101C9000EBFDC3ED94FE400EB18D8A278B28ED300D
:101CA000E0048A828B83B18D7AC270D8C3ED94FE32
:101CB000601950CEBD0029EC600F7520007521FF22
:101CC000752900752A000200008100A827A92808AC
:101CD00009D804D90281DDB191EAF281D10D81A642
:101CE000C3ED94035051EDA2E092007AC5C3E582A2
:101CF0009400E583941C508C200010438F02438F86
:101D0000018529B7852AB7F0300027A827A9280818
:101D100009438F01538FFDD804D902A132C3E58353
:101D2000941C4003A3A117E28529B7852AB7F0A325
:101D3000A117538FFC81827AC1BD030CE493A3FAEF
:101D4000B152DCF8B14A81828184AA22AB23B16E00
:101D5000EBFAEA6222752608C3E52313F523E52290
:101D600013F52250066323A0632201D526EAB1DBD6
:101D7000B1DB75260AEAF4200102D287300102C2E3
:101D800087B1DBC3134002C201D526EB22B191EA31
:101D9000FB208702A191308702A196752608AE2408
:101DA000AF25C3EF13FFEE13FEB1DFB1DBC3EA13C0
:101DB0003087024480FA30E703632201C3E523132E
:101DC000F523E52213F52250066323A0632201D5F3
:101DD00026D9E52265236523F52222AE24AF250E00
:101DE0000FDEFEDFFCD20122424C48656C693437BD
:061DF0003164E8B20601B7
:00000001FF
