:020000040000FA
:060000000219FD02074396
:03000B000203BE2F
:0300130002075091
:03001B000205AD2E
:03002B0002040AC2
:03005B0002076237
:0300730002043F45
:1000A000080C10182030406080A0C0E0F0C2AFC043
:1000B000829000B57301D501E601FA210E211F21BE
:1000C000332144215B216F2186219421A821B9216C
:1000D000D321E421FBD082D2AFA6F008A67208A6F5
:1000E00070088570F022D082D2AFA6F008A6700802
:1000F000A67108A670088570F022D082D2AFE57193
:10010000B5F002E572F608A672088570F022D0827A
:10011000D2AFA6F008A67008A672088570F022D0AB
:1001200082D2AFA6F008A67108A67008A67008854E
:1001300070F022D082D2AFA6F008A67108A671088E
:100140008570F022D082D2AFE571B5F002E572F68B
:1001500008A67008A671088570F022D082D2AFA6DA
:10016000F008A67008A67008A671088570F022D065
:1001700082D2AFE571B5F002E572F608A67108A665
:1001800070088570F022D082D2AFA6F008A672085F
:100190008571F022D082D2AFE571B5F002E572F63A
:1001A00008A671088571F022D082D2AFA6F008A609
:1001B0007008A671088571F022D082D2AFE571B5C2
:1001C000F002E572F608A67008A67008A670088509
:1001D00070F022D082D2AFA6F008A67108A67008EF
:1001E0008571F022D082D2AFE571B5F002E572F6EA
:1001F00008A67008A670088571F022D082D2AFA63A
:10020000F008A67008A67008A670088571F022E5AF
:100210002AA24F33F529752A0F8075E52AA24F339C
:10022000A24E33F529752A0D8066E52AA24F33A226
:100230004E33A24D33F529752A0B8054E52954F02D
:10024000C254452AC4F529752A098044E529A250DB
:1002500013A25113A25213F529752A078032E529FA
:10026000A25013A25113F529752A058023E529A26E
:100270005013F529752A03801720579320569C2088
:1002800055A82054B72053C42052D32051DFE5296C
:10029000C46529652AF4F57322C22E78E9302D024F
:1002A00078D18570F0E57323541E11AD85F0738805
:1002B00074228573F0A874E52923541E11AD85F0CE
:1002C000738874228573F0A874E529C423541E1121
:1002D000AD85F0738874228573F0A874E52A2354E1
:1002E0001E11ADA6F008E878E8302D0278D0F6C2ED
:1002F000AF202B05B22DD2AF22D22ED2AF22E52CC9
:10030000B4F00DE52B70097529FF752AFF5179228C
:10031000E52BA26013F529A261132529F529E52C07
:1003200003C2E7F52A03C2E7352AF52A517922C22A
:1003300087C0D0C0E0740FD5E0FDD0E0D0D0D28728
:10034000C0D0C0E07405D5E0FDD0E0D0D022C28797
:10035000C0D0C0E07405D5E0FDD0E0D0D0D287C0D9
:10036000D0C0E0740FD5E0FDD0E0D0D022C0D0C026
:10037000E0C0F0C2A8C28CD28775A480C0D0C0E013
:100380007402D5E0FDD0E0D0D075F00830E70471FC
:100390002F8002714E23D5F0F375A400D287C0D010
:1003A000C0E07405D5E0FDD0E0D0D0D28C758A00D5
:1003B000758C00C289D2A8D0F0D0E0D0D022202BFA
:1003C0000132C0D0C0E075D01118E8B56F33208776
:1003D0000BD28785708A08D0E0D0D03275A400D2C5
:1003E00087C22B758E0C7589AAC2A9C289C28B756A
:1003F0008A00758C00758200D2A8D2AAD0E0D0D035
:1004000032B287868AD0E0D0D032C0D0C0E0C2CF2E
:10041000053DE5626009E5616005756100801B7559
:100420006101E53160021531C3E54E6005754F008D
:100430008008054FE54F7002154FD0E0D0D032C292
:10044000AF53E67F7592FA7593FFC21053917FD236
:10045000AF32758200752600752700752800780078
:1004600075F000E0C0E0C395F0D0F0C3956640029F
:10047000D23B0582E0C0E0C395F0D0F0C395664062
:1004800002D23A0582E0C0E0C395F0D0F0C3956691
:100490004002D2390582E0C0E0C395F0D0F0C395A8
:1004A000664002D2380582E0C0E0C395F0D0F0C3C8
:1004B00095664002D2370582E0C0E0C395F0D0F0E7
:1004C000C395664002D2360582E0C0E0C395F0D005
:1004D000F0C395664002D2350582E0C0E0C395F0D6
:1004E000D0F0C395664002D2340582E0C0E0C395E7
:1004F000F0D0F0C395664002D2330582E0C0E0C37D
:1005000095F0D0F0C395664002D2320582E0C0E09B
:10051000C395F0D0F0C395664002D2310582E0C0A9
:10052000E0C395F0D0F0C395664002D2300582E07A
:10053000C0E0C395F0D0F0C395664002D243058277
:10054000E0C0E0C395F0D0F0C395664002D242050A
:1005500082E0C0E0C395F0D0F0C395664002D2417E
:100560000582E0C0E0C395F0D0F0C395664002D2AA
:10057000400582E526C465266527302701F46528F5
:10058000540F22900000D2A8D2AA0530E5307002A4
:100590001530C3E5309432400A754E00D0F0D0E0FB
:1005A000D0D03275310AD0F0D0E0D0D032C2AFC254
:1005B000A8C28EC0D0C0E0C0F075D010C2CAA8CC0E
:1005C000A9CDD2CAD2AF758A00C3E89569F8E9957A
:1005D0006AF9E970AEE8956B40A9956C50A5E58283
:1005E000B410A09152709C85266D85276ED22C2068
:1005F000270E900000D2A8D2AAD0F0D0E0D0D032FE
:10060000302E04B22DC22E756FD0302D03756FE8D9
:1006100078D0302D0278E8E6C28D758A55758E093E
:100620007589A2D22BD2A9D28775A48075D011F872
:10063000D0F0D0E0D0D0320483223C78B4F0F0C2C5
:100640002CC2AFA96DE56DC39460FAE56ED2AF948C
:1006500000FB50177B007A00E96010C313500CB503
:100660004C04054D8005F54C754D00302A27C3EA32
:1006700094D0F8EB9407F9400BE8FAE9FB20250940
:10068000D225C189302502C225202902B225C3EA1C
:1006900033FAEB33FBEB2B3B3BF9C3EB13FBEA13D6
:1006A000FAEA29FAEB3400FB30E3047AFF7BFFE53A
:1006B000235403601D201A1AE55D33F9EB7007C35C
:1006C000E99A4002E9FAE5385403D1372AFAEB34C3
:1006D00000FBC3EA33C4540FF8EB33C454F048F8BA
:1006E0007005EA60027801E53060021530D220889A
:1006F0004EE54E6003754F00AC5BC3E55B955C4017
:1007000002AC5CC3EC954E5008EC75F008A4FAAB53
:10071000F08A54535407EB131392D5A2E7F4540113
:10072000F9EA13A2D513F4F8C3E8940AFAE994009D
:10073000FB50047A007B00885089518A528B537594
:10074000310A22C0E0E58AF0058285688BD0E0326C
:10075000C2AA85688BD28EC2CA85CC6985CD6AD281
:10076000CA3253E6EF327901801479038010790A96
:10077000800C791E80087964800479C8800078171D
:10078000E4D5E0FDE8C0E0E9C0E0302C02D13FD084
:10079000E0F9D0E0F8D8E9D9E52278FF20182879E7
:1007A000A1E76023E52C601F74FF852CF084853B56
:1007B000F030190375F005A4F8C5F0600278FFC3A6
:1007C000E8955D5002A85D885C22C3E52B94A0E506
:1007D0002C9400E55C5003148001046002F55C2257
:1007E00075E89022055EC3E55E9408405330EDF451
:1007F000A8BDA9BE755E00E9FA79A0E76041EA707C
:1008000006E55F6018800CC3E8955F600EE55F50F9
:1008100005600A1480070460FA8002E55FF55FC393
:100820009565401B755BC0C394044013755B80C322
:100830009404400B755B40C394044003755B002235
:10084000E55B2410500274FFF55B22743279A687B1
:10085000F0A4C5F0A2F733F55D22752B00752CF0DE
:1008600022C2AFC2CAA8CCA9CDAA3D30CF010AD2BC
:10087000CAD2AFC3EA13FAE913F9E813F8AB3EACF6
:100880003F883E893FC3E89BF8E99C20180A547FC3
:10089000F9301C02217E8040AD408A40F9EA9D5427
:1008A0007FFA600678FF79FF8013AE41AF428B413B
:1008B0008C42A83EA93FC3E89EF8E99FF9C3E52C06
:1008C00013FBE52B13FAE82AF52BE93BF52C50082E
:1008D000752BFF752CFF804DAA2BAB2CAC2BAD2CB0
:1008E0007E047F02C3EB9404400D1E1FC3EB9408EB
:1008F00040052019021E1FC3ED13FDEC13FCDEF7AB
:10090000C3EA9CFAEB9DFBEF6009C3E913F9E81316
:10091000F8DFF7EA28FAEB39FB8A2B8B2C50067BA1
:10092000FF8B2B8B2CC3EB94025002D21C3018048B
:100930007F03801C7892E6FFC3E539948240110F53
:10094000C3E53994A040010FC3EF940640027F0530
:100950007E02E52CC4540FF9E52CC454F0F8E52BC5
:10096000C4540F28F8C3E89EFAE99400FB400AC378
:10097000EA9401EB94004001227A01E4FB22AA2BC5
:10098000AB2CEBC4FEEAC4540F4EFCC3EA9CFAEB5A
:100990009400FBC3E813C313F8EA28FAEB3400FB16
:1009A0008A2B8B2CC3EB94024002C21C7802EBC44E
:1009B000FE7B00EAC4540F4EFAC3EA98FA4005C31E
:1009C000940150027A017892E6FF2230100221CB86
:1009D000854892854993D21043E68022C3E49AF871
:1009E000E49BF9C3E833F8E933F9201C6FE8FAE92E
:1009F000FBD3E913FDE813FC88488949C3EF94034E
:100A00006037EF20E00CE82CF8E93DF9ECFAEDFB5B
:100A10008013E828F8E939F9C3E82401F8E934003B
:100A2000F97AFF7BFFC3EF9403400E8A4A8B4B8811
:100A30004489458C468D478057884A894B8A448B28
:100A4000458C468D47301812754AF0754BFF754638
:100A5000F07547FF7548F07549FF8034E8FAD3E830
:100A600013FC8848C3EF94036020EF20E007E82CD4
:100A7000F8ECFA417CE8282401F87AFFC3EF9403EC
:100A800040088A4A88448C468006884A8A448C46B4
:100A90003010024190753602D21043E680E52354AF
:100AA00003602DA82BA92CC3E913F9E813F830181B
:100AB00004E92440F9C2AF53E67F759100C3E4987E
:100AC000F594E499F595759104D21043E680D2AF80
:100AD00022D211754300752000301B037520404160
:100AE000EFD211754300752040301B03752000784C
:100AF000017901201C28E52354036002C2117914F6
:100B0000E52CC313700104F8C39414400278143028
:100B10001804781B791BC3E833F8C3E933F92010B4
:100B200010E543600C301803D53604D21261A2518F
:100B3000980543E59B5440B52002618C30180908A4
:100B4000C3E899400118611E20110A08C3E89940C2
:100B50000241EF611EC21153E67F759100301C11F6
:100B60007594007595F0759104D21043E680020AE1
:100B7000EFE52C7EFFC3334009C3334005C3334048
:100B800001FEC3E49E759400F5956166C3E5359456
:100B900001500241EF30110241EFD80261A0611E05
:100BA000C212C2AF53E67F759100854A94854B957A
:100BB000759104854492854593D21043E680D2AF67
:100BC000E523540360072019020535801030120D0B
:100BD000201B0A2011071581158102156A22780051
:100BE0003011027801E53975F007A4F9E5F028F530
:100BF000F0E9A2F013A2F113A2F213F539C394782D
:100C00005003753978C3E539953A400653F28F752C
:100C1000D5FF91253010028114854692854793D2E5
:100C20001043E68022302C0A12063FE52C54F8705F
:100C3000012230270C202B09D57507757505120286
:100C4000D722E575B404041202FE22B40304120292
:100C50009922B402041202B2221202C422E5509276
:100C6000E075D8008552F98553FA53F77FF5E98589
:100C700051EA8552FB8553FC43F780F5E98551EA3B
:100C80008552FB8553FC75D84022E55692E075D815
:100C9000008558F98559FA53F77FF5E98557EA85B4
:100CA00058FB8559FC43F780F5E98557EA8558FBE1
:100CB0008559FC75D84022D213D55A04055AC2135F
:100CC000E55545541215B8F5555355FEA2E02013CD
:100CD00004915D8002918A2220281BC2AF53F2DF6B
:100CE00053F2EF75D5EF43F210C29643F240D2AF04
:100CF00091B7759F5322C2AF53F2BF53F2DF75D540
:100D0000BF43F240C29443F210D2AF91B7759F53E4
:100D10002220281BC2AF53F2DF53F2EF75D5DF4319
:100D2000F220C29643F240D2AF91B7759F6322C2C0
:100D3000AF53F2BF53F2DF75D5DF43F220C29443C5
:100D4000F210D2AF91B7759F232220281BC2AF5358
:100D5000F2BF53F2DF75D5DF43F220C29443F210A5
:100D6000D2AF91B7759F2322C2AF53F2DF53F2EF98
:100D700075D5DF43F220C29643F240D2AF91B775EA
:100D80009F632220281BC2AF53F2BF53F2DF75D5F9
:100D9000BF43F240C29443F210D2AF91B7759F5354
:100DA00022C2AF53F2DF53F2EF75D5EF43F210C218
:100DB0009643F240D2AF91B7759F532220281BC2B1
:100DC000AF53F2BF53F2EF75D5BF43F240C2954324
:100DD000F220D2AF91B7759F6322C2AF53F2BF53D7
:100DE000F2EF75D5EF43F210C29543F220D2AF91E6
:100DF000B7759F232220281BC2AF53F2BF53F2EFD7
:100E000075D5EF43F210C29543F220D2AF91B7757A
:100E10009F2322C2AF53F2BF53F2EF75D5BF43F207
:100E200040C29543F220D2AF91B7759F63227A14E6
:100E30007B7880127A107B8C800C7A0D7BB48006D4
:100E40007A0B7BC88000E560D5E001227902E4538B
:100E5000F2DFD5E0FDD29543F220D5E0FD53F2DF7D
:100E6000D5E0FDC29543F220D5E0FDE920E005D2B2
:100E70009643F24030E005D29443F210E560D5E0AD
:100E8000FDE920E00353F2BF30E00353F2EF749624
:100E9000D5E0FDD9B9EAF8D5E0FDD8FBDBA853F2DF
:100EA000DF2253F28F53F28F75D5FF22788076FFC1
:100EB0000876FF0876FF0876FF0876FF0876FF08B9
:100EC00076090876FF087601788C76010876FF08A7
:100ED00076FF0876FF0876FF0876FF087603087627
:100EE000FF0876FF0876FF0876250876D008762872
:100EF0000876500876040876FF0876020876FF0820
:100F0000767A0876FF0876070876010876FF087675
:100F1000FF087600087600227888E6C39403D22A78
:100F20005002C22AC228E630E102D228A228922921
:100F30007886E614C2AFC083C0829000A093D082AE
:100F4000D083D2AF78A6F67886E6F53BC3940250FC
:100F500003753B02789CE6753AFFB40203753AA02C
:100F6000B40303753A8278A0E6F860067428240971
:100F7000D8FCF565D1A22278A5E6F954037000E902
:100F8000540C7000E954307000E954C070002275B0
:100F90006880756620756B6C756C147570FF757163
:100FA000EC7572DD22756800756640756BD9756CDD
:100FB000287570EE7571CD7572AC22741E20871580
:100FC000C0D0C0E0740AD5E0FDD0E0D0D02087EBDF
:100FD000D5E0EDC322C0D0C0E0740AD5E0FDD0E07A
:100FE000D0D03087D6D5E0EDD32230271E1202FEB6
:100FF0001202991202B21202C41202D71202FE1297
:1010000002991202B21202C41202D722756300754D
:1010100064007597DE7597AD7581AF43FF8075EFFE
:101020000675A900120EA27580FF75F19375A400D4
:101030007580FF75D4FF75900075F28F75A570757A
:10104000900075D5FF75A60175E34075E202120E9A
:10105000A2E47800F6D8FD120EACD1FA789886603A
:10106000753201C2AF12077A120E2E120772120EDB
:1010700034120772120E3A120772120F77C2AF754E
:10108000630075640078FA79FA308716D9FBD8F7CF
:1010900075A91375A71075C10075A70075620002C8
:1010A0001C0075A71075C13075A70075A90375627E
:1010B00001120F1878988660120EA275C8047591F7
:1010C0000475D84075D90875F781759E037555204C
:1010D000755A017558007559007556FF7557FF759B
:1010E000960175DB4275DA42759B80759D0075D15E
:1010F0000C75BCB975BB1075E88075B201C22C12B5
:101100000766753800C22012077AD224120FBB92EC
:101110002775E4F730270375E47FC22BC22CC22D5C
:10112000C22E75750512085A758851758E0C758911
:10113000AA758C00758D00758E0C75E68075B803E8
:1011400075A828120FA5120FEAD2AF753032120718
:1011500076754C00754D00C3E53094024002017D68
:1011600012076A202002017DE54E6002017DC2AFB8
:10117000120E2E120E2E120E2ED2AF12077A756399
:1011800000756400120776E54E6002017DC2AF1261
:101190000E40120E40120E40D2AF12077A75320086
:1011A00012085A120FEAE4F533F5340533E533F447
:1011B000703F0534789AE67819146012783214601A
:1011C0000D787D14600878FA146003753400C3E567
:1011D0003498401D120EA21207661534753300783C
:1011E000998660C2AF120E40D2AF7898866012071F
:1011F0007612076EE5317002017D302C0312063F36
:10120000C3E54E9401500AC3E54C940150160211F7
:10121000AB120776E531700302107D754C00754DF9
:10122000000213D6C3E54C94017017C2AF120EA290
:1012300078998660120E2E78988660D2AF12077663
:1012400061C8C3E54C94027017C2AF120EA2789920
:101250008660120E3478988660D2AF12077661C825
:10126000C3E54C94037017C2AF120EA27899866042
:10127000120E3A78988660D2AF12077661C8C3E53D
:101280004C94047017C2AF120EA278998660120EA9
:101290004078988660D2AF12077661C8C3E54C9457
:1012A000057017C2AF120EA278998660120E4078B0
:1012B000988660D2AF12077661C8C3E54C94077078
:1012C00019C3E54D9406500221FA7401302A0274C4
:1012D000037888F6C228C22961C8C3E54C94087017
:1012E00019C3E54D9406500221FA7402302A0274A3
:1012F000047888F6D228D22961C8C3E54C940970D5
:1013000017C3E54D9406500221FA302A0BC37888A2
:10131000E69402F6C22A61C8C3E54C940A7016C36B
:10132000E54D9406500221FA202A0A7888E6240224
:10133000F6D22A61C8C3E54C9414702DC3E54D94D0
:1013400006500221FA7400C2AFC083C082901A0B0B
:1013500093D082D083D2AF7888F613C228C22940B6
:1013600002D2284002D229805FC3E54C9415704018
:10137000C3E54D940640577400C2AFC083C082904D
:101380001A0B93D082D083D2AFF8B801027402B89E
:1013900002027401B803027404B80402740378886A
:1013A000F613C228C2294002D2284002D22980184E
:1013B000C3E54C940C70117563A57564F1C3E54DDC
:1013C0009406400AF141D2AF754C00754D0075632B
:1013D0000075640021FA120EA2755E007522007578
:1013E0002300753900755E081207661207E030EDBC
:1013F000FDA8BDA9BEE97001F8885F1207E4755E1B
:1014000008C2AF12084B855D5B855D5CD2AF302AA8
:1014100007C228302502D228D218753500302C0397
:1014200012063F120DBC120DF512085A1208611275
:1014300009CB1209DC12085A1208611209CB1209F1
:10144000DC12085A120AE1120BDE120CD8120861E3
:101450001209CB1209DC120AD1201C0312079A30A0
:101460001C031207CA120BDE120D111208611209B9
:10147000CB1209DC120AE1120BDE120D4A120861CE
:101480001209CB1209DC120AD1120BDE120D8312E3
:1014900008611209CB1209DC120AE1120BDE120DEF
:1014A000BC1208611209CB1209DC1207E0120AD142
:1014B000120BDE120DF51207E41208611209CB12AD
:1014C00009DC301827855D5B79187A0CC3E53599FE
:1014D000400EC218D2198A37855D5B855D5C800C31
:1014E000C3E54E94014003021444A17230191F2039
:1014F0001B1CE537147006C219D21A8144F5372037
:101500002A07C3E54E9401400302144480647538F1
:1015100000202A0F78FA79A4E760027803C3E54F28
:1015200098504FE531604B302A17202805202507B9
:10153000800F302502800A201B07D21B855D5B814E
:101540008678F0301B05855D5B7820C3E52C9850CC
:1015500003021444301B1BC21BC228302502D228B0
:10156000D219753712855D5B81440538E54E6002FE
:10157000A175753800C2AF120EA2752300D2AF124A
:101580000776120EA275220078A4E6600FC2964379
:10159000F240C29543F220C29443F210C3E538945E
:1015A000044002017D21A08322010203050C0804EE
:1015B00009050C080D09050C832201020304050628
:1015C0000709383028201810081109383028201849
:1015D000101911093830282018211911093830281C
:1015E00020292119110938302831292119110938E8
:1015F00030393129211911093883220102030405E8
:10160000060708090A0B0C0D0E0F11F0E0D0C0B050
:10161000A09080706050403020102111F0E0D0C0C8
:10162000B0A09080706050403020312111F0E0D0A7
:10163000C0B0A09080706050403041312111F0E086
:10164000D0C0B0A09080706050405141312111F065
:10165000E0D0C0B0A0908070605061514131211144
:10166000F0E0D0C0B0A09080706071615141312134
:1016700011F0E0D0C0B0A090807081716151413113
:101680002111F0E0D0C0B0A09080918171615141F2
:10169000312111F0E0D0C0B0A090A19181716151D1
:1016A00041312111F0E0D0C0B0A0B1A191817161B0
:1016B0005141312111F0E0D0C0B0C1B1A19181718F
:1016C000615141312111F0E0D0C0D1C1B1A191816E
:1016D00071615141312111F0E0D0E1D1C1B1A1914D
:1016E0008171615141312111F0E0F1E1D1C1B1A12C
:1016F000918171615141312111F0901A0D7820F1E1
:101700007AE520B4550AA3F17AE520B4AA02801341
:101710007563A57564F1120EACF1417563007564D3
:1017200000801D901A0378807B0AF17AA308DBFA07
:10173000901A0F788C7B1AF17AA308DBFA901A2999
:1017400022C2AFF1BDF19A901A007410F17FA37418
:101750004EF17FA37421F17F901A0378807B0AF108
:101760007EA308DBFA901A0F788C7B1AF17EA3080F
:10177000DBFAF1D0F1AE901A2922E493F622E64387
:101780008F01538FFDFFC3E583941C400122EF8539
:1017900063B78564B7F0538FFE22438F02438F01F6
:1017A0008563B78564B7901A0DF0538FFC22901AA9
:1017B0000D7455F17F901A0E74AAF17F227A307958
:1017C000D07820901A40F17AE520F709A3DAF722C1
:1017D0007A3079D0901A40E7F17F09A3DAF9227CB8
:1017E0000512077ADCFB22C2AF120E2E120E341243
:1017F0000E3A120E4012076E120E2E120E34120EF8
:101800003A120E4012076E120E2E120E34120E3ABB
:10181000120E40D2AF22C2AF120E40120E3A120E7A
:1018200034120E2E12076E120E40120E3A120E34A1
:10183000120E2E12076E120E40120E3A120E3412B3
:051840000E2ED2AF22C4
:1019FD0002100C104E21FFFFFFFFFFFF09FF01FF3B
:101A0D0055AA01FFFFFFFFFF03FFFFFF25D0285061
:0D1A1D0004FF02FF7AFF0701FFFF0000FF3A
:101A400023575F485F313023202020202020202092
:101A500023424C48454C492445464D3842323123B7
:101A60002020202020202020202020202020202076
:101C0000C2AFC2D37597DE7597AD7581C075A90057
:101C100043FF80752438752503B1DB7529A5752A26
:101C2000F143F18053A47FD28775D4FF75E3407DE3
:101C3000FA780379E67C10752200752300901DE880
:101C40007B06752498752501308702814820870816
:101C5000D8FBD9F9DCF781BA308708D8FBD9F9DC91
:101C6000F781BAB19BE493A3C39A6004DDC381BA40
:101C7000DBDBB18D600281317B08E493FAA3B16EA6
:101C8000DBF87A30B16E752200752300B18DEAFC65
:101C9000EBFDC3ED94FE400EB18D8A278B28ED300D
:101CA000E0048A828B83B18D7AC270D8C3ED94FE32
:101CB000601950CEBD0029EC600F7520007521FF22
:101CC000752900752A000200008100A827A92808AC
:101CD00009D804D90281DDB191EAF281D10D81A642
:101CE000C3ED94035051EDA2E092007AC5C3E582A2
:101CF0009400E583941C508C200010438F02438F86
:101D0000018529B7852AB7F0300027A827A9280818
:101D100009438F01538FFDD804D902A132C3E58353
:101D2000941C4003A3A117E28529B7852AB7F0A325
:101D3000A117538FFC81827AC1BD030CE493A3FAEF
:101D4000B152DCF8B14A81828184AA22AB23B16E00
:101D5000EBFAEA6222752608C3E52313F523E52290
:101D600013F52250066323A0632201D526EAB1DBD6
:101D7000B1DB75260AEAF4200102D287300102C2E3
:101D800087B1DBC3134002C201D526EB22B191EA31
:101D9000FB208702A191308702A196752608AE2408
:101DA000AF25C3EF13FFEE13FEB1DFB1DBC3EA13C0
:101DB0003087024480FA30E703632201C3E523132E
:101DC000F523E52213F52250066323A0632201D5F3
:101DD00026D9E52265236523F52222AE24AF250E00
:101DE0000FDEFEDFFCD20122424C48656C693437BD
:061DF0003164E8B20601B7
:00000001FF
